{
  "_format": "hh-sol-artifact-1",
  "contractName": "CarMint",
  "sourceName": "contracts/carContract.sol",
  "abi": [
    {
      "inputs": [
        {
          "internalType": "string",
          "name": "_name",
          "type": "string"
        },
        {
          "internalType": "string",
          "name": "_symbol",
          "type": "string"
        }
      ],
      "stateMutability": "nonpayable",
      "type": "constructor"
    },
    {
      "anonymous": false,
      "inputs": [
        {
          "indexed": true,
          "internalType": "address",
          "name": "owner",
          "type": "address"
        },
        {
          "indexed": true,
          "internalType": "address",
          "name": "approved",
          "type": "address"
        },
        {
          "indexed": true,
          "internalType": "uint256",
          "name": "tokenId",
          "type": "uint256"
        }
      ],
      "name": "Approval",
      "type": "event"
    },
    {
      "anonymous": false,
      "inputs": [
        {
          "indexed": true,
          "internalType": "address",
          "name": "owner",
          "type": "address"
        },
        {
          "indexed": true,
          "internalType": "address",
          "name": "operator",
          "type": "address"
        },
        {
          "indexed": false,
          "internalType": "bool",
          "name": "approved",
          "type": "bool"
        }
      ],
      "name": "ApprovalForAll",
      "type": "event"
    },
    {
      "anonymous": false,
      "inputs": [
        {
          "indexed": true,
          "internalType": "address",
          "name": "previousOwner",
          "type": "address"
        },
        {
          "indexed": true,
          "internalType": "address",
          "name": "newOwner",
          "type": "address"
        }
      ],
      "name": "OwnershipTransferred",
      "type": "event"
    },
    {
      "anonymous": false,
      "inputs": [
        {
          "indexed": true,
          "internalType": "address",
          "name": "from",
          "type": "address"
        },
        {
          "indexed": true,
          "internalType": "address",
          "name": "to",
          "type": "address"
        },
        {
          "indexed": true,
          "internalType": "uint256",
          "name": "tokenId",
          "type": "uint256"
        }
      ],
      "name": "Transfer",
      "type": "event"
    },
    {
      "anonymous": false,
      "inputs": [
        {
          "indexed": false,
          "internalType": "uint256",
          "name": "id",
          "type": "uint256"
        },
        {
          "indexed": false,
          "internalType": "uint256",
          "name": "randNum",
          "type": "uint256"
        }
      ],
      "name": "minted",
      "type": "event"
    },
    {
      "anonymous": false,
      "inputs": [
        {
          "indexed": false,
          "internalType": "address",
          "name": "user",
          "type": "address"
        }
      ],
      "name": "payedFee",
      "type": "event"
    },
    {
      "inputs": [
        {
          "internalType": "address",
          "name": "_add",
          "type": "address"
        },
        {
          "internalType": "uint256",
          "name": "_rand",
          "type": "uint256"
        }
      ],
      "name": "_minting",
      "outputs": [],
      "stateMutability": "nonpayable",
      "type": "function"
    },
    {
      "inputs": [
        {
          "internalType": "address",
          "name": "to",
          "type": "address"
        },
        {
          "internalType": "uint256",
          "name": "tokenId",
          "type": "uint256"
        }
      ],
      "name": "approve",
      "outputs": [],
      "stateMutability": "nonpayable",
      "type": "function"
    },
    {
      "inputs": [
        {
          "internalType": "address",
          "name": "owner",
          "type": "address"
        }
      ],
      "name": "balanceOf",
      "outputs": [
        {
          "internalType": "uint256",
          "name": "",
          "type": "uint256"
        }
      ],
      "stateMutability": "view",
      "type": "function"
    },
    {
      "inputs": [],
      "name": "brainPrice",
      "outputs": [
        {
          "internalType": "uint256",
          "name": "",
          "type": "uint256"
        }
      ],
      "stateMutability": "view",
      "type": "function"
    },
    {
      "inputs": [],
      "name": "brainTest",
      "outputs": [
        {
          "internalType": "uint256",
          "name": "",
          "type": "uint256"
        }
      ],
      "stateMutability": "view",
      "type": "function"
    },
    {
      "inputs": [
        {
          "internalType": "uint256",
          "name": "",
          "type": "uint256"
        }
      ],
      "name": "cars",
      "outputs": [
        {
          "internalType": "uint256",
          "name": "rairty",
          "type": "uint256"
        },
        {
          "internalType": "uint256",
          "name": "cap",
          "type": "uint256"
        },
        {
          "internalType": "uint256",
          "name": "counter",
          "type": "uint256"
        },
        {
          "internalType": "bool",
          "name": "inCrew",
          "type": "bool"
        }
      ],
      "stateMutability": "view",
      "type": "function"
    },
    {
      "inputs": [
        {
          "internalType": "uint256",
          "name": "tokenId",
          "type": "uint256"
        }
      ],
      "name": "getApproved",
      "outputs": [
        {
          "internalType": "address",
          "name": "",
          "type": "address"
        }
      ],
      "stateMutability": "view",
      "type": "function"
    },
    {
      "inputs": [],
      "name": "getCap",
      "outputs": [
        {
          "internalType": "uint256[]",
          "name": "",
          "type": "uint256[]"
        }
      ],
      "stateMutability": "view",
      "type": "function"
    },
    {
      "inputs": [
        {
          "internalType": "uint256",
          "name": "_id",
          "type": "uint256"
        }
      ],
      "name": "getCapOfCarById",
      "outputs": [
        {
          "internalType": "uint256",
          "name": "",
          "type": "uint256"
        }
      ],
      "stateMutability": "view",
      "type": "function"
    },
    {
      "inputs": [
        {
          "internalType": "uint256",
          "name": "_id",
          "type": "uint256"
        }
      ],
      "name": "getCrewStatus",
      "outputs": [
        {
          "internalType": "bool",
          "name": "",
          "type": "bool"
        }
      ],
      "stateMutability": "view",
      "type": "function"
    },
    {
      "inputs": [],
      "name": "getIds",
      "outputs": [
        {
          "internalType": "uint256[]",
          "name": "",
          "type": "uint256[]"
        }
      ],
      "stateMutability": "view",
      "type": "function"
    },
    {
      "inputs": [],
      "name": "getRar",
      "outputs": [
        {
          "internalType": "uint256[]",
          "name": "",
          "type": "uint256[]"
        }
      ],
      "stateMutability": "view",
      "type": "function"
    },
    {
      "inputs": [
        {
          "internalType": "address",
          "name": "",
          "type": "address"
        }
      ],
      "name": "howMany",
      "outputs": [
        {
          "internalType": "uint256",
          "name": "",
          "type": "uint256"
        }
      ],
      "stateMutability": "view",
      "type": "function"
    },
    {
      "inputs": [
        {
          "internalType": "uint256",
          "name": "",
          "type": "uint256"
        }
      ],
      "name": "idOwner",
      "outputs": [
        {
          "internalType": "address",
          "name": "",
          "type": "address"
        }
      ],
      "stateMutability": "view",
      "type": "function"
    },
    {
      "inputs": [
        {
          "internalType": "address",
          "name": "owner",
          "type": "address"
        },
        {
          "internalType": "address",
          "name": "operator",
          "type": "address"
        }
      ],
      "name": "isApprovedForAll",
      "outputs": [
        {
          "internalType": "bool",
          "name": "",
          "type": "bool"
        }
      ],
      "stateMutability": "view",
      "type": "function"
    },
    {
      "inputs": [],
      "name": "mintFree",
      "outputs": [],
      "stateMutability": "nonpayable",
      "type": "function"
    },
    {
      "inputs": [
        {
          "internalType": "address",
          "name": "",
          "type": "address"
        }
      ],
      "name": "mintStatus",
      "outputs": [
        {
          "internalType": "bool",
          "name": "",
          "type": "bool"
        }
      ],
      "stateMutability": "view",
      "type": "function"
    },
    {
      "inputs": [],
      "name": "name",
      "outputs": [
        {
          "internalType": "string",
          "name": "",
          "type": "string"
        }
      ],
      "stateMutability": "view",
      "type": "function"
    },
    {
      "inputs": [],
      "name": "owner",
      "outputs": [
        {
          "internalType": "address",
          "name": "",
          "type": "address"
        }
      ],
      "stateMutability": "view",
      "type": "function"
    },
    {
      "inputs": [
        {
          "internalType": "uint256",
          "name": "tokenId",
          "type": "uint256"
        }
      ],
      "name": "ownerOf",
      "outputs": [
        {
          "internalType": "address",
          "name": "",
          "type": "address"
        }
      ],
      "stateMutability": "view",
      "type": "function"
    },
    {
      "inputs": [
        {
          "internalType": "uint256",
          "name": "_id",
          "type": "uint256"
        },
        {
          "internalType": "address",
          "name": "_add",
          "type": "address"
        }
      ],
      "name": "ownerOfId",
      "outputs": [
        {
          "internalType": "bool",
          "name": "",
          "type": "bool"
        }
      ],
      "stateMutability": "view",
      "type": "function"
    },
    {
      "inputs": [],
      "name": "payWithBr",
      "outputs": [],
      "stateMutability": "payable",
      "type": "function"
    },
    {
      "inputs": [],
      "name": "renounceOwnership",
      "outputs": [],
      "stateMutability": "nonpayable",
      "type": "function"
    },
    {
      "inputs": [
        {
          "internalType": "address",
          "name": "from",
          "type": "address"
        },
        {
          "internalType": "address",
          "name": "to",
          "type": "address"
        },
        {
          "internalType": "uint256",
          "name": "tokenId",
          "type": "uint256"
        }
      ],
      "name": "safeTransferFrom",
      "outputs": [],
      "stateMutability": "nonpayable",
      "type": "function"
    },
    {
      "inputs": [
        {
          "internalType": "address",
          "name": "from",
          "type": "address"
        },
        {
          "internalType": "address",
          "name": "to",
          "type": "address"
        },
        {
          "internalType": "uint256",
          "name": "tokenId",
          "type": "uint256"
        },
        {
          "internalType": "bytes",
          "name": "data",
          "type": "bytes"
        }
      ],
      "name": "safeTransferFrom",
      "outputs": [],
      "stateMutability": "nonpayable",
      "type": "function"
    },
    {
      "inputs": [
        {
          "internalType": "address",
          "name": "operator",
          "type": "address"
        },
        {
          "internalType": "bool",
          "name": "approved",
          "type": "bool"
        }
      ],
      "name": "setApprovalForAll",
      "outputs": [],
      "stateMutability": "nonpayable",
      "type": "function"
    },
    {
      "inputs": [
        {
          "internalType": "uint256",
          "name": "_id",
          "type": "uint256"
        }
      ],
      "name": "setCarCrew",
      "outputs": [],
      "stateMutability": "nonpayable",
      "type": "function"
    },
    {
      "inputs": [
        {
          "internalType": "address",
          "name": "_add",
          "type": "address"
        }
      ],
      "name": "setCombine2",
      "outputs": [],
      "stateMutability": "nonpayable",
      "type": "function"
    },
    {
      "inputs": [
        {
          "internalType": "address",
          "name": "_add",
          "type": "address"
        }
      ],
      "name": "setOracleAddress",
      "outputs": [],
      "stateMutability": "nonpayable",
      "type": "function"
    },
    {
      "inputs": [
        {
          "internalType": "address",
          "name": "_add",
          "type": "address"
        }
      ],
      "name": "setPacoCoin",
      "outputs": [],
      "stateMutability": "nonpayable",
      "type": "function"
    },
    {
      "inputs": [
        {
          "internalType": "bytes4",
          "name": "interfaceId",
          "type": "bytes4"
        }
      ],
      "name": "supportsInterface",
      "outputs": [
        {
          "internalType": "bool",
          "name": "",
          "type": "bool"
        }
      ],
      "stateMutability": "view",
      "type": "function"
    },
    {
      "inputs": [],
      "name": "symbol",
      "outputs": [
        {
          "internalType": "string",
          "name": "",
          "type": "string"
        }
      ],
      "stateMutability": "view",
      "type": "function"
    },
    {
      "inputs": [
        {
          "internalType": "uint256",
          "name": "tokenId",
          "type": "uint256"
        }
      ],
      "name": "tokenURI",
      "outputs": [
        {
          "internalType": "string",
          "name": "",
          "type": "string"
        }
      ],
      "stateMutability": "view",
      "type": "function"
    },
    {
      "inputs": [
        {
          "internalType": "address",
          "name": "from",
          "type": "address"
        },
        {
          "internalType": "address",
          "name": "to",
          "type": "address"
        },
        {
          "internalType": "uint256",
          "name": "tokenId",
          "type": "uint256"
        }
      ],
      "name": "transferFrom",
      "outputs": [],
      "stateMutability": "nonpayable",
      "type": "function"
    },
    {
      "inputs": [
        {
          "internalType": "address",
          "name": "newOwner",
          "type": "address"
        }
      ],
      "name": "transferOwnership",
      "outputs": [],
      "stateMutability": "nonpayable",
      "type": "function"
    }
  ],
  "bytecode": "0x60806040526000600f556101906011553480156200001c57600080fd5b50604051620048c0380380620048c08339818101604052810190620000429190620003b9565b81816200006462000058620000a060201b60201c565b620000a860201b60201c565b81600190805190602001906200007c9291906200016c565b508060029080519060200190620000959291906200016c565b5050505050620004a3565b600033905090565b60008060009054906101000a900473ffffffffffffffffffffffffffffffffffffffff169050816000806101000a81548173ffffffffffffffffffffffffffffffffffffffff021916908373ffffffffffffffffffffffffffffffffffffffff1602179055508173ffffffffffffffffffffffffffffffffffffffff168173ffffffffffffffffffffffffffffffffffffffff167f8be0079c531659141344cd1fd0a4f28419497f9722a3daafe3b4186f6b6457e060405160405180910390a35050565b8280546200017a906200046d565b90600052602060002090601f0160209004810192826200019e5760008555620001ea565b82601f10620001b957805160ff1916838001178555620001ea565b82800160010185558215620001ea579182015b82811115620001e9578251825591602001919060010190620001cc565b5b509050620001f99190620001fd565b5090565b5b8082111562000218576000816000905550600101620001fe565b5090565b6000604051905090565b600080fd5b600080fd5b600080fd5b600080fd5b6000601f19601f8301169050919050565b7f4e487b7100000000000000000000000000000000000000000000000000000000600052604160045260246000fd5b62000285826200023a565b810181811067ffffffffffffffff82111715620002a757620002a66200024b565b5b80604052505050565b6000620002bc6200021c565b9050620002ca82826200027a565b919050565b600067ffffffffffffffff821115620002ed57620002ec6200024b565b5b620002f8826200023a565b9050602081019050919050565b60005b838110156200032557808201518184015260208101905062000308565b8381111562000335576000848401525b50505050565b6000620003526200034c84620002cf565b620002b0565b90508281526020810184848401111562000371576200037062000235565b5b6200037e84828562000305565b509392505050565b600082601f8301126200039e576200039d62000230565b5b8151620003b08482602086016200033b565b91505092915050565b60008060408385031215620003d357620003d262000226565b5b600083015167ffffffffffffffff811115620003f457620003f36200022b565b5b620004028582860162000386565b925050602083015167ffffffffffffffff8111156200042657620004256200022b565b5b620004348582860162000386565b9150509250929050565b7f4e487b7100000000000000000000000000000000000000000000000000000000600052602260045260246000fd5b600060028204905060018216806200048657607f821691505b602082108114156200049d576200049c6200043e565b5b50919050565b61440d80620004b36000396000f3fe6080604052600436106102045760003560e01c80636c70a98111610118578063a22cb465116100a0578063d7e2d1041161006f578063d7e2d1041461079f578063e7e91853146107a9578063e985e9c5146107d2578063f2fde38b1461080f578063f7746e361461083857610204565b8063a22cb465146106d3578063b88d4fde146106fc578063bf3fd6ce14610725578063c87b56dd1461076257610204565b806374945b73116100e757806374945b73146106005780638ab534471461063d5780638da5cb5b1461065457806395d89b411461067f578063a0f2a366146106aa57610204565b80636c70a981146105445780636fcf00301461056f57806370a08231146105ac578063715018a6146105e957610204565b806330e9a68e1161019b5780634b355cfa1161016a5780634b355cfa1461044d5780634c69c00f14610476578063554d578d1461049f578063602977ad146104ca5780636352211e1461050757610204565b806330e9a68e146103a55780633456ca6e146103d057806342842e0e146103fb578063458aa7fb1461042457610204565b80630d26634a116101d75780630d26634a146102d75780630deab8101461031457806323b872dd146103515780632b1056631461037a57610204565b806301ffc9a71461020957806306fdde0314610246578063081812fc14610271578063095ea7b3146102ae575b600080fd5b34801561021557600080fd5b50610230600480360381019061022b9190612f18565b610878565b60405161023d9190612f60565b60405180910390f35b34801561025257600080fd5b5061025b61095a565b6040516102689190613014565b60405180910390f35b34801561027d57600080fd5b506102986004803603810190610293919061306c565b6109ec565b6040516102a591906130da565b60405180910390f35b3480156102ba57600080fd5b506102d560048036038101906102d09190613121565b610a32565b005b3480156102e357600080fd5b506102fe60048036038101906102f9919061306c565b610b4a565b60405161030b9190612f60565b60405180910390f35b34801561032057600080fd5b5061033b60048036038101906103369190613161565b610b86565b6040516103489190612f60565b60405180910390f35b34801561035d57600080fd5b506103786004803603810190610373919061318e565b610ba6565b005b34801561038657600080fd5b5061038f610c06565b60405161039c919061329f565b60405180910390f35b3480156103b157600080fd5b506103ba610d57565b6040516103c791906132d0565b60405180910390f35b3480156103dc57600080fd5b506103e5610d5d565b6040516103f291906132d0565b60405180910390f35b34801561040757600080fd5b50610422600480360381019061041d919061318e565b610d63565b005b34801561043057600080fd5b5061044b60048036038101906104469190613161565b610d83565b005b34801561045957600080fd5b50610474600480360381019061046f9190613161565b610e10565b005b34801561048257600080fd5b5061049d60048036038101906104989190613161565b610e9d565b005b3480156104ab57600080fd5b506104b4610ee9565b6040516104c1919061329f565b60405180910390f35b3480156104d657600080fd5b506104f160048036038101906104ec9190613161565b61105f565b6040516104fe91906132d0565b60405180910390f35b34801561051357600080fd5b5061052e6004803603810190610529919061306c565b611077565b60405161053b91906130da565b60405180910390f35b34801561055057600080fd5b50610559611129565b604051610566919061329f565b60405180910390f35b34801561057b57600080fd5b506105966004803603810190610591919061306c565b61129f565b6040516105a391906132d0565b60405180910390f35b3480156105b857600080fd5b506105d360048036038101906105ce9190613161565b6112d3565b6040516105e091906132d0565b60405180910390f35b3480156105f557600080fd5b506105fe61138b565b005b34801561060c57600080fd5b50610627600480360381019061062291906132eb565b61139f565b6040516106349190612f60565b60405180910390f35b34801561064957600080fd5b5061065261140b565b005b34801561066057600080fd5b506106696115ae565b60405161067691906130da565b60405180910390f35b34801561068b57600080fd5b506106946115d7565b6040516106a19190613014565b60405180910390f35b3480156106b657600080fd5b506106d160048036038101906106cc9190613121565b611669565b005b3480156106df57600080fd5b506106fa60048036038101906106f59190613357565b6118d7565b005b34801561070857600080fd5b50610723600480360381019061071e91906134cc565b6118ed565b005b34801561073157600080fd5b5061074c6004803603810190610747919061306c565b61194f565b60405161075991906130da565b60405180910390f35b34801561076e57600080fd5b506107896004803603810190610784919061306c565b611982565b6040516107969190613014565b60405180910390f35b6107a76119ea565b005b3480156107b557600080fd5b506107d060048036038101906107cb919061306c565b611d0e565b005b3480156107de57600080fd5b506107f960048036038101906107f4919061354f565b611e11565b6040516108069190612f60565b60405180910390f35b34801561081b57600080fd5b5061083660048036038101906108319190613161565b611ea5565b005b34801561084457600080fd5b5061085f600480360381019061085a919061306c565b611f29565b60405161086f949392919061358f565b60405180910390f35b60007f80ac58cd000000000000000000000000000000000000000000000000000000007bffffffffffffffffffffffffffffffffffffffffffffffffffffffff1916827bffffffffffffffffffffffffffffffffffffffffffffffffffffffff1916148061094357507f5b5e139f000000000000000000000000000000000000000000000000000000007bffffffffffffffffffffffffffffffffffffffffffffffffffffffff1916827bffffffffffffffffffffffffffffffffffffffffffffffffffffffff1916145b80610953575061095282611f76565b5b9050919050565b60606001805461096990613603565b80601f016020809104026020016040519081016040528092919081815260200182805461099590613603565b80156109e25780601f106109b7576101008083540402835291602001916109e2565b820191906000526020600020905b8154815290600101906020018083116109c557829003601f168201915b5050505050905090565b60006109f782611fe0565b6005600083815260200190815260200160002060009054906101000a900473ffffffffffffffffffffffffffffffffffffffff169050919050565b6000610a3d82611077565b90508073ffffffffffffffffffffffffffffffffffffffff168373ffffffffffffffffffffffffffffffffffffffff161415610aae576040517f08c379a0000000000000000000000000000000000000000000000000000000008152600401610aa5906136a7565b60405180910390fd5b8073ffffffffffffffffffffffffffffffffffffffff16610acd61202b565b73ffffffffffffffffffffffffffffffffffffffff161480610afc5750610afb81610af661202b565b611e11565b5b610b3b576040517f08c379a0000000000000000000000000000000000000000000000000000000008152600401610b3290613739565b60405180910390fd5b610b458383612033565b505050565b6000600b8281548110610b6057610b5f613759565b5b906000526020600020906004020160030160009054906101000a900460ff169050919050565b600e6020528060005260406000206000915054906101000a900460ff1681565b610bb7610bb161202b565b826120ec565b610bf6576040517f08c379a0000000000000000000000000000000000000000000000000000000008152600401610bed906137fa565b60405180910390fd5b610c01838383612181565b505050565b6060600080600d60003373ffffffffffffffffffffffffffffffffffffffff1673ffffffffffffffffffffffffffffffffffffffff1681526020019081526020016000205467ffffffffffffffff811115610c6457610c636133a1565b5b604051908082528060200260200182016040528015610c925781602001602082028036833780820191505090505b50905060005b600b80549050811015610d4e573373ffffffffffffffffffffffffffffffffffffffff16600c600083815260200190815260200160002060009054906101000a900473ffffffffffffffffffffffffffffffffffffffff1673ffffffffffffffffffffffffffffffffffffffff161415610d3b5780828481518110610d2057610d1f613759565b5b6020026020010181815250508280610d3790613849565b9350505b8080610d4690613849565b915050610c98565b50809250505090565b60105481565b60115481565b610d7e838383604051806020016040528060008152506118ed565b505050565b610d8b6123e8565b80600760006101000a81548173ffffffffffffffffffffffffffffffffffffffff021916908373ffffffffffffffffffffffffffffffffffffffff16021790555080600860006101000a81548173ffffffffffffffffffffffffffffffffffffffff021916908373ffffffffffffffffffffffffffffffffffffffff16021790555050565b610e186123e8565b80600960006101000a81548173ffffffffffffffffffffffffffffffffffffffff021916908373ffffffffffffffffffffffffffffffffffffffff16021790555080600a60006101000a81548173ffffffffffffffffffffffffffffffffffffffff021916908373ffffffffffffffffffffffffffffffffffffffff16021790555050565b610ea56123e8565b80601260006101000a81548173ffffffffffffffffffffffffffffffffffffffff021916908373ffffffffffffffffffffffffffffffffffffffff16021790555050565b6060600080600d60003373ffffffffffffffffffffffffffffffffffffffff1673ffffffffffffffffffffffffffffffffffffffff1681526020019081526020016000205467ffffffffffffffff811115610f4757610f466133a1565b5b604051908082528060200260200182016040528015610f755781602001602082028036833780820191505090505b50905060005b600b80549050811015611056573373ffffffffffffffffffffffffffffffffffffffff16600c600083815260200190815260200160002060009054906101000a900473ffffffffffffffffffffffffffffffffffffffff1673ffffffffffffffffffffffffffffffffffffffff16141561104357600b818154811061100357611002613759565b5b90600052602060002090600402016001015482848151811061102857611027613759565b5b602002602001018181525050828061103f90613849565b9350505b808061104e90613849565b915050610f7b565b50809250505090565b600d6020528060005260406000206000915090505481565b6000806003600084815260200190815260200160002060009054906101000a900473ffffffffffffffffffffffffffffffffffffffff169050600073ffffffffffffffffffffffffffffffffffffffff168173ffffffffffffffffffffffffffffffffffffffff161415611120576040517f08c379a0000000000000000000000000000000000000000000000000000000008152600401611117906138de565b60405180910390fd5b80915050919050565b6060600080600d60003373ffffffffffffffffffffffffffffffffffffffff1673ffffffffffffffffffffffffffffffffffffffff1681526020019081526020016000205467ffffffffffffffff811115611187576111866133a1565b5b6040519080825280602002602001820160405280156111b55781602001602082028036833780820191505090505b50905060005b600b80549050811015611296573373ffffffffffffffffffffffffffffffffffffffff16600c600083815260200190815260200160002060009054906101000a900473ffffffffffffffffffffffffffffffffffffffff1673ffffffffffffffffffffffffffffffffffffffff16141561128357600b818154811061124357611242613759565b5b90600052602060002090600402016000015482848151811061126857611267613759565b5b602002602001018181525050828061127f90613849565b9350505b808061128e90613849565b9150506111bb565b50809250505090565b600080600b83815481106112b6576112b5613759565b5b906000526020600020906004020160010154905080915050919050565b60008073ffffffffffffffffffffffffffffffffffffffff168273ffffffffffffffffffffffffffffffffffffffff161415611344576040517f08c379a000000000000000000000000000000000000000000000000000000000815260040161133b90613970565b60405180910390fd5b600460008373ffffffffffffffffffffffffffffffffffffffff1673ffffffffffffffffffffffffffffffffffffffff168152602001908152602001600020549050919050565b6113936123e8565b61139d6000612466565b565b60008173ffffffffffffffffffffffffffffffffffffffff16600c600085815260200190815260200160002060009054906101000a900473ffffffffffffffffffffffffffffffffffffffff1673ffffffffffffffffffffffffffffffffffffffff1614905092915050565b60006040518060800160405280600181526020016002815260200160018152602001600015158152509050600b81908060018154018082558091505060019003906000526020600020906004020160009091909190915060008201518160000155602082015181600101556040820151816002015560608201518160030160006101000a81548160ff02191690831515021790555050506114ae33600f5461252a565b33600c6000600f54815260200190815260200160002060006101000a81548173ffffffffffffffffffffffffffffffffffffffff021916908373ffffffffffffffffffffffffffffffffffffffff160217905550600d60003373ffffffffffffffffffffffffffffffffffffffff1673ffffffffffffffffffffffffffffffffffffffff168152602001908152602001600020600081548092919061155290613849565b91905055507fdbe82851b2d09154f664d67cc6e17ef02f33aeacacff618708655761a1ec71b5600f54600160405161158b9291906139d5565b60405180910390a1600f60008154809291906115a690613849565b919050555050565b60008060009054906101000a900473ffffffffffffffffffffffffffffffffffffffff16905090565b6060600280546115e690613603565b80601f016020809104026020016040519081016040528092919081815260200182805461161290613603565b801561165f5780601f106116345761010080835404028352916020019161165f565b820191906000526020600020905b81548152906001019060200180831161164257829003601f168201915b5050505050905090565b601260009054906101000a900473ffffffffffffffffffffffffffffffffffffffff1673ffffffffffffffffffffffffffffffffffffffff163373ffffffffffffffffffffffffffffffffffffffff16146116c357600080fd5b6000600e60008473ffffffffffffffffffffffffffffffffffffffff1673ffffffffffffffffffffffffffffffffffffffff16815260200190815260200160002060006101000a81548160ff021916908315150217905550600061172682612583565b90506000604051806080016040528083815260200160018461174891906139fe565b815260200160018152602001600015158152509050600b81908060018154018082558091505060019003906000526020600020906004020160009091909190915060008201518160000155602082015181600101556040820151816002015560608201518160030160006101000a81548160ff02191690831515021790555050506117d584600f5461252a565b83600c6000600f54815260200190815260200160002060006101000a81548173ffffffffffffffffffffffffffffffffffffffff021916908373ffffffffffffffffffffffffffffffffffffffff160217905550600d60008573ffffffffffffffffffffffffffffffffffffffff1673ffffffffffffffffffffffffffffffffffffffff168152602001908152602001600020600081548092919061187990613849565b91905055507fdbe82851b2d09154f664d67cc6e17ef02f33aeacacff618708655761a1ec71b5600f54836040516118b1929190613a54565b60405180910390a1600f60008154809291906118cc90613849565b919050555050505050565b6118e96118e261202b565b83836125c0565b5050565b6118fe6118f861202b565b836120ec565b61193d576040517f08c379a0000000000000000000000000000000000000000000000000000000008152600401611934906137fa565b60405180910390fd5b6119498484848461272d565b50505050565b600c6020528060005260406000206000915054906101000a900473ffffffffffffffffffffffffffffffffffffffff1681565b606061198d82611fe0565b6000611997612789565b905060008151116119b757604051806020016040528060008152506119e2565b806119c1846127a0565b6040516020016119d2929190613ab9565b6040516020818303038152906040525b915050919050565b601154600960009054906101000a900473ffffffffffffffffffffffffffffffffffffffff1673ffffffffffffffffffffffffffffffffffffffff1663dd62ed3e33306040518363ffffffff1660e01b8152600401611a4a929190613add565b60206040518083038186803b158015611a6257600080fd5b505afa158015611a76573d6000803e3d6000fd5b505050506040513d601f19601f82011682018060405250810190611a9a9190613b1b565b1015611adb576040517f08c379a0000000000000000000000000000000000000000000000000000000008152600401611ad290613b94565b60405180910390fd5b601154600960009054906101000a900473ffffffffffffffffffffffffffffffffffffffff1673ffffffffffffffffffffffffffffffffffffffff166370a08231336040518263ffffffff1660e01b8152600401611b3991906130da565b60206040518083038186803b158015611b5157600080fd5b505afa158015611b65573d6000803e3d6000fd5b505050506040513d601f19601f82011682018060405250810190611b899190613b1b565b1015611bca576040517f08c379a0000000000000000000000000000000000000000000000000000000008152600401611bc190613c00565b60405180910390fd5b6000670de0b6b3a7640000601154611be29190613c20565b9050600960009054906101000a900473ffffffffffffffffffffffffffffffffffffffff1673ffffffffffffffffffffffffffffffffffffffff166323b872dd3330846040518463ffffffff1660e01b8152600401611c4393929190613c7a565b602060405180830381600087803b158015611c5d57600080fd5b505af1158015611c71573d6000803e3d6000fd5b505050506040513d601f19601f82011682018060405250810190611c959190613cc6565b611cd4576040517f08c379a0000000000000000000000000000000000000000000000000000000008152600401611ccb90613d3f565b60405180910390fd5b7f02d722ac2845ac725ffc246b20b5f066d4f7d54d9148fe2301987828bc72b6c333604051611d0391906130da565b60405180910390a150565b600860009054906101000a900473ffffffffffffffffffffffffffffffffffffffff1673ffffffffffffffffffffffffffffffffffffffff163373ffffffffffffffffffffffffffffffffffffffff1614611d9e576040517f08c379a0000000000000000000000000000000000000000000000000000000008152600401611d9590613dab565b60405180910390fd5b600b8181548110611db257611db1613759565b5b906000526020600020906004020160030160009054906101000a900460ff1615600b8281548110611de657611de5613759565b5b906000526020600020906004020160030160006101000a81548160ff02191690831515021790555050565b6000600660008473ffffffffffffffffffffffffffffffffffffffff1673ffffffffffffffffffffffffffffffffffffffff16815260200190815260200160002060008373ffffffffffffffffffffffffffffffffffffffff1673ffffffffffffffffffffffffffffffffffffffff16815260200190815260200160002060009054906101000a900460ff16905092915050565b611ead6123e8565b600073ffffffffffffffffffffffffffffffffffffffff168173ffffffffffffffffffffffffffffffffffffffff161415611f1d576040517f08c379a0000000000000000000000000000000000000000000000000000000008152600401611f1490613e3d565b60405180910390fd5b611f2681612466565b50565b600b8181548110611f3957600080fd5b90600052602060002090600402016000915090508060000154908060010154908060020154908060030160009054906101000a900460ff16905084565b60007f01ffc9a7000000000000000000000000000000000000000000000000000000007bffffffffffffffffffffffffffffffffffffffffffffffffffffffff1916827bffffffffffffffffffffffffffffffffffffffffffffffffffffffff1916149050919050565b611fe981612901565b612028576040517f08c379a000000000000000000000000000000000000000000000000000000000815260040161201f906138de565b60405180910390fd5b50565b600033905090565b816005600083815260200190815260200160002060006101000a81548173ffffffffffffffffffffffffffffffffffffffff021916908373ffffffffffffffffffffffffffffffffffffffff160217905550808273ffffffffffffffffffffffffffffffffffffffff166120a683611077565b73ffffffffffffffffffffffffffffffffffffffff167f8c5be1e5ebec7d5bd14f71427d1e84f3dd0314c0f7b2291e5b200ac8c7c3b92560405160405180910390a45050565b6000806120f883611077565b90508073ffffffffffffffffffffffffffffffffffffffff168473ffffffffffffffffffffffffffffffffffffffff16148061213a57506121398185611e11565b5b8061217857508373ffffffffffffffffffffffffffffffffffffffff16612160846109ec565b73ffffffffffffffffffffffffffffffffffffffff16145b91505092915050565b8273ffffffffffffffffffffffffffffffffffffffff166121a182611077565b73ffffffffffffffffffffffffffffffffffffffff16146121f7576040517f08c379a00000000000000000000000000000000000000000000000000000000081526004016121ee90613ecf565b60405180910390fd5b600073ffffffffffffffffffffffffffffffffffffffff168273ffffffffffffffffffffffffffffffffffffffff161415612267576040517f08c379a000000000000000000000000000000000000000000000000000000000815260040161225e90613f61565b60405180910390fd5b61227283838361296d565b61227d600082612033565b6001600460008573ffffffffffffffffffffffffffffffffffffffff1673ffffffffffffffffffffffffffffffffffffffff16815260200190815260200160002060008282546122cd9190613f81565b925050819055506001600460008473ffffffffffffffffffffffffffffffffffffffff1673ffffffffffffffffffffffffffffffffffffffff168152602001908152602001600020600082825461232491906139fe565b92505081905550816003600083815260200190815260200160002060006101000a81548173ffffffffffffffffffffffffffffffffffffffff021916908373ffffffffffffffffffffffffffffffffffffffff160217905550808273ffffffffffffffffffffffffffffffffffffffff168473ffffffffffffffffffffffffffffffffffffffff167fddf252ad1be2c89b69c2b068fc378daa952ba7f163c4a11628f55a4df523b3ef60405160405180910390a46123e3838383612972565b505050565b6123f061202b565b73ffffffffffffffffffffffffffffffffffffffff1661240e6115ae565b73ffffffffffffffffffffffffffffffffffffffff1614612464576040517f08c379a000000000000000000000000000000000000000000000000000000000815260040161245b90614001565b60405180910390fd5b565b60008060009054906101000a900473ffffffffffffffffffffffffffffffffffffffff169050816000806101000a81548173ffffffffffffffffffffffffffffffffffffffff021916908373ffffffffffffffffffffffffffffffffffffffff1602179055508173ffffffffffffffffffffffffffffffffffffffff168173ffffffffffffffffffffffffffffffffffffffff167f8be0079c531659141344cd1fd0a4f28419497f9722a3daafe3b4186f6b6457e060405160405180910390a35050565b6125348282612977565b61254060008383612b51565b61257f576040517f08c379a00000000000000000000000000000000000000000000000000000000081526004016125769061406d565b60405180910390fd5b5050565b600080604b831161259757600190506125b7565b605f83116125a857600290506125b6565b605f83106125b557600390505b5b5b80915050919050565b8173ffffffffffffffffffffffffffffffffffffffff168373ffffffffffffffffffffffffffffffffffffffff16141561262f576040517f08c379a0000000000000000000000000000000000000000000000000000000008152600401612626906140d9565b60405180910390fd5b80600660008573ffffffffffffffffffffffffffffffffffffffff1673ffffffffffffffffffffffffffffffffffffffff16815260200190815260200160002060008473ffffffffffffffffffffffffffffffffffffffff1673ffffffffffffffffffffffffffffffffffffffff16815260200190815260200160002060006101000a81548160ff0219169083151502179055508173ffffffffffffffffffffffffffffffffffffffff168373ffffffffffffffffffffffffffffffffffffffff167f17307eab39ab6107e8899845ad3d59bd9653f200f220920489ca2b5937696c31836040516127209190612f60565b60405180910390a3505050565b612738848484612181565b61274484848484612ccf565b612783576040517f08c379a000000000000000000000000000000000000000000000000000000000815260040161277a9061416b565b60405180910390fd5b50505050565b606060405180602001604052806000815250905090565b606060008214156127e8576040518060400160405280600181526020017f300000000000000000000000000000000000000000000000000000000000000081525090506128fc565b600082905060005b6000821461281a57808061280390613849565b915050600a8261281391906141ba565b91506127f0565b60008167ffffffffffffffff811115612836576128356133a1565b5b6040519080825280601f01601f1916602001820160405280156128685781602001600182028036833780820191505090505b5090505b600085146128f5576001826128819190613f81565b9150600a8561289091906141eb565b603061289c91906139fe565b60f81b8183815181106128b2576128b1613759565b5b60200101907effffffffffffffffffffffffffffffffffffffffffffffffffffffffffffff1916908160001a905350600a856128ee91906141ba565b945061286c565b8093505050505b919050565b60008073ffffffffffffffffffffffffffffffffffffffff166003600084815260200190815260200160002060009054906101000a900473ffffffffffffffffffffffffffffffffffffffff1673ffffffffffffffffffffffffffffffffffffffff1614159050919050565b505050565b505050565b600073ffffffffffffffffffffffffffffffffffffffff168273ffffffffffffffffffffffffffffffffffffffff1614156129e7576040517f08c379a00000000000000000000000000000000000000000000000000000000081526004016129de90614268565b60405180910390fd5b6129f081612901565b15612a30576040517f08c379a0000000000000000000000000000000000000000000000000000000008152600401612a27906142d4565b60405180910390fd5b612a3c6000838361296d565b6001600460008473ffffffffffffffffffffffffffffffffffffffff1673ffffffffffffffffffffffffffffffffffffffff1681526020019081526020016000206000828254612a8c91906139fe565b92505081905550816003600083815260200190815260200160002060006101000a81548173ffffffffffffffffffffffffffffffffffffffff021916908373ffffffffffffffffffffffffffffffffffffffff160217905550808273ffffffffffffffffffffffffffffffffffffffff16600073ffffffffffffffffffffffffffffffffffffffff167fddf252ad1be2c89b69c2b068fc378daa952ba7f163c4a11628f55a4df523b3ef60405160405180910390a4612b4d60008383612972565b5050565b6000612b5c83612e66565b15612cc3578273ffffffffffffffffffffffffffffffffffffffff1663eeafbddc612b8561202b565b86856040518463ffffffff1660e01b8152600401612ba593929190613c7a565b602060405180830381600087803b158015612bbf57600080fd5b505af1925050508015612bf057506040513d601f19601f82011682018060405250810190612bed9190614309565b60015b612c73573d8060008114612c20576040519150601f19603f3d011682016040523d82523d6000602084013e612c25565b606091505b50600081511415612c6b576040517f08c379a0000000000000000000000000000000000000000000000000000000008152600401612c629061416b565b60405180910390fd5b805181602001fd5b63150b7a0260e01b7bffffffffffffffffffffffffffffffffffffffffffffffffffffffff1916817bffffffffffffffffffffffffffffffffffffffffffffffffffffffff191614915050612cc8565b600190505b9392505050565b6000612cf08473ffffffffffffffffffffffffffffffffffffffff16612e89565b15612e59578373ffffffffffffffffffffffffffffffffffffffff1663150b7a02612d1961202b565b8786866040518563ffffffff1660e01b8152600401612d3b949392919061438b565b602060405180830381600087803b158015612d5557600080fd5b505af1925050508015612d8657506040513d601f19601f82011682018060405250810190612d839190614309565b60015b612e09573d8060008114612db6576040519150601f19603f3d011682016040523d82523d6000602084013e612dbb565b606091505b50600081511415612e01576040517f08c379a0000000000000000000000000000000000000000000000000000000008152600401612df89061416b565b60405180910390fd5b805181602001fd5b63150b7a0260e01b7bffffffffffffffffffffffffffffffffffffffffffffffffffffffff1916817bffffffffffffffffffffffffffffffffffffffffffffffffffffffff191614915050612e5e565b600190505b949350505050565b6000808273ffffffffffffffffffffffffffffffffffffffff163b119050919050565b6000808273ffffffffffffffffffffffffffffffffffffffff163b119050919050565b6000604051905090565b600080fd5b600080fd5b60007fffffffff0000000000000000000000000000000000000000000000000000000082169050919050565b612ef581612ec0565b8114612f0057600080fd5b50565b600081359050612f1281612eec565b92915050565b600060208284031215612f2e57612f2d612eb6565b5b6000612f3c84828501612f03565b91505092915050565b60008115159050919050565b612f5a81612f45565b82525050565b6000602082019050612f756000830184612f51565b92915050565b600081519050919050565b600082825260208201905092915050565b60005b83811015612fb5578082015181840152602081019050612f9a565b83811115612fc4576000848401525b50505050565b6000601f19601f8301169050919050565b6000612fe682612f7b565b612ff08185612f86565b9350613000818560208601612f97565b61300981612fca565b840191505092915050565b6000602082019050818103600083015261302e8184612fdb565b905092915050565b6000819050919050565b61304981613036565b811461305457600080fd5b50565b60008135905061306681613040565b92915050565b60006020828403121561308257613081612eb6565b5b600061309084828501613057565b91505092915050565b600073ffffffffffffffffffffffffffffffffffffffff82169050919050565b60006130c482613099565b9050919050565b6130d4816130b9565b82525050565b60006020820190506130ef60008301846130cb565b92915050565b6130fe816130b9565b811461310957600080fd5b50565b60008135905061311b816130f5565b92915050565b6000806040838503121561313857613137612eb6565b5b60006131468582860161310c565b925050602061315785828601613057565b9150509250929050565b60006020828403121561317757613176612eb6565b5b60006131858482850161310c565b91505092915050565b6000806000606084860312156131a7576131a6612eb6565b5b60006131b58682870161310c565b93505060206131c68682870161310c565b92505060406131d786828701613057565b9150509250925092565b600081519050919050565b600082825260208201905092915050565b6000819050602082019050919050565b61321681613036565b82525050565b6000613228838361320d565b60208301905092915050565b6000602082019050919050565b600061324c826131e1565b61325681856131ec565b9350613261836131fd565b8060005b83811015613292578151613279888261321c565b975061328483613234565b925050600181019050613265565b5085935050505092915050565b600060208201905081810360008301526132b98184613241565b905092915050565b6132ca81613036565b82525050565b60006020820190506132e560008301846132c1565b92915050565b6000806040838503121561330257613301612eb6565b5b600061331085828601613057565b92505060206133218582860161310c565b9150509250929050565b61333481612f45565b811461333f57600080fd5b50565b6000813590506133518161332b565b92915050565b6000806040838503121561336e5761336d612eb6565b5b600061337c8582860161310c565b925050602061338d85828601613342565b9150509250929050565b600080fd5b600080fd5b7f4e487b7100000000000000000000000000000000000000000000000000000000600052604160045260246000fd5b6133d982612fca565b810181811067ffffffffffffffff821117156133f8576133f76133a1565b5b80604052505050565b600061340b612eac565b905061341782826133d0565b919050565b600067ffffffffffffffff821115613437576134366133a1565b5b61344082612fca565b9050602081019050919050565b82818337600083830152505050565b600061346f61346a8461341c565b613401565b90508281526020810184848401111561348b5761348a61339c565b5b61349684828561344d565b509392505050565b600082601f8301126134b3576134b2613397565b5b81356134c384826020860161345c565b91505092915050565b600080600080608085870312156134e6576134e5612eb6565b5b60006134f48782880161310c565b94505060206135058782880161310c565b935050604061351687828801613057565b925050606085013567ffffffffffffffff81111561353757613536612ebb565b5b6135438782880161349e565b91505092959194509250565b6000806040838503121561356657613565612eb6565b5b60006135748582860161310c565b92505060206135858582860161310c565b9150509250929050565b60006080820190506135a460008301876132c1565b6135b160208301866132c1565b6135be60408301856132c1565b6135cb6060830184612f51565b95945050505050565b7f4e487b7100000000000000000000000000000000000000000000000000000000600052602260045260246000fd5b6000600282049050600182168061361b57607f821691505b6020821081141561362f5761362e6135d4565b5b50919050565b7f4552433732313a20617070726f76616c20746f2063757272656e74206f776e6560008201527f7200000000000000000000000000000000000000000000000000000000000000602082015250565b6000613691602183612f86565b915061369c82613635565b604082019050919050565b600060208201905081810360008301526136c081613684565b9050919050565b7f4552433732313a20617070726f76652063616c6c6572206973206e6f7420746f60008201527f6b656e206f776e6572206e6f7220617070726f76656420666f7220616c6c0000602082015250565b6000613723603e83612f86565b915061372e826136c7565b604082019050919050565b6000602082019050818103600083015261375281613716565b9050919050565b7f4e487b7100000000000000000000000000000000000000000000000000000000600052603260045260246000fd5b7f4552433732313a2063616c6c6572206973206e6f7420746f6b656e206f776e6560008201527f72206e6f7220617070726f766564000000000000000000000000000000000000602082015250565b60006137e4602e83612f86565b91506137ef82613788565b604082019050919050565b60006020820190508181036000830152613813816137d7565b9050919050565b7f4e487b7100000000000000000000000000000000000000000000000000000000600052601160045260246000fd5b600061385482613036565b91507fffffffffffffffffffffffffffffffffffffffffffffffffffffffffffffffff8214156138875761388661381a565b5b600182019050919050565b7f4552433732313a20696e76616c696420746f6b656e2049440000000000000000600082015250565b60006138c8601883612f86565b91506138d382613892565b602082019050919050565b600060208201905081810360008301526138f7816138bb565b9050919050565b7f4552433732313a2061646472657373207a65726f206973206e6f74206120766160008201527f6c6964206f776e65720000000000000000000000000000000000000000000000602082015250565b600061395a602983612f86565b9150613965826138fe565b604082019050919050565b600060208201905081810360008301526139898161394d565b9050919050565b6000819050919050565b6000819050919050565b60006139bf6139ba6139b584613990565b61399a565b613036565b9050919050565b6139cf816139a4565b82525050565b60006040820190506139ea60008301856132c1565b6139f760208301846139c6565b9392505050565b6000613a0982613036565b9150613a1483613036565b9250827fffffffffffffffffffffffffffffffffffffffffffffffffffffffffffffffff03821115613a4957613a4861381a565b5b828201905092915050565b6000604082019050613a6960008301856132c1565b613a7660208301846132c1565b9392505050565b600081905092915050565b6000613a9382612f7b565b613a9d8185613a7d565b9350613aad818560208601612f97565b80840191505092915050565b6000613ac58285613a88565b9150613ad18284613a88565b91508190509392505050565b6000604082019050613af260008301856130cb565b613aff60208301846130cb565b9392505050565b600081519050613b1581613040565b92915050565b600060208284031215613b3157613b30612eb6565b5b6000613b3f84828501613b06565b91505092915050565b7f4e6f7420656e6f7567687420636f696e73206f7220616c6c6f77616e63652e00600082015250565b6000613b7e601f83612f86565b9150613b8982613b48565b602082019050919050565b60006020820190508181036000830152613bad81613b71565b9050919050565b7f42616c616e6365206e6f7420656e6f756768742e000000000000000000000000600082015250565b6000613bea601483612f86565b9150613bf582613bb4565b602082019050919050565b60006020820190508181036000830152613c1981613bdd565b9050919050565b6000613c2b82613036565b9150613c3683613036565b9250817fffffffffffffffffffffffffffffffffffffffffffffffffffffffffffffffff0483118215151615613c6f57613c6e61381a565b5b828202905092915050565b6000606082019050613c8f60008301866130cb565b613c9c60208301856130cb565b613ca960408301846132c1565b949350505050565b600081519050613cc08161332b565b92915050565b600060208284031215613cdc57613cdb612eb6565b5b6000613cea84828501613cb1565b91505092915050565b7f5472616e73666572204661696c65642e00000000000000000000000000000000600082015250565b6000613d29601083612f86565b9150613d3482613cf3565b602082019050919050565b60006020820190508181036000830152613d5881613d1c565b9050919050565b7f596f75206172656e74206120636f6e74726163742e0000000000000000000000600082015250565b6000613d95601583612f86565b9150613da082613d5f565b602082019050919050565b60006020820190508181036000830152613dc481613d88565b9050919050565b7f4f776e61626c653a206e6577206f776e657220697320746865207a65726f206160008201527f6464726573730000000000000000000000000000000000000000000000000000602082015250565b6000613e27602683612f86565b9150613e3282613dcb565b604082019050919050565b60006020820190508181036000830152613e5681613e1a565b9050919050565b7f4552433732313a207472616e736665722066726f6d20696e636f72726563742060008201527f6f776e6572000000000000000000000000000000000000000000000000000000602082015250565b6000613eb9602583612f86565b9150613ec482613e5d565b604082019050919050565b60006020820190508181036000830152613ee881613eac565b9050919050565b7f4552433732313a207472616e7366657220746f20746865207a65726f2061646460008201527f7265737300000000000000000000000000000000000000000000000000000000602082015250565b6000613f4b602483612f86565b9150613f5682613eef565b604082019050919050565b60006020820190508181036000830152613f7a81613f3e565b9050919050565b6000613f8c82613036565b9150613f9783613036565b925082821015613faa57613fa961381a565b5b828203905092915050565b7f4f776e61626c653a2063616c6c6572206973206e6f7420746865206f776e6572600082015250565b6000613feb602083612f86565b9150613ff682613fb5565b602082019050919050565b6000602082019050818103600083015261401a81613fde565b9050919050565b7f6e6f7420746f6461790000000000000000000000000000000000000000000000600082015250565b6000614057600983612f86565b915061406282614021565b602082019050919050565b600060208201905081810360008301526140868161404a565b9050919050565b7f4552433732313a20617070726f766520746f2063616c6c657200000000000000600082015250565b60006140c3601983612f86565b91506140ce8261408d565b602082019050919050565b600060208201905081810360008301526140f2816140b6565b9050919050565b7f4552433732313a207472616e7366657220746f206e6f6e20455243373231526560008201527f63656976657220696d706c656d656e7465720000000000000000000000000000602082015250565b6000614155603283612f86565b9150614160826140f9565b604082019050919050565b6000602082019050818103600083015261418481614148565b9050919050565b7f4e487b7100000000000000000000000000000000000000000000000000000000600052601260045260246000fd5b60006141c582613036565b91506141d083613036565b9250826141e0576141df61418b565b5b828204905092915050565b60006141f682613036565b915061420183613036565b9250826142115761421061418b565b5b828206905092915050565b7f4552433732313a206d696e7420746f20746865207a65726f2061646472657373600082015250565b6000614252602083612f86565b915061425d8261421c565b602082019050919050565b6000602082019050818103600083015261428181614245565b9050919050565b7f4552433732313a20746f6b656e20616c7265616479206d696e74656400000000600082015250565b60006142be601c83612f86565b91506142c982614288565b602082019050919050565b600060208201905081810360008301526142ed816142b1565b9050919050565b60008151905061430381612eec565b92915050565b60006020828403121561431f5761431e612eb6565b5b600061432d848285016142f4565b91505092915050565b600081519050919050565b600082825260208201905092915050565b600061435d82614336565b6143678185614341565b9350614377818560208601612f97565b61438081612fca565b840191505092915050565b60006080820190506143a060008301876130cb565b6143ad60208301866130cb565b6143ba60408301856132c1565b81810360608301526143cc8184614352565b90509594505050505056fea2646970667358221220b336eabca95f41ba30bb42e678cd948eed5d9726f07608d7f05e31fc0bbded5364736f6c63430008090033",
  "linkReferences": {},
  "deployedLinkReferences": {}
}