{
  "_format": "hh-sol-artifact-1",
  "contractName": "CarMint",
  "sourceName": "contracts/carMint.sol",
  "abi": [
    {
      "inputs": [
        {
          "internalType": "string",
          "name": "_name",
          "type": "string"
        },
        {
          "internalType": "string",
          "name": "_symbol",
          "type": "string"
        }
      ],
      "stateMutability": "nonpayable",
      "type": "constructor"
    },
    {
      "anonymous": false,
      "inputs": [
        {
          "indexed": true,
          "internalType": "address",
          "name": "owner",
          "type": "address"
        },
        {
          "indexed": true,
          "internalType": "address",
          "name": "approved",
          "type": "address"
        },
        {
          "indexed": true,
          "internalType": "uint256",
          "name": "tokenId",
          "type": "uint256"
        }
      ],
      "name": "Approval",
      "type": "event"
    },
    {
      "anonymous": false,
      "inputs": [
        {
          "indexed": true,
          "internalType": "address",
          "name": "owner",
          "type": "address"
        },
        {
          "indexed": true,
          "internalType": "address",
          "name": "operator",
          "type": "address"
        },
        {
          "indexed": false,
          "internalType": "bool",
          "name": "approved",
          "type": "bool"
        }
      ],
      "name": "ApprovalForAll",
      "type": "event"
    },
    {
      "anonymous": false,
      "inputs": [
        {
          "indexed": true,
          "internalType": "address",
          "name": "previousOwner",
          "type": "address"
        },
        {
          "indexed": true,
          "internalType": "address",
          "name": "newOwner",
          "type": "address"
        }
      ],
      "name": "OwnershipTransferred",
      "type": "event"
    },
    {
      "anonymous": false,
      "inputs": [
        {
          "indexed": true,
          "internalType": "address",
          "name": "from",
          "type": "address"
        },
        {
          "indexed": true,
          "internalType": "address",
          "name": "to",
          "type": "address"
        },
        {
          "indexed": true,
          "internalType": "uint256",
          "name": "tokenId",
          "type": "uint256"
        }
      ],
      "name": "Transfer",
      "type": "event"
    },
    {
      "inputs": [
        {
          "internalType": "address",
          "name": "_ad",
          "type": "address"
        }
      ],
      "name": "SPancake",
      "outputs": [],
      "stateMutability": "nonpayable",
      "type": "function"
    },
    {
      "inputs": [],
      "name": "amount",
      "outputs": [
        {
          "internalType": "uint256",
          "name": "",
          "type": "uint256"
        }
      ],
      "stateMutability": "view",
      "type": "function"
    },
    {
      "inputs": [
        {
          "internalType": "address",
          "name": "to",
          "type": "address"
        },
        {
          "internalType": "uint256",
          "name": "tokenId",
          "type": "uint256"
        }
      ],
      "name": "approve",
      "outputs": [],
      "stateMutability": "nonpayable",
      "type": "function"
    },
    {
      "inputs": [
        {
          "internalType": "address",
          "name": "owner",
          "type": "address"
        }
      ],
      "name": "balanceOf",
      "outputs": [
        {
          "internalType": "uint256",
          "name": "",
          "type": "uint256"
        }
      ],
      "stateMutability": "view",
      "type": "function"
    },
    {
      "inputs": [
        {
          "internalType": "uint256",
          "name": "",
          "type": "uint256"
        }
      ],
      "name": "cars",
      "outputs": [
        {
          "internalType": "uint24",
          "name": "rairty",
          "type": "uint24"
        },
        {
          "internalType": "uint24",
          "name": "cap",
          "type": "uint24"
        },
        {
          "internalType": "uint24",
          "name": "counter",
          "type": "uint24"
        },
        {
          "internalType": "uint256",
          "name": "daily",
          "type": "uint256"
        }
      ],
      "stateMutability": "view",
      "type": "function"
    },
    {
      "inputs": [
        {
          "internalType": "uint256",
          "name": "_id",
          "type": "uint256"
        }
      ],
      "name": "checkingTime",
      "outputs": [
        {
          "internalType": "bool",
          "name": "",
          "type": "bool"
        }
      ],
      "stateMutability": "view",
      "type": "function"
    },
    {
      "inputs": [
        {
          "internalType": "uint256",
          "name": "x",
          "type": "uint256"
        }
      ],
      "name": "daily",
      "outputs": [
        {
          "internalType": "uint256",
          "name": "",
          "type": "uint256"
        }
      ],
      "stateMutability": "view",
      "type": "function"
    },
    {
      "inputs": [
        {
          "internalType": "uint256",
          "name": "_id",
          "type": "uint256"
        }
      ],
      "name": "fetchId",
      "outputs": [
        {
          "internalType": "address",
          "name": "",
          "type": "address"
        }
      ],
      "stateMutability": "view",
      "type": "function"
    },
    {
      "inputs": [
        {
          "internalType": "uint256",
          "name": "tokenId",
          "type": "uint256"
        }
      ],
      "name": "getApproved",
      "outputs": [
        {
          "internalType": "address",
          "name": "",
          "type": "address"
        }
      ],
      "stateMutability": "view",
      "type": "function"
    },
    {
      "inputs": [],
      "name": "getIdsCar",
      "outputs": [
        {
          "internalType": "uint24[]",
          "name": "",
          "type": "uint24[]"
        }
      ],
      "stateMutability": "view",
      "type": "function"
    },
    {
      "inputs": [],
      "name": "getOwnerCars",
      "outputs": [
        {
          "internalType": "uint24[]",
          "name": "",
          "type": "uint24[]"
        }
      ],
      "stateMutability": "view",
      "type": "function"
    },
    {
      "inputs": [
        {
          "internalType": "uint24",
          "name": "q",
          "type": "uint24"
        }
      ],
      "name": "getStuffCar",
      "outputs": [
        {
          "internalType": "uint24",
          "name": "",
          "type": "uint24"
        },
        {
          "internalType": "uint24",
          "name": "",
          "type": "uint24"
        }
      ],
      "stateMutability": "view",
      "type": "function"
    },
    {
      "inputs": [
        {
          "internalType": "uint256",
          "name": "_id",
          "type": "uint256"
        }
      ],
      "name": "getTimeBlock",
      "outputs": [
        {
          "internalType": "uint256",
          "name": "",
          "type": "uint256"
        }
      ],
      "stateMutability": "view",
      "type": "function"
    },
    {
      "inputs": [
        {
          "internalType": "address",
          "name": "",
          "type": "address"
        }
      ],
      "name": "howMany",
      "outputs": [
        {
          "internalType": "uint256",
          "name": "",
          "type": "uint256"
        }
      ],
      "stateMutability": "view",
      "type": "function"
    },
    {
      "inputs": [
        {
          "internalType": "uint256",
          "name": "",
          "type": "uint256"
        }
      ],
      "name": "idOwner",
      "outputs": [
        {
          "internalType": "address",
          "name": "",
          "type": "address"
        }
      ],
      "stateMutability": "view",
      "type": "function"
    },
    {
      "inputs": [
        {
          "internalType": "address",
          "name": "owner",
          "type": "address"
        },
        {
          "internalType": "address",
          "name": "operator",
          "type": "address"
        }
      ],
      "name": "isApprovedForAll",
      "outputs": [
        {
          "internalType": "bool",
          "name": "",
          "type": "bool"
        }
      ],
      "stateMutability": "view",
      "type": "function"
    },
    {
      "inputs": [],
      "name": "mintCar",
      "outputs": [],
      "stateMutability": "nonpayable",
      "type": "function"
    },
    {
      "inputs": [],
      "name": "name",
      "outputs": [
        {
          "internalType": "string",
          "name": "",
          "type": "string"
        }
      ],
      "stateMutability": "view",
      "type": "function"
    },
    {
      "inputs": [],
      "name": "owner",
      "outputs": [
        {
          "internalType": "address",
          "name": "",
          "type": "address"
        }
      ],
      "stateMutability": "view",
      "type": "function"
    },
    {
      "inputs": [
        {
          "internalType": "uint256",
          "name": "tokenId",
          "type": "uint256"
        }
      ],
      "name": "ownerOf",
      "outputs": [
        {
          "internalType": "address",
          "name": "",
          "type": "address"
        }
      ],
      "stateMutability": "view",
      "type": "function"
    },
    {
      "inputs": [],
      "name": "renounceOwnership",
      "outputs": [],
      "stateMutability": "nonpayable",
      "type": "function"
    },
    {
      "inputs": [
        {
          "internalType": "address",
          "name": "from",
          "type": "address"
        },
        {
          "internalType": "address",
          "name": "to",
          "type": "address"
        },
        {
          "internalType": "uint256",
          "name": "tokenId",
          "type": "uint256"
        }
      ],
      "name": "safeTransferFrom",
      "outputs": [],
      "stateMutability": "nonpayable",
      "type": "function"
    },
    {
      "inputs": [
        {
          "internalType": "address",
          "name": "from",
          "type": "address"
        },
        {
          "internalType": "address",
          "name": "to",
          "type": "address"
        },
        {
          "internalType": "uint256",
          "name": "tokenId",
          "type": "uint256"
        },
        {
          "internalType": "bytes",
          "name": "data",
          "type": "bytes"
        }
      ],
      "name": "safeTransferFrom",
      "outputs": [],
      "stateMutability": "nonpayable",
      "type": "function"
    },
    {
      "inputs": [
        {
          "internalType": "address",
          "name": "operator",
          "type": "address"
        },
        {
          "internalType": "bool",
          "name": "approved",
          "type": "bool"
        }
      ],
      "name": "setApprovalForAll",
      "outputs": [],
      "stateMutability": "nonpayable",
      "type": "function"
    },
    {
      "inputs": [
        {
          "internalType": "uint256",
          "name": "_id",
          "type": "uint256"
        }
      ],
      "name": "setTimeBlock",
      "outputs": [],
      "stateMutability": "nonpayable",
      "type": "function"
    },
    {
      "inputs": [
        {
          "internalType": "uint256",
          "name": "_id",
          "type": "uint256"
        }
      ],
      "name": "setme",
      "outputs": [],
      "stateMutability": "nonpayable",
      "type": "function"
    },
    {
      "inputs": [
        {
          "internalType": "bytes4",
          "name": "interfaceId",
          "type": "bytes4"
        }
      ],
      "name": "supportsInterface",
      "outputs": [
        {
          "internalType": "bool",
          "name": "",
          "type": "bool"
        }
      ],
      "stateMutability": "view",
      "type": "function"
    },
    {
      "inputs": [],
      "name": "symbol",
      "outputs": [
        {
          "internalType": "string",
          "name": "",
          "type": "string"
        }
      ],
      "stateMutability": "view",
      "type": "function"
    },
    {
      "inputs": [
        {
          "internalType": "uint256",
          "name": "tokenId",
          "type": "uint256"
        }
      ],
      "name": "tokenURI",
      "outputs": [
        {
          "internalType": "string",
          "name": "",
          "type": "string"
        }
      ],
      "stateMutability": "view",
      "type": "function"
    },
    {
      "inputs": [
        {
          "internalType": "address",
          "name": "from",
          "type": "address"
        },
        {
          "internalType": "address",
          "name": "to",
          "type": "address"
        },
        {
          "internalType": "uint256",
          "name": "tokenId",
          "type": "uint256"
        }
      ],
      "name": "transferFrom",
      "outputs": [],
      "stateMutability": "nonpayable",
      "type": "function"
    },
    {
      "inputs": [
        {
          "internalType": "address",
          "name": "newOwner",
          "type": "address"
        }
      ],
      "name": "transferOwnership",
      "outputs": [],
      "stateMutability": "nonpayable",
      "type": "function"
    }
  ],
  "bytecode": "0x60806040526000600860146101000a81548162ffffff021916908362ffffff160217905550620151806009553480156200003857600080fd5b5060405162003f6038038062003f6083398181016040528101906200005e9190620003d5565b81816200008062000074620000bc60201b60201c565b620000c460201b60201c565b81600190805190602001906200009892919062000188565b508060029080519060200190620000b192919062000188565b5050505050620004bf565b600033905090565b60008060009054906101000a900473ffffffffffffffffffffffffffffffffffffffff169050816000806101000a81548173ffffffffffffffffffffffffffffffffffffffff021916908373ffffffffffffffffffffffffffffffffffffffff1602179055508173ffffffffffffffffffffffffffffffffffffffff168173ffffffffffffffffffffffffffffffffffffffff167f8be0079c531659141344cd1fd0a4f28419497f9722a3daafe3b4186f6b6457e060405160405180910390a35050565b828054620001969062000489565b90600052602060002090601f016020900481019282620001ba576000855562000206565b82601f10620001d557805160ff191683800117855562000206565b8280016001018555821562000206579182015b8281111562000205578251825591602001919060010190620001e8565b5b50905062000215919062000219565b5090565b5b80821115620002345760008160009055506001016200021a565b5090565b6000604051905090565b600080fd5b600080fd5b600080fd5b600080fd5b6000601f19601f8301169050919050565b7f4e487b7100000000000000000000000000000000000000000000000000000000600052604160045260246000fd5b620002a18262000256565b810181811067ffffffffffffffff82111715620002c357620002c262000267565b5b80604052505050565b6000620002d862000238565b9050620002e6828262000296565b919050565b600067ffffffffffffffff82111562000309576200030862000267565b5b620003148262000256565b9050602081019050919050565b60005b838110156200034157808201518184015260208101905062000324565b8381111562000351576000848401525b50505050565b60006200036e6200036884620002eb565b620002cc565b9050828152602081018484840111156200038d576200038c62000251565b5b6200039a84828562000321565b509392505050565b600082601f830112620003ba57620003b96200024c565b5b8151620003cc84826020860162000357565b91505092915050565b60008060408385031215620003ef57620003ee62000242565b5b600083015167ffffffffffffffff81111562000410576200040f62000247565b5b6200041e85828601620003a2565b925050602083015167ffffffffffffffff81111562000442576200044162000247565b5b6200045085828601620003a2565b9150509250929050565b7f4e487b7100000000000000000000000000000000000000000000000000000000600052602260045260246000fd5b60006002820490506001821680620004a257607f821691505b60208210811415620004b957620004b86200045a565b5b50919050565b613a9180620004cf6000396000f3fe608060405234801561001057600080fd5b50600436106101e55760003560e01c806390f89c121161010f578063bf3fd6ce116100a2578063e985e9c511610071578063e985e9c5146105a3578063f2fde38b146105d3578063f64f54ae146105ef578063f7746e361461061f576101e5565b8063bf3fd6ce146104f5578063c63f9a4f14610525578063c87b56dd14610543578063d75752a314610573576101e5565b8063aab0aeb2116100de578063aab0aeb21461046f578063b3d1b8011461049f578063b88d4fde146104bd578063bd1f4ace146104d9576101e5565b806390f89c12146103e757806395d89b4114610417578063a22cb46514610435578063aa8c217c14610451576101e5565b806342842e0e1161018757806370a082311161015657806370a082311461035e578063715018a61461038e578063884f0ed1146103985780638da5cb5b146103c9576101e5565b806342842e0e146102c6578063459ee095146102e2578063602977ad146102fe5780636352211e1461032e576101e5565b8063095ea7b3116101c3578063095ea7b314610268578063224993c21461028457806323b872dd146102a05780633a7bb4b2146102bc576101e5565b806301ffc9a7146101ea57806306fdde031461021a578063081812fc14610238575b600080fd5b61020460048036038101906101ff919061275f565b610652565b60405161021191906127a7565b60405180910390f35b610222610734565b60405161022f919061285b565b60405180910390f35b610252600480360381019061024d91906128b3565b6107c6565b60405161025f9190612921565b60405180910390f35b610282600480360381019061027d9190612968565b61080c565b005b61029e600480360381019061029991906128b3565b610924565b005b6102ba60048036038101906102b591906129a8565b6109e4565b005b6102c4610a44565b005b6102e060048036038101906102db91906129a8565b610a4e565b005b6102fc60048036038101906102f791906129fb565b610a6e565b005b610318600480360381019061031391906129fb565b610b03565b6040516103259190612a37565b60405180910390f35b610348600480360381019061034391906128b3565b610b1b565b6040516103559190612921565b60405180910390f35b610378600480360381019061037391906129fb565b610bcd565b6040516103859190612a37565b60405180910390f35b610396610c85565b005b6103b260048036038101906103ad9190612a8d565b610c99565b6040516103c0929190612ac9565b60405180910390f35b6103d1610d25565b6040516103de9190612921565b60405180910390f35b61040160048036038101906103fc91906128b3565b610d4e565b60405161040e9190612921565b60405180910390f35b61041f610d8b565b60405161042c919061285b565b60405180910390f35b61044f600480360381019061044a9190612b1e565b610e1d565b005b610459610e33565b6040516104669190612a37565b60405180910390f35b610489600480360381019061048491906128b3565b610e7f565b6040516104969190612a37565b60405180910390f35b6104a7610eb3565b6040516104b49190612c1c565b60405180910390f35b6104d760048036038101906104d29190612d73565b611044565b005b6104f360048036038101906104ee91906128b3565b6110a6565b005b61050f600480360381019061050a91906128b3565b61113a565b60405161051c9190612921565b60405180910390f35b61052d61116d565b60405161053a9190612c1c565b60405180910390f35b61055d600480360381019061055891906128b3565b6112fe565b60405161056a919061285b565b60405180910390f35b61058d600480360381019061058891906128b3565b611366565b60405161059a9190612a37565b60405180910390f35b6105bd60048036038101906105b89190612df6565b61139a565b6040516105ca91906127a7565b60405180910390f35b6105ed60048036038101906105e891906129fb565b61142e565b005b610609600480360381019061060491906128b3565b6114b2565b60405161061691906127a7565b60405180910390f35b610639600480360381019061063491906128b3565b6114dd565b6040516106499493929190612e36565b60405180910390f35b60007f80ac58cd000000000000000000000000000000000000000000000000000000007bffffffffffffffffffffffffffffffffffffffffffffffffffffffff1916827bffffffffffffffffffffffffffffffffffffffffffffffffffffffff1916148061071d57507f5b5e139f000000000000000000000000000000000000000000000000000000007bffffffffffffffffffffffffffffffffffffffffffffffffffffffff1916827bffffffffffffffffffffffffffffffffffffffffffffffffffffffff1916145b8061072d575061072c8261154a565b5b9050919050565b60606001805461074390612eaa565b80601f016020809104026020016040519081016040528092919081815260200182805461076f90612eaa565b80156107bc5780601f10610791576101008083540402835291602001916107bc565b820191906000526020600020905b81548152906001019060200180831161079f57829003601f168201915b5050505050905090565b60006107d1826115b4565b6005600083815260200190815260200160002060009054906101000a900473ffffffffffffffffffffffffffffffffffffffff169050919050565b600061081782610b1b565b90508073ffffffffffffffffffffffffffffffffffffffff168373ffffffffffffffffffffffffffffffffffffffff161415610888576040517f08c379a000000000000000000000000000000000000000000000000000000000815260040161087f90612f4e565b60405180910390fd5b8073ffffffffffffffffffffffffffffffffffffffff166108a76115ff565b73ffffffffffffffffffffffffffffffffffffffff1614806108d657506108d5816108d06115ff565b61139a565b5b610915576040517f08c379a000000000000000000000000000000000000000000000000000000000815260040161090c90612fe0565b60405180910390fd5b61091f8383611607565b505050565b600860009054906101000a900473ffffffffffffffffffffffffffffffffffffffff1673ffffffffffffffffffffffffffffffffffffffff163373ffffffffffffffffffffffffffffffffffffffff161461097e57600080fd5b600062015180905080600a838154811061099b5761099a613000565b5b9060005260206000209060020201600101546109b7919061305e565b600a83815481106109cb576109ca613000565b5b9060005260206000209060020201600101819055505050565b6109f56109ef6115ff565b826116c0565b610a34576040517f08c379a0000000000000000000000000000000000000000000000000000000008152600401610a2b90613126565b60405180910390fd5b610a3f838383611755565b505050565b610a4c6119bc565b565b610a6983838360405180602001604052806000815250611044565b505050565b610a76611bf3565b610a7e611bf3565b80600760006101000a81548173ffffffffffffffffffffffffffffffffffffffff021916908373ffffffffffffffffffffffffffffffffffffffff16021790555080600860006101000a81548173ffffffffffffffffffffffffffffffffffffffff021916908373ffffffffffffffffffffffffffffffffffffffff16021790555050565b600c6020528060005260406000206000915090505481565b6000806003600084815260200190815260200160002060009054906101000a900473ffffffffffffffffffffffffffffffffffffffff169050600073ffffffffffffffffffffffffffffffffffffffff168173ffffffffffffffffffffffffffffffffffffffff161415610bc4576040517f08c379a0000000000000000000000000000000000000000000000000000000008152600401610bbb90613192565b60405180910390fd5b80915050919050565b60008073ffffffffffffffffffffffffffffffffffffffff168273ffffffffffffffffffffffffffffffffffffffff161415610c3e576040517f08c379a0000000000000000000000000000000000000000000000000000000008152600401610c3590613224565b60405180910390fd5b600460008373ffffffffffffffffffffffffffffffffffffffff1673ffffffffffffffffffffffffffffffffffffffff168152602001908152602001600020549050919050565b610c8d611bf3565b610c976000611c71565b565b6000806000600a8462ffffff1681548110610cb757610cb6613000565b5b906000526020600020906002020160000160039054906101000a900462ffffff1690506000600a8562ffffff1681548110610cf557610cf4613000565b5b906000526020600020906002020160000160009054906101000a900462ffffff1690508181935093505050915091565b60008060009054906101000a900473ffffffffffffffffffffffffffffffffffffffff16905090565b6000600b600083815260200190815260200160002060009054906101000a900473ffffffffffffffffffffffffffffffffffffffff169050919050565b606060028054610d9a90612eaa565b80601f0160208091040260200160405190810160405280929190818152602001828054610dc690612eaa565b8015610e135780601f10610de857610100808354040283529160200191610e13565b820191906000526020600020905b815481529060010190602001808311610df657829003601f168201915b5050505050905090565b610e2f610e286115ff565b8383611d35565b5050565b600080600c60003373ffffffffffffffffffffffffffffffffffffffff1673ffffffffffffffffffffffffffffffffffffffff1681526020019081526020016000205490508091505090565b600080600a8381548110610e9657610e95613000565b5b906000526020600020906002020160010154905080915050919050565b60606000600c60003373ffffffffffffffffffffffffffffffffffffffff1673ffffffffffffffffffffffffffffffffffffffff1681526020019081526020016000205467ffffffffffffffff811115610f1057610f0f612c48565b5b604051908082528060200260200182016040528015610f3e5781602001602082028036833780820191505090505b5090506000805b600a8054905081101561103b573373ffffffffffffffffffffffffffffffffffffffff16600b600083815260200190815260200160002060009054906101000a900473ffffffffffffffffffffffffffffffffffffffff1673ffffffffffffffffffffffffffffffffffffffff16141561102857600a8181548110610fcd57610fcc613000565b5b906000526020600020906002020160000160009054906101000a900462ffffff1683838151811061100157611000613000565b5b602002602001019062ffffff16908162ffffff1681525050818061102490613244565b9250505b808061103390613244565b915050610f45565b50819250505090565b61105561104f6115ff565b836116c0565b611094576040517f08c379a000000000000000000000000000000000000000000000000000000000815260040161108b90613126565b60405180910390fd5b6110a084848484611ea2565b50505050565b600860009054906101000a900473ffffffffffffffffffffffffffffffffffffffff1673ffffffffffffffffffffffffffffffffffffffff163373ffffffffffffffffffffffffffffffffffffffff161461110057600080fd5b6009544261110e919061305e565b600a828154811061112257611121613000565b5b90600052602060002090600202016001018190555050565b600b6020528060005260406000206000915054906101000a900473ffffffffffffffffffffffffffffffffffffffff1681565b60606000600c60003373ffffffffffffffffffffffffffffffffffffffff1673ffffffffffffffffffffffffffffffffffffffff1681526020019081526020016000205467ffffffffffffffff8111156111ca576111c9612c48565b5b6040519080825280602002602001820160405280156111f85781602001602082028036833780820191505090505b5090506000805b600a805490508110156112f5573373ffffffffffffffffffffffffffffffffffffffff16600b600083815260200190815260200160002060009054906101000a900473ffffffffffffffffffffffffffffffffffffffff1673ffffffffffffffffffffffffffffffffffffffff1614156112e257600a818154811061128757611286613000565b5b906000526020600020906002020160000160069054906101000a900462ffffff168383815181106112bb576112ba613000565b5b602002602001019062ffffff16908162ffffff168152505081806112de90613244565b9250505b80806112ed90613244565b9150506111ff565b50819250505090565b6060611309826115b4565b6000611313611efe565b90506000815111611333576040518060200160405280600081525061135e565b8061133d84611f15565b60405160200161134e9291906132c9565b6040516020818303038152906040525b915050919050565b600080600a838154811061137d5761137c613000565b5b906000526020600020906002020160010154905080915050919050565b6000600660008473ffffffffffffffffffffffffffffffffffffffff1673ffffffffffffffffffffffffffffffffffffffff16815260200190815260200160002060008373ffffffffffffffffffffffffffffffffffffffff1673ffffffffffffffffffffffffffffffffffffffff16815260200190815260200160002060009054906101000a900460ff16905092915050565b611436611bf3565b600073ffffffffffffffffffffffffffffffffffffffff168173ffffffffffffffffffffffffffffffffffffffff1614156114a6576040517f08c379a000000000000000000000000000000000000000000000000000000000815260040161149d9061335f565b60405180910390fd5b6114af81611c71565b50565b6000806114be83612076565b9050804211156114d25760019150506114d8565b60009150505b919050565b600a81815481106114ed57600080fd5b90600052602060002090600202016000915090508060000160009054906101000a900462ffffff16908060000160039054906101000a900462ffffff16908060000160069054906101000a900462ffffff16908060010154905084565b60007f01ffc9a7000000000000000000000000000000000000000000000000000000007bffffffffffffffffffffffffffffffffffffffffffffffffffffffff1916827bffffffffffffffffffffffffffffffffffffffffffffffffffffffff1916149050919050565b6115bd816120aa565b6115fc576040517f08c379a00000000000000000000000000000000000000000000000000000000081526004016115f390613192565b60405180910390fd5b50565b600033905090565b816005600083815260200190815260200160002060006101000a81548173ffffffffffffffffffffffffffffffffffffffff021916908373ffffffffffffffffffffffffffffffffffffffff160217905550808273ffffffffffffffffffffffffffffffffffffffff1661167a83610b1b565b73ffffffffffffffffffffffffffffffffffffffff167f8c5be1e5ebec7d5bd14f71427d1e84f3dd0314c0f7b2291e5b200ac8c7c3b92560405160405180910390a45050565b6000806116cc83610b1b565b90508073ffffffffffffffffffffffffffffffffffffffff168473ffffffffffffffffffffffffffffffffffffffff16148061170e575061170d818561139a565b5b8061174c57508373ffffffffffffffffffffffffffffffffffffffff16611734846107c6565b73ffffffffffffffffffffffffffffffffffffffff16145b91505092915050565b8273ffffffffffffffffffffffffffffffffffffffff1661177582610b1b565b73ffffffffffffffffffffffffffffffffffffffff16146117cb576040517f08c379a00000000000000000000000000000000000000000000000000000000081526004016117c2906133f1565b60405180910390fd5b600073ffffffffffffffffffffffffffffffffffffffff168273ffffffffffffffffffffffffffffffffffffffff16141561183b576040517f08c379a000000000000000000000000000000000000000000000000000000000815260040161183290613483565b60405180910390fd5b611846838383612116565b611851600082611607565b6001600460008573ffffffffffffffffffffffffffffffffffffffff1673ffffffffffffffffffffffffffffffffffffffff16815260200190815260200160002060008282546118a191906134a3565b925050819055506001600460008473ffffffffffffffffffffffffffffffffffffffff1673ffffffffffffffffffffffffffffffffffffffff16815260200190815260200160002060008282546118f8919061305e565b92505081905550816003600083815260200190815260200160002060006101000a81548173ffffffffffffffffffffffffffffffffffffffff021916908373ffffffffffffffffffffffffffffffffffffffff160217905550808273ffffffffffffffffffffffffffffffffffffffff168473ffffffffffffffffffffffffffffffffffffffff167fddf252ad1be2c89b69c2b068fc378daa952ba7f163c4a11628f55a4df523b3ef60405160405180910390a46119b783838361211b565b505050565b600060016119ca6003612120565b6119d491906134d7565b905060006001826119e591906134d7565b9050600060405180608001604052808462ffffff1681526020018362ffffff168152602001600860149054906101000a900462ffffff1662ffffff168152602001428152509050600a81908060018154018082558091505060019003906000526020600020906002020160009091909190915060008201518160000160006101000a81548162ffffff021916908362ffffff16021790555060208201518160000160036101000a81548162ffffff021916908362ffffff16021790555060408201518160000160066101000a81548162ffffff021916908362ffffff160217905550606082015181600101555050611af333600860149054906101000a900462ffffff1662ffffff16612165565b33600b6000600860149054906101000a900462ffffff1662ffffff16815260200190815260200160002060006101000a81548173ffffffffffffffffffffffffffffffffffffffff021916908373ffffffffffffffffffffffffffffffffffffffff160217905550600c60003373ffffffffffffffffffffffffffffffffffffffff1673ffffffffffffffffffffffffffffffffffffffff1681526020019081526020016000206000815480929190611bab90613244565b91905055506008601481819054906101000a900462ffffff1680929190611bd190613510565b91906101000a81548162ffffff021916908362ffffff16021790555050505050565b611bfb6115ff565b73ffffffffffffffffffffffffffffffffffffffff16611c19610d25565b73ffffffffffffffffffffffffffffffffffffffff1614611c6f576040517f08c379a0000000000000000000000000000000000000000000000000000000008152600401611c6690613588565b60405180910390fd5b565b60008060009054906101000a900473ffffffffffffffffffffffffffffffffffffffff169050816000806101000a81548173ffffffffffffffffffffffffffffffffffffffff021916908373ffffffffffffffffffffffffffffffffffffffff1602179055508173ffffffffffffffffffffffffffffffffffffffff168173ffffffffffffffffffffffffffffffffffffffff167f8be0079c531659141344cd1fd0a4f28419497f9722a3daafe3b4186f6b6457e060405160405180910390a35050565b8173ffffffffffffffffffffffffffffffffffffffff168373ffffffffffffffffffffffffffffffffffffffff161415611da4576040517f08c379a0000000000000000000000000000000000000000000000000000000008152600401611d9b906135f4565b60405180910390fd5b80600660008573ffffffffffffffffffffffffffffffffffffffff1673ffffffffffffffffffffffffffffffffffffffff16815260200190815260200160002060008473ffffffffffffffffffffffffffffffffffffffff1673ffffffffffffffffffffffffffffffffffffffff16815260200190815260200160002060006101000a81548160ff0219169083151502179055508173ffffffffffffffffffffffffffffffffffffffff168373ffffffffffffffffffffffffffffffffffffffff167f17307eab39ab6107e8899845ad3d59bd9653f200f220920489ca2b5937696c3183604051611e9591906127a7565b60405180910390a3505050565b611ead848484611755565b611eb9848484846121be565b611ef8576040517f08c379a0000000000000000000000000000000000000000000000000000000008152600401611eef90613686565b60405180910390fd5b50505050565b606060405180602001604052806000815250905090565b60606000821415611f5d576040518060400160405280600181526020017f30000000000000000000000000000000000000000000000000000000000000008152509050612071565b600082905060005b60008214611f8f578080611f7890613244565b915050600a82611f8891906136d5565b9150611f65565b60008167ffffffffffffffff811115611fab57611faa612c48565b5b6040519080825280601f01601f191660200182016040528015611fdd5781602001600182028036833780820191505090505b5090505b6000851461206a57600182611ff691906134a3565b9150600a856120059190613706565b6030612011919061305e565b60f81b81838151811061202757612026613000565b5b60200101907effffffffffffffffffffffffffffffffffffffffffffffffffffffffffffff1916908160001a905350600a8561206391906136d5565b9450611fe1565b8093505050505b919050565b600080600a838154811061208d5761208c613000565b5b906000526020600020906002020160010154905080915050919050565b60008073ffffffffffffffffffffffffffffffffffffffff166003600084815260200190815260200160002060009054906101000a900473ffffffffffffffffffffffffffffffffffffffff1673ffffffffffffffffffffffffffffffffffffffff1614159050919050565b505050565b505050565b60008042336040516020016121369291906137a0565b6040516020818303038152906040528051906020012060001c9050828161215d91906137cc565b915050919050565b61216f8282612355565b61217b6000838361252f565b6121ba576040517f08c379a00000000000000000000000000000000000000000000000000000000081526004016121b190613849565b60405180910390fd5b5050565b60006121df8473ffffffffffffffffffffffffffffffffffffffff166126ad565b15612348578373ffffffffffffffffffffffffffffffffffffffff1663150b7a026122086115ff565b8786866040518563ffffffff1660e01b815260040161222a94939291906138be565b602060405180830381600087803b15801561224457600080fd5b505af192505050801561227557506040513d601f19601f82011682018060405250810190612272919061391f565b60015b6122f8573d80600081146122a5576040519150601f19603f3d011682016040523d82523d6000602084013e6122aa565b606091505b506000815114156122f0576040517f08c379a00000000000000000000000000000000000000000000000000000000081526004016122e790613686565b60405180910390fd5b805181602001fd5b63150b7a0260e01b7bffffffffffffffffffffffffffffffffffffffffffffffffffffffff1916817bffffffffffffffffffffffffffffffffffffffffffffffffffffffff19161491505061234d565b600190505b949350505050565b600073ffffffffffffffffffffffffffffffffffffffff168273ffffffffffffffffffffffffffffffffffffffff1614156123c5576040517f08c379a00000000000000000000000000000000000000000000000000000000081526004016123bc90613998565b60405180910390fd5b6123ce816120aa565b1561240e576040517f08c379a000000000000000000000000000000000000000000000000000000000815260040161240590613a04565b60405180910390fd5b61241a60008383612116565b6001600460008473ffffffffffffffffffffffffffffffffffffffff1673ffffffffffffffffffffffffffffffffffffffff168152602001908152602001600020600082825461246a919061305e565b92505081905550816003600083815260200190815260200160002060006101000a81548173ffffffffffffffffffffffffffffffffffffffff021916908373ffffffffffffffffffffffffffffffffffffffff160217905550808273ffffffffffffffffffffffffffffffffffffffff16600073ffffffffffffffffffffffffffffffffffffffff167fddf252ad1be2c89b69c2b068fc378daa952ba7f163c4a11628f55a4df523b3ef60405160405180910390a461252b6000838361211b565b5050565b600061253a836126d0565b156126a1578273ffffffffffffffffffffffffffffffffffffffff1663eeafbddc6125636115ff565b86856040518463ffffffff1660e01b815260040161258393929190613a24565b602060405180830381600087803b15801561259d57600080fd5b505af19250505080156125ce57506040513d601f19601f820116820180604052508101906125cb919061391f565b60015b612651573d80600081146125fe576040519150601f19603f3d011682016040523d82523d6000602084013e612603565b606091505b50600081511415612649576040517f08c379a000000000000000000000000000000000000000000000000000000000815260040161264090613686565b60405180910390fd5b805181602001fd5b63150b7a0260e01b7bffffffffffffffffffffffffffffffffffffffffffffffffffffffff1916817bffffffffffffffffffffffffffffffffffffffffffffffffffffffff1916149150506126a6565b600190505b9392505050565b6000808273ffffffffffffffffffffffffffffffffffffffff163b119050919050565b6000808273ffffffffffffffffffffffffffffffffffffffff163b119050919050565b6000604051905090565b600080fd5b600080fd5b60007fffffffff0000000000000000000000000000000000000000000000000000000082169050919050565b61273c81612707565b811461274757600080fd5b50565b60008135905061275981612733565b92915050565b600060208284031215612775576127746126fd565b5b60006127838482850161274a565b91505092915050565b60008115159050919050565b6127a18161278c565b82525050565b60006020820190506127bc6000830184612798565b92915050565b600081519050919050565b600082825260208201905092915050565b60005b838110156127fc5780820151818401526020810190506127e1565b8381111561280b576000848401525b50505050565b6000601f19601f8301169050919050565b600061282d826127c2565b61283781856127cd565b93506128478185602086016127de565b61285081612811565b840191505092915050565b600060208201905081810360008301526128758184612822565b905092915050565b6000819050919050565b6128908161287d565b811461289b57600080fd5b50565b6000813590506128ad81612887565b92915050565b6000602082840312156128c9576128c86126fd565b5b60006128d78482850161289e565b91505092915050565b600073ffffffffffffffffffffffffffffffffffffffff82169050919050565b600061290b826128e0565b9050919050565b61291b81612900565b82525050565b60006020820190506129366000830184612912565b92915050565b61294581612900565b811461295057600080fd5b50565b6000813590506129628161293c565b92915050565b6000806040838503121561297f5761297e6126fd565b5b600061298d85828601612953565b925050602061299e8582860161289e565b9150509250929050565b6000806000606084860312156129c1576129c06126fd565b5b60006129cf86828701612953565b93505060206129e086828701612953565b92505060406129f18682870161289e565b9150509250925092565b600060208284031215612a1157612a106126fd565b5b6000612a1f84828501612953565b91505092915050565b612a318161287d565b82525050565b6000602082019050612a4c6000830184612a28565b92915050565b600062ffffff82169050919050565b612a6a81612a52565b8114612a7557600080fd5b50565b600081359050612a8781612a61565b92915050565b600060208284031215612aa357612aa26126fd565b5b6000612ab184828501612a78565b91505092915050565b612ac381612a52565b82525050565b6000604082019050612ade6000830185612aba565b612aeb6020830184612aba565b9392505050565b612afb8161278c565b8114612b0657600080fd5b50565b600081359050612b1881612af2565b92915050565b60008060408385031215612b3557612b346126fd565b5b6000612b4385828601612953565b9250506020612b5485828601612b09565b9150509250929050565b600081519050919050565b600082825260208201905092915050565b6000819050602082019050919050565b612b9381612a52565b82525050565b6000612ba58383612b8a565b60208301905092915050565b6000602082019050919050565b6000612bc982612b5e565b612bd38185612b69565b9350612bde83612b7a565b8060005b83811015612c0f578151612bf68882612b99565b9750612c0183612bb1565b925050600181019050612be2565b5085935050505092915050565b60006020820190508181036000830152612c368184612bbe565b905092915050565b600080fd5b600080fd5b7f4e487b7100000000000000000000000000000000000000000000000000000000600052604160045260246000fd5b612c8082612811565b810181811067ffffffffffffffff82111715612c9f57612c9e612c48565b5b80604052505050565b6000612cb26126f3565b9050612cbe8282612c77565b919050565b600067ffffffffffffffff821115612cde57612cdd612c48565b5b612ce782612811565b9050602081019050919050565b82818337600083830152505050565b6000612d16612d1184612cc3565b612ca8565b905082815260208101848484011115612d3257612d31612c43565b5b612d3d848285612cf4565b509392505050565b600082601f830112612d5a57612d59612c3e565b5b8135612d6a848260208601612d03565b91505092915050565b60008060008060808587031215612d8d57612d8c6126fd565b5b6000612d9b87828801612953565b9450506020612dac87828801612953565b9350506040612dbd8782880161289e565b925050606085013567ffffffffffffffff811115612dde57612ddd612702565b5b612dea87828801612d45565b91505092959194509250565b60008060408385031215612e0d57612e0c6126fd565b5b6000612e1b85828601612953565b9250506020612e2c85828601612953565b9150509250929050565b6000608082019050612e4b6000830187612aba565b612e586020830186612aba565b612e656040830185612aba565b612e726060830184612a28565b95945050505050565b7f4e487b7100000000000000000000000000000000000000000000000000000000600052602260045260246000fd5b60006002820490506001821680612ec257607f821691505b60208210811415612ed657612ed5612e7b565b5b50919050565b7f4552433732313a20617070726f76616c20746f2063757272656e74206f776e6560008201527f7200000000000000000000000000000000000000000000000000000000000000602082015250565b6000612f386021836127cd565b9150612f4382612edc565b604082019050919050565b60006020820190508181036000830152612f6781612f2b565b9050919050565b7f4552433732313a20617070726f76652063616c6c6572206973206e6f7420746f60008201527f6b656e206f776e6572206e6f7220617070726f76656420666f7220616c6c0000602082015250565b6000612fca603e836127cd565b9150612fd582612f6e565b604082019050919050565b60006020820190508181036000830152612ff981612fbd565b9050919050565b7f4e487b7100000000000000000000000000000000000000000000000000000000600052603260045260246000fd5b7f4e487b7100000000000000000000000000000000000000000000000000000000600052601160045260246000fd5b60006130698261287d565b91506130748361287d565b9250827fffffffffffffffffffffffffffffffffffffffffffffffffffffffffffffffff038211156130a9576130a861302f565b5b828201905092915050565b7f4552433732313a2063616c6c6572206973206e6f7420746f6b656e206f776e6560008201527f72206e6f7220617070726f766564000000000000000000000000000000000000602082015250565b6000613110602e836127cd565b915061311b826130b4565b604082019050919050565b6000602082019050818103600083015261313f81613103565b9050919050565b7f4552433732313a20696e76616c696420746f6b656e2049440000000000000000600082015250565b600061317c6018836127cd565b915061318782613146565b602082019050919050565b600060208201905081810360008301526131ab8161316f565b9050919050565b7f4552433732313a2061646472657373207a65726f206973206e6f74206120766160008201527f6c6964206f776e65720000000000000000000000000000000000000000000000602082015250565b600061320e6029836127cd565b9150613219826131b2565b604082019050919050565b6000602082019050818103600083015261323d81613201565b9050919050565b600061324f8261287d565b91507fffffffffffffffffffffffffffffffffffffffffffffffffffffffffffffffff8214156132825761328161302f565b5b600182019050919050565b600081905092915050565b60006132a3826127c2565b6132ad818561328d565b93506132bd8185602086016127de565b80840191505092915050565b60006132d58285613298565b91506132e18284613298565b91508190509392505050565b7f4f776e61626c653a206e6577206f776e657220697320746865207a65726f206160008201527f6464726573730000000000000000000000000000000000000000000000000000602082015250565b60006133496026836127cd565b9150613354826132ed565b604082019050919050565b600060208201905081810360008301526133788161333c565b9050919050565b7f4552433732313a207472616e736665722066726f6d20696e636f72726563742060008201527f6f776e6572000000000000000000000000000000000000000000000000000000602082015250565b60006133db6025836127cd565b91506133e68261337f565b604082019050919050565b6000602082019050818103600083015261340a816133ce565b9050919050565b7f4552433732313a207472616e7366657220746f20746865207a65726f2061646460008201527f7265737300000000000000000000000000000000000000000000000000000000602082015250565b600061346d6024836127cd565b915061347882613411565b604082019050919050565b6000602082019050818103600083015261349c81613460565b9050919050565b60006134ae8261287d565b91506134b98361287d565b9250828210156134cc576134cb61302f565b5b828203905092915050565b60006134e282612a52565b91506134ed83612a52565b92508262ffffff038211156135055761350461302f565b5b828201905092915050565b600061351b82612a52565b915062ffffff8214156135315761353061302f565b5b600182019050919050565b7f4f776e61626c653a2063616c6c6572206973206e6f7420746865206f776e6572600082015250565b60006135726020836127cd565b915061357d8261353c565b602082019050919050565b600060208201905081810360008301526135a181613565565b9050919050565b7f4552433732313a20617070726f766520746f2063616c6c657200000000000000600082015250565b60006135de6019836127cd565b91506135e9826135a8565b602082019050919050565b6000602082019050818103600083015261360d816135d1565b9050919050565b7f4552433732313a207472616e7366657220746f206e6f6e20455243373231526560008201527f63656976657220696d706c656d656e7465720000000000000000000000000000602082015250565b60006136706032836127cd565b915061367b82613614565b604082019050919050565b6000602082019050818103600083015261369f81613663565b9050919050565b7f4e487b7100000000000000000000000000000000000000000000000000000000600052601260045260246000fd5b60006136e08261287d565b91506136eb8361287d565b9250826136fb576136fa6136a6565b5b828204905092915050565b60006137118261287d565b915061371c8361287d565b92508261372c5761372b6136a6565b5b828206905092915050565b6000819050919050565b61375261374d8261287d565b613737565b82525050565b60008160601b9050919050565b600061377082613758565b9050919050565b600061378282613765565b9050919050565b61379a61379582612900565b613777565b82525050565b60006137ac8285613741565b6020820191506137bc8284613789565b6014820191508190509392505050565b60006137d782612a52565b91506137e283612a52565b9250826137f2576137f16136a6565b5b828206905092915050565b7f6e6f7420746f6461790000000000000000000000000000000000000000000000600082015250565b60006138336009836127cd565b915061383e826137fd565b602082019050919050565b6000602082019050818103600083015261386281613826565b9050919050565b600081519050919050565b600082825260208201905092915050565b600061389082613869565b61389a8185613874565b93506138aa8185602086016127de565b6138b381612811565b840191505092915050565b60006080820190506138d36000830187612912565b6138e06020830186612912565b6138ed6040830185612a28565b81810360608301526138ff8184613885565b905095945050505050565b60008151905061391981612733565b92915050565b600060208284031215613935576139346126fd565b5b60006139438482850161390a565b91505092915050565b7f4552433732313a206d696e7420746f20746865207a65726f2061646472657373600082015250565b60006139826020836127cd565b915061398d8261394c565b602082019050919050565b600060208201905081810360008301526139b181613975565b9050919050565b7f4552433732313a20746f6b656e20616c7265616479206d696e74656400000000600082015250565b60006139ee601c836127cd565b91506139f9826139b8565b602082019050919050565b60006020820190508181036000830152613a1d816139e1565b9050919050565b6000606082019050613a396000830186612912565b613a466020830185612912565b613a536040830184612a28565b94935050505056fea2646970667358221220e45a120d09c467480712ce841f7dd5498f4bc38bc9ab578c35cca6710cd04f4c64736f6c63430008090033",
  "linkReferences": {},
  "deployedLinkReferences": {}
}