{
  "_format": "hh-sol-artifact-1",
  "contractName": "Game",
  "sourceName": "contracts/game.sol",
  "abi": [
    {
      "inputs": [],
      "stateMutability": "nonpayable",
      "type": "constructor"
    },
    {
      "anonymous": false,
      "inputs": [
        {
          "indexed": true,
          "internalType": "address",
          "name": "previousOwner",
          "type": "address"
        },
        {
          "indexed": true,
          "internalType": "address",
          "name": "newOwner",
          "type": "address"
        }
      ],
      "name": "OwnershipTransferred",
      "type": "event"
    },
    {
      "inputs": [
        {
          "internalType": "address",
          "name": "",
          "type": "address"
        }
      ],
      "name": "RewardAmt",
      "outputs": [
        {
          "internalType": "uint24",
          "name": "",
          "type": "uint24"
        }
      ],
      "stateMutability": "view",
      "type": "function"
    },
    {
      "inputs": [
        {
          "internalType": "uint256",
          "name": "_id",
          "type": "uint256"
        }
      ],
      "name": "attack",
      "outputs": [],
      "stateMutability": "nonpayable",
      "type": "function"
    },
    {
      "inputs": [
        {
          "internalType": "uint256",
          "name": "",
          "type": "uint256"
        }
      ],
      "name": "brainAmount",
      "outputs": [
        {
          "internalType": "uint24",
          "name": "",
          "type": "uint24"
        }
      ],
      "stateMutability": "view",
      "type": "function"
    },
    {
      "inputs": [
        {
          "internalType": "uint256",
          "name": "",
          "type": "uint256"
        }
      ],
      "name": "brains",
      "outputs": [
        {
          "internalType": "uint256",
          "name": "time",
          "type": "uint256"
        },
        {
          "internalType": "uint256",
          "name": "brain",
          "type": "uint256"
        },
        {
          "internalType": "bool",
          "name": "claimed",
          "type": "bool"
        }
      ],
      "stateMutability": "view",
      "type": "function"
    },
    {
      "inputs": [
        {
          "internalType": "uint256",
          "name": "",
          "type": "uint256"
        }
      ],
      "name": "carTime",
      "outputs": [
        {
          "internalType": "uint256",
          "name": "",
          "type": "uint256"
        }
      ],
      "stateMutability": "view",
      "type": "function"
    },
    {
      "inputs": [],
      "name": "cashOut",
      "outputs": [],
      "stateMutability": "payable",
      "type": "function"
    },
    {
      "inputs": [],
      "name": "getBrainJars",
      "outputs": [
        {
          "internalType": "uint256[]",
          "name": "",
          "type": "uint256[]"
        }
      ],
      "stateMutability": "view",
      "type": "function"
    },
    {
      "inputs": [],
      "name": "getBrainTotal",
      "outputs": [
        {
          "internalType": "uint256",
          "name": "",
          "type": "uint256"
        }
      ],
      "stateMutability": "view",
      "type": "function"
    },
    {
      "inputs": [
        {
          "internalType": "uint256",
          "name": "",
          "type": "uint256"
        }
      ],
      "name": "idBrains",
      "outputs": [
        {
          "internalType": "address",
          "name": "",
          "type": "address"
        }
      ],
      "stateMutability": "view",
      "type": "function"
    },
    {
      "inputs": [
        {
          "internalType": "address",
          "name": "",
          "type": "address"
        }
      ],
      "name": "lastUpdate",
      "outputs": [
        {
          "internalType": "uint256",
          "name": "",
          "type": "uint256"
        }
      ],
      "stateMutability": "view",
      "type": "function"
    },
    {
      "inputs": [],
      "name": "owner",
      "outputs": [
        {
          "internalType": "address",
          "name": "",
          "type": "address"
        }
      ],
      "stateMutability": "view",
      "type": "function"
    },
    {
      "inputs": [],
      "name": "pacoCoin",
      "outputs": [
        {
          "internalType": "contract IERC20",
          "name": "",
          "type": "address"
        }
      ],
      "stateMutability": "view",
      "type": "function"
    },
    {
      "inputs": [],
      "name": "passWeek",
      "outputs": [],
      "stateMutability": "payable",
      "type": "function"
    },
    {
      "inputs": [],
      "name": "renounceOwnership",
      "outputs": [],
      "stateMutability": "nonpayable",
      "type": "function"
    },
    {
      "inputs": [
        {
          "internalType": "address",
          "name": "_ad",
          "type": "address"
        }
      ],
      "name": "setCar",
      "outputs": [],
      "stateMutability": "nonpayable",
      "type": "function"
    },
    {
      "inputs": [
        {
          "internalType": "address",
          "name": "_ad",
          "type": "address"
        }
      ],
      "name": "setZombie",
      "outputs": [],
      "stateMutability": "nonpayable",
      "type": "function"
    },
    {
      "inputs": [
        {
          "internalType": "address",
          "name": "pc",
          "type": "address"
        }
      ],
      "name": "setter",
      "outputs": [],
      "stateMutability": "nonpayable",
      "type": "function"
    },
    {
      "inputs": [
        {
          "internalType": "address",
          "name": "newOwner",
          "type": "address"
        }
      ],
      "name": "transferOwnership",
      "outputs": [],
      "stateMutability": "nonpayable",
      "type": "function"
    }
  ],
  "bytecode": "0x6080604052671bc16d674ec8000060045534801561001c57600080fd5b5061003961002e61003e60201b60201c565b61004660201b60201c565b61010a565b600033905090565b60008060009054906101000a900473ffffffffffffffffffffffffffffffffffffffff169050816000806101000a81548173ffffffffffffffffffffffffffffffffffffffff021916908373ffffffffffffffffffffffffffffffffffffffff1602179055508173ffffffffffffffffffffffffffffffffffffffff168173ffffffffffffffffffffffffffffffffffffffff167f8be0079c531659141344cd1fd0a4f28419497f9722a3daafe3b4186f6b6457e060405160405180910390a35050565b6117f6806101196000396000f3fe6080604052600436106101095760003560e01c806374eec2a711610095578063b45392ca11610064578063b45392ca14610341578063b837b3581461036a578063cb03fb1e14610393578063da80ed09146103d0578063f2fde38b146103f957610109565b806374eec2a7146102c5578063793cd71e146102cf5780638da5cb5b146102d9578063b443ebbb1461030457610109565b806349fe6dad116100dc57806349fe6dad146101f25780634d95983e1461022f57806364dd891a1461025a578063715018a61461028357806373ab8c701461029a57610109565b806307c1833f1461010e578063097553cb1461014b578063309e5eb11461018a578063386f3545146101b5575b600080fd5b34801561011a57600080fd5b50610135600480360381019061013091906110d6565b610422565b6040516101429190611121565b60405180910390f35b34801561015757600080fd5b50610172600480360381019061016d9190611172565b610444565b604051610181939291906111c9565b60405180910390f35b34801561019657600080fd5b5061019f61048b565b6040516101ac919061125f565b60405180910390f35b3480156101c157600080fd5b506101dc60048036038101906101d79190611172565b6104b1565b6040516101e99190611121565b60405180910390f35b3480156101fe57600080fd5b5061021960048036038101906102149190611172565b6104d3565b604051610226919061127a565b60405180910390f35b34801561023b57600080fd5b506102446104eb565b604051610251919061127a565b60405180910390f35b34801561026657600080fd5b50610281600480360381019061027c9190611172565b6105b7565b005b34801561028f57600080fd5b50610298610844565b005b3480156102a657600080fd5b506102af610858565b6040516102bc9190611353565b60405180910390f35b6102cd6109d4565b005b6102d7610a34565b005b3480156102e557600080fd5b506102ee610a92565b6040516102fb9190611384565b60405180910390f35b34801561031057600080fd5b5061032b60048036038101906103269190611172565b610abb565b6040516103389190611384565b60405180910390f35b34801561034d57600080fd5b50610368600480360381019061036391906110d6565b610aee565b005b34801561037657600080fd5b50610391600480360381019061038c91906110d6565b610b3a565b005b34801561039f57600080fd5b506103ba60048036038101906103b591906110d6565b610b86565b6040516103c7919061127a565b60405180910390f35b3480156103dc57600080fd5b506103f760048036038101906103f291906110d6565b610b9e565b005b34801561040557600080fd5b50610420600480360381019061041b91906110d6565b610bea565b005b60076020528060005260406000206000915054906101000a900462ffffff1681565b6005818154811061045457600080fd5b90600052602060002090600302016000915090508060000154908060010154908060020160009054906101000a900460ff16905083565b600160009054906101000a900473ffffffffffffffffffffffffffffffffffffffff1681565b60086020528060005260406000206000915054906101000a900462ffffff1681565b60096020528060005260406000206000915090505481565b6000806000905060005b6005805490508110156105af573373ffffffffffffffffffffffffffffffffffffffff166006600083815260200190815260200160002060009054906101000a900473ffffffffffffffffffffffffffffffffffffffff1673ffffffffffffffffffffffffffffffffffffffff16141561059c576005818154811061057d5761057c61139f565b5b9060005260206000209060030201600101548261059a91906113fd565b505b80806105a790611453565b9150506104f5565b508091505090565b60006105c233610c6e565b11610602576040517f08c379a00000000000000000000000000000000000000000000000000000000081526004016105f9906114f9565b60405180910390fd5b600261060d33610d27565b1161064d576040517f08c379a000000000000000000000000000000000000000000000000000000000815260040161064490611565565b60405180910390fd5b4261065782610de0565b1115610698576040517f08c379a000000000000000000000000000000000000000000000000000000000815260040161068f906115d1565b60405180910390fd5b6000600f9050600060405180606001604052804281526020018381526020016000151581525090506005819080600181540180825580915050600190039060005260206000209060030201600090919091909150600082015181600001556020820151816001015560408201518160020160006101000a81548160ff02191690831515021790555050506000600160058054905061073691906115f1565b9050336006600083815260200190815260200160002060006101000a81548173ffffffffffffffffffffffffffffffffffffffff021916908373ffffffffffffffffffffffffffffffffffffffff160217905550826008600083815260200190815260200160002060006101000a81548162ffffff021916908362ffffff160217905550600760003373ffffffffffffffffffffffffffffffffffffffff1673ffffffffffffffffffffffffffffffffffffffff168152602001908152602001600020600081819054906101000a900462ffffff168092919061081890611625565b91906101000a81548162ffffff021916908362ffffff1602179055505061083e84610e99565b50505050565b61084c610f29565b6108566000610fa7565b565b60606000600760003373ffffffffffffffffffffffffffffffffffffffff1673ffffffffffffffffffffffffffffffffffffffff16815260200190815260200160002060009054906101000a900462ffffff1662ffffff1667ffffffffffffffff8111156108c9576108c8611651565b5b6040519080825280602002602001820160405280156108f75781602001602082028036833780820191505090505b5090506000805b6005805490508110156109cb573373ffffffffffffffffffffffffffffffffffffffff166006600083815260200190815260200160002060009054906101000a900473ffffffffffffffffffffffffffffffffffffffff1673ffffffffffffffffffffffffffffffffffffffff1614156109b857600581815481106109865761098561139f565b5b9060005260206000209060030201600101548383815181106109ab576109aa61139f565b5b6020026020010181815250505b80806109c390611453565b9150506108fe565b50819250505090565b60045434146109e257600080fd5b6005426109ef91906113fd565b600a60003373ffffffffffffffffffffffffffffffffffffffff1673ffffffffffffffffffffffffffffffffffffffff16815260200190815260200160002081905550565b610a3c610f29565b6000610a46610a92565b90508073ffffffffffffffffffffffffffffffffffffffff166108fc479081150290604051600060405180830381858888f19350505050158015610a8e573d6000803e3d6000fd5b5050565b60008060009054906101000a900473ffffffffffffffffffffffffffffffffffffffff16905090565b60066020528060005260406000206000915054906101000a900473ffffffffffffffffffffffffffffffffffffffff1681565b610af6610f29565b80600260006101000a81548173ffffffffffffffffffffffffffffffffffffffff021916908373ffffffffffffffffffffffffffffffffffffffff16021790555050565b610b42610f29565b80600160006101000a81548173ffffffffffffffffffffffffffffffffffffffff021916908373ffffffffffffffffffffffffffffffffffffffff16021790555050565b600a6020528060005260406000206000915090505481565b610ba6610f29565b80600360006101000a81548173ffffffffffffffffffffffffffffffffffffffff021916908373ffffffffffffffffffffffffffffffffffffffff16021790555050565b610bf2610f29565b600073ffffffffffffffffffffffffffffffffffffffff168173ffffffffffffffffffffffffffffffffffffffff161415610c62576040517f08c379a0000000000000000000000000000000000000000000000000000000008152600401610c59906116f2565b60405180910390fd5b610c6b81610fa7565b50565b600080600260009054906101000a900473ffffffffffffffffffffffffffffffffffffffff1673ffffffffffffffffffffffffffffffffffffffff1663f5a79767846040518263ffffffff1660e01b8152600401610ccc9190611384565b60206040518083038186803b158015610ce457600080fd5b505afa158015610cf8573d6000803e3d6000fd5b505050506040513d601f19601f82011682018060405250810190610d1c9190611727565b905080915050919050565b600080600260009054906101000a900473ffffffffffffffffffffffffffffffffffffffff1673ffffffffffffffffffffffffffffffffffffffff1663852f149f846040518263ffffffff1660e01b8152600401610d859190611384565b60206040518083038186803b158015610d9d57600080fd5b505afa158015610db1573d6000803e3d6000fd5b505050506040513d601f19601f82011682018060405250810190610dd59190611727565b905080915050919050565b600080600360009054906101000a900473ffffffffffffffffffffffffffffffffffffffff1673ffffffffffffffffffffffffffffffffffffffff1663aab0aeb2846040518263ffffffff1660e01b8152600401610e3e919061127a565b60206040518083038186803b158015610e5657600080fd5b505afa158015610e6a573d6000803e3d6000fd5b505050506040513d601f19601f82011682018060405250810190610e8e9190611727565b905080915050919050565b600360009054906101000a900473ffffffffffffffffffffffffffffffffffffffff1673ffffffffffffffffffffffffffffffffffffffff1663224993c2826040518263ffffffff1660e01b8152600401610ef4919061127a565b600060405180830381600087803b158015610f0e57600080fd5b505af1158015610f22573d6000803e3d6000fd5b5050505050565b610f3161106b565b73ffffffffffffffffffffffffffffffffffffffff16610f4f610a92565b73ffffffffffffffffffffffffffffffffffffffff1614610fa5576040517f08c379a0000000000000000000000000000000000000000000000000000000008152600401610f9c906117a0565b60405180910390fd5b565b60008060009054906101000a900473ffffffffffffffffffffffffffffffffffffffff169050816000806101000a81548173ffffffffffffffffffffffffffffffffffffffff021916908373ffffffffffffffffffffffffffffffffffffffff1602179055508173ffffffffffffffffffffffffffffffffffffffff168173ffffffffffffffffffffffffffffffffffffffff167f8be0079c531659141344cd1fd0a4f28419497f9722a3daafe3b4186f6b6457e060405160405180910390a35050565b600033905090565b600080fd5b600073ffffffffffffffffffffffffffffffffffffffff82169050919050565b60006110a382611078565b9050919050565b6110b381611098565b81146110be57600080fd5b50565b6000813590506110d0816110aa565b92915050565b6000602082840312156110ec576110eb611073565b5b60006110fa848285016110c1565b91505092915050565b600062ffffff82169050919050565b61111b81611103565b82525050565b60006020820190506111366000830184611112565b92915050565b6000819050919050565b61114f8161113c565b811461115a57600080fd5b50565b60008135905061116c81611146565b92915050565b60006020828403121561118857611187611073565b5b60006111968482850161115d565b91505092915050565b6111a88161113c565b82525050565b60008115159050919050565b6111c3816111ae565b82525050565b60006060820190506111de600083018661119f565b6111eb602083018561119f565b6111f860408301846111ba565b949350505050565b6000819050919050565b600061122561122061121b84611078565b611200565b611078565b9050919050565b60006112378261120a565b9050919050565b60006112498261122c565b9050919050565b6112598161123e565b82525050565b60006020820190506112746000830184611250565b92915050565b600060208201905061128f600083018461119f565b92915050565b600081519050919050565b600082825260208201905092915050565b6000819050602082019050919050565b6112ca8161113c565b82525050565b60006112dc83836112c1565b60208301905092915050565b6000602082019050919050565b600061130082611295565b61130a81856112a0565b9350611315836112b1565b8060005b8381101561134657815161132d88826112d0565b9750611338836112e8565b925050600181019050611319565b5085935050505092915050565b6000602082019050818103600083015261136d81846112f5565b905092915050565b61137e81611098565b82525050565b60006020820190506113996000830184611375565b92915050565b7f4e487b7100000000000000000000000000000000000000000000000000000000600052603260045260246000fd5b7f4e487b7100000000000000000000000000000000000000000000000000000000600052601160045260246000fd5b60006114088261113c565b91506114138361113c565b9250827fffffffffffffffffffffffffffffffffffffffffffffffffffffffffffffffff03821115611448576114476113ce565b5b828201905092915050565b600061145e8261113c565b91507fffffffffffffffffffffffffffffffffffffffffffffffffffffffffffffffff821415611491576114906113ce565b5b600182019050919050565b600082825260208201905092915050565b7f596f75206e656564207a6f6d6269657320746f20706c61792e00000000000000600082015250565b60006114e360198361149c565b91506114ee826114ad565b602082019050919050565b60006020820190508181036000830152611512816114d6565b9050919050565b7f596f75206e656564206d6f726520737472656e67746820746f20706c61792e00600082015250565b600061154f601f8361149c565b915061155a82611519565b602082019050919050565b6000602082019050818103600083015261157e81611542565b9050919050565b7f596f75206e65656420746f2077616974207374696c6c2e000000000000000000600082015250565b60006115bb60178361149c565b91506115c682611585565b602082019050919050565b600060208201905081810360008301526115ea816115ae565b9050919050565b60006115fc8261113c565b91506116078361113c565b92508282101561161a576116196113ce565b5b828203905092915050565b600061163082611103565b915062ffffff821415611646576116456113ce565b5b600182019050919050565b7f4e487b7100000000000000000000000000000000000000000000000000000000600052604160045260246000fd5b7f4f776e61626c653a206e6577206f776e657220697320746865207a65726f206160008201527f6464726573730000000000000000000000000000000000000000000000000000602082015250565b60006116dc60268361149c565b91506116e782611680565b604082019050919050565b6000602082019050818103600083015261170b816116cf565b9050919050565b60008151905061172181611146565b92915050565b60006020828403121561173d5761173c611073565b5b600061174b84828501611712565b91505092915050565b7f4f776e61626c653a2063616c6c6572206973206e6f7420746865206f776e6572600082015250565b600061178a60208361149c565b915061179582611754565b602082019050919050565b600060208201905081810360008301526117b98161177d565b905091905056fea2646970667358221220493733c317895c87ffb8eee97ba355b7cb1026f74fb25a3cc5bdef134960f1f264736f6c63430008090033",
  "linkReferences": {},
  "deployedLinkReferences": {}
}