{
  "_format": "hh-sol-artifact-1",
  "contractName": "Game2",
  "sourceName": "contracts/game2.sol",
  "abi": [
    {
      "inputs": [
        {
          "internalType": "string",
          "name": "_name",
          "type": "string"
        },
        {
          "internalType": "string",
          "name": "_symbol",
          "type": "string"
        }
      ],
      "stateMutability": "nonpayable",
      "type": "constructor"
    },
    {
      "anonymous": false,
      "inputs": [
        {
          "indexed": true,
          "internalType": "address",
          "name": "owner",
          "type": "address"
        },
        {
          "indexed": true,
          "internalType": "address",
          "name": "approved",
          "type": "address"
        },
        {
          "indexed": true,
          "internalType": "uint256",
          "name": "tokenId",
          "type": "uint256"
        }
      ],
      "name": "Approval",
      "type": "event"
    },
    {
      "anonymous": false,
      "inputs": [
        {
          "indexed": true,
          "internalType": "address",
          "name": "owner",
          "type": "address"
        },
        {
          "indexed": true,
          "internalType": "address",
          "name": "operator",
          "type": "address"
        },
        {
          "indexed": false,
          "internalType": "bool",
          "name": "approved",
          "type": "bool"
        }
      ],
      "name": "ApprovalForAll",
      "type": "event"
    },
    {
      "anonymous": false,
      "inputs": [
        {
          "indexed": true,
          "internalType": "address",
          "name": "previousOwner",
          "type": "address"
        },
        {
          "indexed": true,
          "internalType": "address",
          "name": "newOwner",
          "type": "address"
        }
      ],
      "name": "OwnershipTransferred",
      "type": "event"
    },
    {
      "anonymous": false,
      "inputs": [
        {
          "indexed": true,
          "internalType": "address",
          "name": "from",
          "type": "address"
        },
        {
          "indexed": true,
          "internalType": "address",
          "name": "to",
          "type": "address"
        },
        {
          "indexed": true,
          "internalType": "uint256",
          "name": "tokenId",
          "type": "uint256"
        }
      ],
      "name": "Transfer",
      "type": "event"
    },
    {
      "inputs": [
        {
          "internalType": "address",
          "name": "",
          "type": "address"
        }
      ],
      "name": "RewardAmt",
      "outputs": [
        {
          "internalType": "uint256",
          "name": "",
          "type": "uint256"
        }
      ],
      "stateMutability": "view",
      "type": "function"
    },
    {
      "inputs": [
        {
          "internalType": "address",
          "name": "to",
          "type": "address"
        },
        {
          "internalType": "uint256",
          "name": "tokenId",
          "type": "uint256"
        }
      ],
      "name": "approve",
      "outputs": [],
      "stateMutability": "nonpayable",
      "type": "function"
    },
    {
      "inputs": [
        {
          "internalType": "uint256",
          "name": "_id",
          "type": "uint256"
        }
      ],
      "name": "attackFirst",
      "outputs": [],
      "stateMutability": "nonpayable",
      "type": "function"
    },
    {
      "inputs": [
        {
          "internalType": "address",
          "name": "owner",
          "type": "address"
        }
      ],
      "name": "balanceOf",
      "outputs": [
        {
          "internalType": "uint256",
          "name": "",
          "type": "uint256"
        }
      ],
      "stateMutability": "view",
      "type": "function"
    },
    {
      "inputs": [
        {
          "internalType": "address",
          "name": "",
          "type": "address"
        }
      ],
      "name": "brainAmount",
      "outputs": [
        {
          "internalType": "uint256",
          "name": "",
          "type": "uint256"
        }
      ],
      "stateMutability": "view",
      "type": "function"
    },
    {
      "inputs": [
        {
          "internalType": "uint256",
          "name": "",
          "type": "uint256"
        }
      ],
      "name": "brains",
      "outputs": [
        {
          "internalType": "uint256",
          "name": "time",
          "type": "uint256"
        },
        {
          "internalType": "uint256",
          "name": "amount",
          "type": "uint256"
        },
        {
          "internalType": "bool",
          "name": "claimed",
          "type": "bool"
        }
      ],
      "stateMutability": "view",
      "type": "function"
    },
    {
      "inputs": [
        {
          "internalType": "uint256",
          "name": "",
          "type": "uint256"
        }
      ],
      "name": "carTime",
      "outputs": [
        {
          "internalType": "uint256",
          "name": "",
          "type": "uint256"
        }
      ],
      "stateMutability": "view",
      "type": "function"
    },
    {
      "inputs": [
        {
          "internalType": "uint256",
          "name": "_id",
          "type": "uint256"
        }
      ],
      "name": "claimBrain",
      "outputs": [],
      "stateMutability": "nonpayable",
      "type": "function"
    },
    {
      "inputs": [],
      "name": "getAllBrains",
      "outputs": [
        {
          "internalType": "uint256",
          "name": "",
          "type": "uint256"
        }
      ],
      "stateMutability": "view",
      "type": "function"
    },
    {
      "inputs": [
        {
          "internalType": "uint256",
          "name": "tokenId",
          "type": "uint256"
        }
      ],
      "name": "getApproved",
      "outputs": [
        {
          "internalType": "address",
          "name": "",
          "type": "address"
        }
      ],
      "stateMutability": "view",
      "type": "function"
    },
    {
      "inputs": [
        {
          "internalType": "uint256",
          "name": "_id",
          "type": "uint256"
        }
      ],
      "name": "getBrainAmount",
      "outputs": [
        {
          "internalType": "uint256",
          "name": "",
          "type": "uint256"
        }
      ],
      "stateMutability": "view",
      "type": "function"
    },
    {
      "inputs": [],
      "name": "getBrainIds",
      "outputs": [
        {
          "internalType": "uint256[]",
          "name": "",
          "type": "uint256[]"
        }
      ],
      "stateMutability": "view",
      "type": "function"
    },
    {
      "inputs": [
        {
          "internalType": "uint256",
          "name": "",
          "type": "uint256"
        }
      ],
      "name": "idBrains",
      "outputs": [
        {
          "internalType": "address",
          "name": "",
          "type": "address"
        }
      ],
      "stateMutability": "view",
      "type": "function"
    },
    {
      "inputs": [
        {
          "internalType": "address",
          "name": "owner",
          "type": "address"
        },
        {
          "internalType": "address",
          "name": "operator",
          "type": "address"
        }
      ],
      "name": "isApprovedForAll",
      "outputs": [
        {
          "internalType": "bool",
          "name": "",
          "type": "bool"
        }
      ],
      "stateMutability": "view",
      "type": "function"
    },
    {
      "inputs": [],
      "name": "name",
      "outputs": [
        {
          "internalType": "string",
          "name": "",
          "type": "string"
        }
      ],
      "stateMutability": "view",
      "type": "function"
    },
    {
      "inputs": [],
      "name": "owner",
      "outputs": [
        {
          "internalType": "address",
          "name": "",
          "type": "address"
        }
      ],
      "stateMutability": "view",
      "type": "function"
    },
    {
      "inputs": [
        {
          "internalType": "uint256",
          "name": "tokenId",
          "type": "uint256"
        }
      ],
      "name": "ownerOf",
      "outputs": [
        {
          "internalType": "address",
          "name": "",
          "type": "address"
        }
      ],
      "stateMutability": "view",
      "type": "function"
    },
    {
      "inputs": [],
      "name": "pacoCoin",
      "outputs": [
        {
          "internalType": "contract IERC20",
          "name": "",
          "type": "address"
        }
      ],
      "stateMutability": "view",
      "type": "function"
    },
    {
      "inputs": [],
      "name": "renounceOwnership",
      "outputs": [],
      "stateMutability": "nonpayable",
      "type": "function"
    },
    {
      "inputs": [],
      "name": "returnBrainTotal",
      "outputs": [
        {
          "internalType": "uint256",
          "name": "",
          "type": "uint256"
        }
      ],
      "stateMutability": "view",
      "type": "function"
    },
    {
      "inputs": [
        {
          "internalType": "address",
          "name": "from",
          "type": "address"
        },
        {
          "internalType": "address",
          "name": "to",
          "type": "address"
        },
        {
          "internalType": "uint256",
          "name": "tokenId",
          "type": "uint256"
        }
      ],
      "name": "safeTransferFrom",
      "outputs": [],
      "stateMutability": "nonpayable",
      "type": "function"
    },
    {
      "inputs": [
        {
          "internalType": "address",
          "name": "from",
          "type": "address"
        },
        {
          "internalType": "address",
          "name": "to",
          "type": "address"
        },
        {
          "internalType": "uint256",
          "name": "tokenId",
          "type": "uint256"
        },
        {
          "internalType": "bytes",
          "name": "data",
          "type": "bytes"
        }
      ],
      "name": "safeTransferFrom",
      "outputs": [],
      "stateMutability": "nonpayable",
      "type": "function"
    },
    {
      "inputs": [
        {
          "internalType": "address",
          "name": "operator",
          "type": "address"
        },
        {
          "internalType": "bool",
          "name": "approved",
          "type": "bool"
        }
      ],
      "name": "setApprovalForAll",
      "outputs": [],
      "stateMutability": "nonpayable",
      "type": "function"
    },
    {
      "inputs": [
        {
          "internalType": "address",
          "name": "_add",
          "type": "address"
        }
      ],
      "name": "setCombine2",
      "outputs": [],
      "stateMutability": "nonpayable",
      "type": "function"
    },
    {
      "inputs": [
        {
          "internalType": "address",
          "name": "_add",
          "type": "address"
        }
      ],
      "name": "setToken",
      "outputs": [],
      "stateMutability": "nonpayable",
      "type": "function"
    },
    {
      "inputs": [
        {
          "internalType": "bytes4",
          "name": "interfaceId",
          "type": "bytes4"
        }
      ],
      "name": "supportsInterface",
      "outputs": [
        {
          "internalType": "bool",
          "name": "",
          "type": "bool"
        }
      ],
      "stateMutability": "view",
      "type": "function"
    },
    {
      "inputs": [],
      "name": "symbol",
      "outputs": [
        {
          "internalType": "string",
          "name": "",
          "type": "string"
        }
      ],
      "stateMutability": "view",
      "type": "function"
    },
    {
      "inputs": [
        {
          "internalType": "uint256",
          "name": "tokenId",
          "type": "uint256"
        }
      ],
      "name": "tokenURI",
      "outputs": [
        {
          "internalType": "string",
          "name": "",
          "type": "string"
        }
      ],
      "stateMutability": "view",
      "type": "function"
    },
    {
      "inputs": [
        {
          "internalType": "address",
          "name": "from",
          "type": "address"
        },
        {
          "internalType": "address",
          "name": "to",
          "type": "address"
        },
        {
          "internalType": "uint256",
          "name": "tokenId",
          "type": "uint256"
        }
      ],
      "name": "transferFrom",
      "outputs": [],
      "stateMutability": "nonpayable",
      "type": "function"
    },
    {
      "inputs": [
        {
          "internalType": "address",
          "name": "newOwner",
          "type": "address"
        }
      ],
      "name": "transferOwnership",
      "outputs": [],
      "stateMutability": "nonpayable",
      "type": "function"
    }
  ],
  "bytecode": "0x60806040526000600f553480156200001657600080fd5b50604051620045cf380380620045cf83398181016040528101906200003c9190620003b3565b81816200005e620000526200009a60201b60201c565b620000a260201b60201c565b81600190805190602001906200007692919062000166565b5080600290805190602001906200008f92919062000166565b50505050506200049d565b600033905090565b60008060009054906101000a900473ffffffffffffffffffffffffffffffffffffffff169050816000806101000a81548173ffffffffffffffffffffffffffffffffffffffff021916908373ffffffffffffffffffffffffffffffffffffffff1602179055508173ffffffffffffffffffffffffffffffffffffffff168173ffffffffffffffffffffffffffffffffffffffff167f8be0079c531659141344cd1fd0a4f28419497f9722a3daafe3b4186f6b6457e060405160405180910390a35050565b828054620001749062000467565b90600052602060002090601f016020900481019282620001985760008555620001e4565b82601f10620001b357805160ff1916838001178555620001e4565b82800160010185558215620001e4579182015b82811115620001e3578251825591602001919060010190620001c6565b5b509050620001f39190620001f7565b5090565b5b8082111562000212576000816000905550600101620001f8565b5090565b6000604051905090565b600080fd5b600080fd5b600080fd5b600080fd5b6000601f19601f8301169050919050565b7f4e487b7100000000000000000000000000000000000000000000000000000000600052604160045260246000fd5b6200027f8262000234565b810181811067ffffffffffffffff82111715620002a157620002a062000245565b5b80604052505050565b6000620002b662000216565b9050620002c4828262000274565b919050565b600067ffffffffffffffff821115620002e757620002e662000245565b5b620002f28262000234565b9050602081019050919050565b60005b838110156200031f57808201518184015260208101905062000302565b838111156200032f576000848401525b50505050565b60006200034c6200034684620002c9565b620002aa565b9050828152602081018484840111156200036b576200036a6200022f565b5b62000378848285620002ff565b509392505050565b600082601f8301126200039857620003976200022a565b5b8151620003aa84826020860162000335565b91505092915050565b60008060408385031215620003cd57620003cc62000220565b5b600083015167ffffffffffffffff811115620003ee57620003ed62000225565b5b620003fc8582860162000380565b925050602083015167ffffffffffffffff81111562000420576200041f62000225565b5b6200042e8582860162000380565b9150509250929050565b7f4e487b7100000000000000000000000000000000000000000000000000000000600052602260045260246000fd5b600060028204905060018216806200048057607f821691505b6020821081141562000497576200049662000438565b5b50919050565b61412280620004ad6000396000f3fe608060405234801561001057600080fd5b50600436106101da5760003560e01c806370a0823111610104578063a22cb465116100a2578063c87b56dd11610071578063c87b56dd1461057b578063ce51680f146105ab578063e985e9c5146105c9578063f2fde38b146105f9576101da565b8063a22cb465146104f5578063aad178ea14610511578063b443ebbb1461052f578063b88d4fde1461055f576101da565b80637ec9360c116100de5780637ec9360c146104595780638da5cb5b1461048957806392b55f25146104a757806395d89b41146104d7576101da565b806370a0823114610403578063715018a6146104335780637d7ac78a1461043d576101da565b8063144fa6d71161017c578063458aa7fb1161014b578063458aa7fb1461036957806349fe6dad146103855780636352211e146103b55780636d8cb932146103e5576101da565b8063144fa6d7146102f757806323b872dd14610313578063309e5eb11461032f57806342842e0e1461034d576101da565b8063081812fc116101b8578063081812fc1461025d578063095ea7b31461028d578063097553cb146102a95780630b1107c0146102db576101da565b806301ffc9a7146101df57806306fdde031461020f57806307c1833f1461022d575b600080fd5b6101f960048036038101906101f49190612b1c565b610615565b6040516102069190612b64565b60405180910390f35b6102176106f7565b6040516102249190612c18565b60405180910390f35b61024760048036038101906102429190612c98565b610789565b6040516102549190612cde565b60405180910390f35b61027760048036038101906102729190612d25565b6107a1565b6040516102849190612d61565b60405180910390f35b6102a760048036038101906102a29190612d7c565b6107e7565b005b6102c360048036038101906102be9190612d25565b6108ff565b6040516102d293929190612dbc565b60405180910390f35b6102f560048036038101906102f09190612d25565b610946565b005b610311600480360381019061030c9190612c98565b610bcc565b005b61032d60048036038101906103289190612df3565b610c18565b005b610337610c78565b6040516103449190612ea5565b60405180910390f35b61036760048036038101906103629190612df3565b610c9e565b005b610383600480360381019061037e9190612c98565b610cbe565b005b61039f600480360381019061039a9190612d25565b610d0a565b6040516103ac9190612cde565b60405180910390f35b6103cf60048036038101906103ca9190612d25565b610d22565b6040516103dc9190612d61565b60405180910390f35b6103ed610dd4565b6040516103fa9190612cde565b60405180910390f35b61041d60048036038101906104189190612c98565b610e1b565b60405161042a9190612cde565b60405180910390f35b61043b610ed3565b005b61045760048036038101906104529190612d25565b610ee7565b005b610473600480360381019061046e9190612d25565b61103d565b6040516104809190612cde565b60405180910390f35b61049161106c565b60405161049e9190612d61565b60405180910390f35b6104c160048036038101906104bc9190612c98565b611095565b6040516104ce9190612cde565b60405180910390f35b6104df6110ad565b6040516104ec9190612c18565b60405180910390f35b61050f600480360381019061050a9190612eec565b61113f565b005b610519611155565b6040516105269190612fea565b60405180910390f35b61054960048036038101906105449190612d25565b61129b565b6040516105569190612d61565b60405180910390f35b61057960048036038101906105749190613141565b6112ce565b005b61059560048036038101906105909190612d25565b611330565b6040516105a29190612c18565b60405180910390f35b6105b3611398565b6040516105c09190612cde565b60405180910390f35b6105e360048036038101906105de91906131c4565b6114dd565b6040516105f09190612b64565b60405180910390f35b610613600480360381019061060e9190612c98565b611571565b005b60007f80ac58cd000000000000000000000000000000000000000000000000000000007bffffffffffffffffffffffffffffffffffffffffffffffffffffffff1916827bffffffffffffffffffffffffffffffffffffffffffffffffffffffff191614806106e057507f5b5e139f000000000000000000000000000000000000000000000000000000007bffffffffffffffffffffffffffffffffffffffffffffffffffffffff1916827bffffffffffffffffffffffffffffffffffffffffffffffffffffffff1916145b806106f057506106ef826115f5565b5b9050919050565b60606001805461070690613233565b80601f016020809104026020016040519081016040528092919081815260200182805461073290613233565b801561077f5780601f106107545761010080835404028352916020019161077f565b820191906000526020600020905b81548152906001019060200180831161076257829003601f168201915b5050505050905090565b600c6020528060005260406000206000915090505481565b60006107ac8261165f565b6005600083815260200190815260200160002060009054906101000a900473ffffffffffffffffffffffffffffffffffffffff169050919050565b60006107f282610d22565b90508073ffffffffffffffffffffffffffffffffffffffff168373ffffffffffffffffffffffffffffffffffffffff161415610863576040517f08c379a000000000000000000000000000000000000000000000000000000000815260040161085a906132d7565b60405180910390fd5b8073ffffffffffffffffffffffffffffffffffffffff166108826116aa565b73ffffffffffffffffffffffffffffffffffffffff1614806108b157506108b0816108ab6116aa565b6114dd565b5b6108f0576040517f08c379a00000000000000000000000000000000000000000000000000000000081526004016108e790613369565b60405180910390fd5b6108fa83836116b2565b505050565b600a818154811061090f57600080fd5b90600052602060002090600302016000915090508060000154908060010154908060020160009054906101000a900460ff16905083565b3373ffffffffffffffffffffffffffffffffffffffff16600b600083815260200190815260200160002060009054906101000a900473ffffffffffffffffffffffffffffffffffffffff1673ffffffffffffffffffffffffffffffffffffffff16146109e7576040517f08c379a00000000000000000000000000000000000000000000000000000000081526004016109de906133d5565b60405180910390fd5b60001515600a82815481106109ff576109fe6133f5565b5b906000526020600020906003020160020160009054906101000a900460ff16151514610a60576040517f08c379a0000000000000000000000000000000000000000000000000000000008152600401610a5790613470565b60405180910390fd5b60004290506000600a8381548110610a7b57610a7a6133f5565b5b90600052602060002090600302016000015490506000600a8481548110610aa557610aa46133f5565b5b90600052602060002090600302016001015490506000610ac48361176b565b90506001811415610bc457600760009054906101000a900473ffffffffffffffffffffffffffffffffffffffff1673ffffffffffffffffffffffffffffffffffffffff166323b872dd3033856040518463ffffffff1660e01b8152600401610b2e93929190613490565b602060405180830381600087803b158015610b4857600080fd5b505af1158015610b5c573d6000803e3d6000fd5b505050506040513d601f19601f82011682018060405250810190610b8091906134dc565b610bbf576040517f08c379a0000000000000000000000000000000000000000000000000000000008152600401610bb690613555565b60405180910390fd5b610bc5565b5b5050505050565b610bd4611818565b80600760006101000a81548173ffffffffffffffffffffffffffffffffffffffff021916908373ffffffffffffffffffffffffffffffffffffffff16021790555050565b610c29610c236116aa565b82611896565b610c68576040517f08c379a0000000000000000000000000000000000000000000000000000000008152600401610c5f906135e7565b60405180910390fd5b610c7383838361192b565b505050565b600760009054906101000a900473ffffffffffffffffffffffffffffffffffffffff1681565b610cb9838383604051806020016040528060008152506112ce565b505050565b610cc6611818565b80600860006101000a81548173ffffffffffffffffffffffffffffffffffffffff021916908373ffffffffffffffffffffffffffffffffffffffff16021790555050565b600e6020528060005260406000206000915090505481565b6000806003600084815260200190815260200160002060009054906101000a900473ffffffffffffffffffffffffffffffffffffffff169050600073ffffffffffffffffffffffffffffffffffffffff168173ffffffffffffffffffffffffffffffffffffffff161415610dcb576040517f08c379a0000000000000000000000000000000000000000000000000000000008152600401610dc290613653565b60405180910390fd5b80915050919050565b6000600d60003373ffffffffffffffffffffffffffffffffffffffff1673ffffffffffffffffffffffffffffffffffffffff16815260200190815260200160002054905090565b60008073ffffffffffffffffffffffffffffffffffffffff168273ffffffffffffffffffffffffffffffffffffffff161415610e8c576040517f08c379a0000000000000000000000000000000000000000000000000000000008152600401610e83906136e5565b60405180910390fd5b600460008373ffffffffffffffffffffffffffffffffffffffff1673ffffffffffffffffffffffffffffffffffffffff168152602001908152602001600020549050919050565b610edb611818565b610ee56000611b92565b565b600060029050600033905060011515610f008483611c56565b151514610f42576040517f08c379a0000000000000000000000000000000000000000000000000000000008152600401610f3990613751565b60405180910390fd5b81610f4c84611d0d565b1015610f8d576040517f08c379a0000000000000000000000000000000000000000000000000000000008152600401610f84906137bd565b60405180910390fd5b60011515610f9a84611dc1565b151514610fdc576040517f08c379a0000000000000000000000000000000000000000000000000000000008152600401610fd390613829565b60405180910390fd5b610fe583611e75565b421015611027576040517f08c379a000000000000000000000000000000000000000000000000000000000815260040161101e90613895565b60405180910390fd5b61102f611f29565b611038836120db565b505050565b6000600a8281548110611053576110526133f5565b5b9060005260206000209060030201600101549050919050565b60008060009054906101000a900473ffffffffffffffffffffffffffffffffffffffff16905090565b600d6020528060005260406000206000915090505481565b6060600280546110bc90613233565b80601f01602080910402602001604051908101604052809291908181526020018280546110e890613233565b80156111355780601f1061110a57610100808354040283529160200191611135565b820191906000526020600020905b81548152906001019060200180831161111857829003601f168201915b5050505050905090565b61115161114a6116aa565b838361216b565b5050565b6060600080600d60003373ffffffffffffffffffffffffffffffffffffffff1673ffffffffffffffffffffffffffffffffffffffff1681526020019081526020016000205467ffffffffffffffff8111156111b3576111b2613016565b5b6040519080825280602002602001820160405280156111e15781602001602082028036833780820191505090505b50905060005b600a80549050811015611292573373ffffffffffffffffffffffffffffffffffffffff16600b600083815260200190815260200160002060009054906101000a900473ffffffffffffffffffffffffffffffffffffffff1673ffffffffffffffffffffffffffffffffffffffff161461125f57600080fd5b80828481518110611273576112726133f5565b5b602002602001018181525050808061128a906138e4565b9150506111e7565b50809250505090565b600b6020528060005260406000206000915054906101000a900473ffffffffffffffffffffffffffffffffffffffff1681565b6112df6112d96116aa565b83611896565b61131e576040517f08c379a0000000000000000000000000000000000000000000000000000000008152600401611315906135e7565b60405180910390fd5b61132a848484846122d8565b50505050565b606061133b8261165f565b6000611345612334565b905060008151116113655760405180602001604052806000815250611390565b8061136f8461234b565b604051602001611380929190613969565b6040516020818303038152906040525b915050919050565b60008060005b600a805490508110156114d5573373ffffffffffffffffffffffffffffffffffffffff16600b600083815260200190815260200160002060009054906101000a900473ffffffffffffffffffffffffffffffffffffffff1673ffffffffffffffffffffffffffffffffffffffff161461141657600080fd5b60001515600a828154811061142e5761142d6133f5565b5b906000526020600020906003020160020160009054906101000a900460ff1615151461148f576040517f08c379a0000000000000000000000000000000000000000000000000000000008152600401611486906139ff565b60405180910390fd5b600a81815481106114a3576114a26133f5565b5b906000526020600020906003020160010154826114c09190613a1f565b915080806114cd906138e4565b91505061139e565b508091505090565b6000600660008473ffffffffffffffffffffffffffffffffffffffff1673ffffffffffffffffffffffffffffffffffffffff16815260200190815260200160002060008373ffffffffffffffffffffffffffffffffffffffff1673ffffffffffffffffffffffffffffffffffffffff16815260200190815260200160002060009054906101000a900460ff16905092915050565b611579611818565b600073ffffffffffffffffffffffffffffffffffffffff168173ffffffffffffffffffffffffffffffffffffffff1614156115e9576040517f08c379a00000000000000000000000000000000000000000000000000000000081526004016115e090613ae7565b60405180910390fd5b6115f281611b92565b50565b60007f01ffc9a7000000000000000000000000000000000000000000000000000000007bffffffffffffffffffffffffffffffffffffffffffffffffffffffff1916827bffffffffffffffffffffffffffffffffffffffffffffffffffffffff1916149050919050565b611668816124ac565b6116a7576040517f08c379a000000000000000000000000000000000000000000000000000000000815260040161169e90613653565b60405180910390fd5b50565b600033905090565b816005600083815260200190815260200160002060006101000a81548173ffffffffffffffffffffffffffffffffffffffff021916908373ffffffffffffffffffffffffffffffffffffffff160217905550808273ffffffffffffffffffffffffffffffffffffffff1661172583610d22565b73ffffffffffffffffffffffffffffffffffffffff167f8c5be1e5ebec7d5bd14f71427d1e84f3dd0314c0f7b2291e5b200ac8c7c3b92560405160405180910390a45050565b600080824261177a9190613b07565b90506000621275008210611791576001905061180e565b6201518082106117a4576046905061180d565b6203f48082106117b757603c905061180c565b6207e90082106117ca576032905061180b565b620a8c0082106117dd576028905061180a565b620d2f0082106117f057601e9050611809565b620fd20082106118035760149050611808565b605090505b5b5b5b5b5b5b8092505050919050565b6118206116aa565b73ffffffffffffffffffffffffffffffffffffffff1661183e61106c565b73ffffffffffffffffffffffffffffffffffffffff1614611894576040517f08c379a000000000000000000000000000000000000000000000000000000000815260040161188b90613b87565b60405180910390fd5b565b6000806118a283610d22565b90508073ffffffffffffffffffffffffffffffffffffffff168473ffffffffffffffffffffffffffffffffffffffff1614806118e457506118e381856114dd565b5b8061192257508373ffffffffffffffffffffffffffffffffffffffff1661190a846107a1565b73ffffffffffffffffffffffffffffffffffffffff16145b91505092915050565b8273ffffffffffffffffffffffffffffffffffffffff1661194b82610d22565b73ffffffffffffffffffffffffffffffffffffffff16146119a1576040517f08c379a000000000000000000000000000000000000000000000000000000000815260040161199890613c19565b60405180910390fd5b600073ffffffffffffffffffffffffffffffffffffffff168273ffffffffffffffffffffffffffffffffffffffff161415611a11576040517f08c379a0000000000000000000000000000000000000000000000000000000008152600401611a0890613cab565b60405180910390fd5b611a1c838383612518565b611a276000826116b2565b6001600460008573ffffffffffffffffffffffffffffffffffffffff1673ffffffffffffffffffffffffffffffffffffffff1681526020019081526020016000206000828254611a779190613b07565b925050819055506001600460008473ffffffffffffffffffffffffffffffffffffffff1673ffffffffffffffffffffffffffffffffffffffff1681526020019081526020016000206000828254611ace9190613a1f565b92505081905550816003600083815260200190815260200160002060006101000a81548173ffffffffffffffffffffffffffffffffffffffff021916908373ffffffffffffffffffffffffffffffffffffffff160217905550808273ffffffffffffffffffffffffffffffffffffffff168473ffffffffffffffffffffffffffffffffffffffff167fddf252ad1be2c89b69c2b068fc378daa952ba7f163c4a11628f55a4df523b3ef60405160405180910390a4611b8d83838361251d565b505050565b60008060009054906101000a900473ffffffffffffffffffffffffffffffffffffffff169050816000806101000a81548173ffffffffffffffffffffffffffffffffffffffff021916908373ffffffffffffffffffffffffffffffffffffffff1602179055508173ffffffffffffffffffffffffffffffffffffffff168173ffffffffffffffffffffffffffffffffffffffff167f8be0079c531659141344cd1fd0a4f28419497f9722a3daafe3b4186f6b6457e060405160405180910390a35050565b6000600860009054906101000a900473ffffffffffffffffffffffffffffffffffffffff1673ffffffffffffffffffffffffffffffffffffffff16631fbb19e084846040518363ffffffff1660e01b8152600401611cb5929190613ccb565b60206040518083038186803b158015611ccd57600080fd5b505afa158015611ce1573d6000803e3d6000fd5b505050506040513d601f19601f82011682018060405250810190611d0591906134dc565b905092915050565b6000600860009054906101000a900473ffffffffffffffffffffffffffffffffffffffff1673ffffffffffffffffffffffffffffffffffffffff16634dc7bd4e836040518263ffffffff1660e01b8152600401611d6a9190612cde565b60206040518083038186803b158015611d8257600080fd5b505afa158015611d96573d6000803e3d6000fd5b505050506040513d601f19601f82011682018060405250810190611dba9190613d09565b9050919050565b6000600860009054906101000a900473ffffffffffffffffffffffffffffffffffffffff1673ffffffffffffffffffffffffffffffffffffffff16630aa25c33836040518263ffffffff1660e01b8152600401611e1e9190612cde565b60206040518083038186803b158015611e3657600080fd5b505afa158015611e4a573d6000803e3d6000fd5b505050506040513d601f19601f82011682018060405250810190611e6e91906134dc565b9050919050565b6000600860009054906101000a900473ffffffffffffffffffffffffffffffffffffffff1673ffffffffffffffffffffffffffffffffffffffff1663d9434b87836040518263ffffffff1660e01b8152600401611ed29190612cde565b60206040518083038186803b158015611eea57600080fd5b505afa158015611efe573d6000803e3d6000fd5b505050506040513d601f19601f82011682018060405250810190611f229190613d09565b9050919050565b6000600f905060006040518060600160405280428152602001600f8152602001600015158152509050600a819080600181540180825580915050600190039060005260206000209060030201600090919091909150600082015181600001556020820151816001015560408201518160020160006101000a81548160ff0219169083151502179055505050611fc033600f54612522565b33600b6000600f54815260200190815260200160002060006101000a81548173ffffffffffffffffffffffffffffffffffffffff021916908373ffffffffffffffffffffffffffffffffffffffff160217905550600d60003373ffffffffffffffffffffffffffffffffffffffff1673ffffffffffffffffffffffffffffffffffffffff1681526020019081526020016000206000815480929190612064906138e4565b919050555081600c60003373ffffffffffffffffffffffffffffffffffffffff1673ffffffffffffffffffffffffffffffffffffffff16815260200190815260200160002060008282546120b89190613a1f565b92505081905550600f60008154809291906120d2906138e4565b91905055505050565b600860009054906101000a900473ffffffffffffffffffffffffffffffffffffffff1673ffffffffffffffffffffffffffffffffffffffff16634a98e789826040518263ffffffff1660e01b81526004016121369190612cde565b600060405180830381600087803b15801561215057600080fd5b505af1158015612164573d6000803e3d6000fd5b5050505050565b8173ffffffffffffffffffffffffffffffffffffffff168373ffffffffffffffffffffffffffffffffffffffff1614156121da576040517f08c379a00000000000000000000000000000000000000000000000000000000081526004016121d190613d82565b60405180910390fd5b80600660008573ffffffffffffffffffffffffffffffffffffffff1673ffffffffffffffffffffffffffffffffffffffff16815260200190815260200160002060008473ffffffffffffffffffffffffffffffffffffffff1673ffffffffffffffffffffffffffffffffffffffff16815260200190815260200160002060006101000a81548160ff0219169083151502179055508173ffffffffffffffffffffffffffffffffffffffff168373ffffffffffffffffffffffffffffffffffffffff167f17307eab39ab6107e8899845ad3d59bd9653f200f220920489ca2b5937696c31836040516122cb9190612b64565b60405180910390a3505050565b6122e384848461192b565b6122ef8484848461257b565b61232e576040517f08c379a000000000000000000000000000000000000000000000000000000000815260040161232590613e14565b60405180910390fd5b50505050565b606060405180602001604052806000815250905090565b60606000821415612393576040518060400160405280600181526020017f300000000000000000000000000000000000000000000000000000000000000081525090506124a7565b600082905060005b600082146123c55780806123ae906138e4565b915050600a826123be9190613e63565b915061239b565b60008167ffffffffffffffff8111156123e1576123e0613016565b5b6040519080825280601f01601f1916602001820160405280156124135781602001600182028036833780820191505090505b5090505b600085146124a05760018261242c9190613b07565b9150600a8561243b9190613e94565b60306124479190613a1f565b60f81b81838151811061245d5761245c6133f5565b5b60200101907effffffffffffffffffffffffffffffffffffffffffffffffffffffffffffff1916908160001a905350600a856124999190613e63565b9450612417565b8093505050505b919050565b60008073ffffffffffffffffffffffffffffffffffffffff166003600084815260200190815260200160002060009054906101000a900473ffffffffffffffffffffffffffffffffffffffff1673ffffffffffffffffffffffffffffffffffffffff1614159050919050565b505050565b505050565b61252c8282612712565b612538600083836128ec565b612577576040517f08c379a000000000000000000000000000000000000000000000000000000000815260040161256e90613f11565b60405180910390fd5b5050565b600061259c8473ffffffffffffffffffffffffffffffffffffffff16612a6a565b15612705578373ffffffffffffffffffffffffffffffffffffffff1663150b7a026125c56116aa565b8786866040518563ffffffff1660e01b81526004016125e79493929190613f86565b602060405180830381600087803b15801561260157600080fd5b505af192505050801561263257506040513d601f19601f8201168201806040525081019061262f9190613fe7565b60015b6126b5573d8060008114612662576040519150601f19603f3d011682016040523d82523d6000602084013e612667565b606091505b506000815114156126ad576040517f08c379a00000000000000000000000000000000000000000000000000000000081526004016126a490613e14565b60405180910390fd5b805181602001fd5b63150b7a0260e01b7bffffffffffffffffffffffffffffffffffffffffffffffffffffffff1916817bffffffffffffffffffffffffffffffffffffffffffffffffffffffff19161491505061270a565b600190505b949350505050565b600073ffffffffffffffffffffffffffffffffffffffff168273ffffffffffffffffffffffffffffffffffffffff161415612782576040517f08c379a000000000000000000000000000000000000000000000000000000000815260040161277990614060565b60405180910390fd5b61278b816124ac565b156127cb576040517f08c379a00000000000000000000000000000000000000000000000000000000081526004016127c2906140cc565b60405180910390fd5b6127d760008383612518565b6001600460008473ffffffffffffffffffffffffffffffffffffffff1673ffffffffffffffffffffffffffffffffffffffff16815260200190815260200160002060008282546128279190613a1f565b92505081905550816003600083815260200190815260200160002060006101000a81548173ffffffffffffffffffffffffffffffffffffffff021916908373ffffffffffffffffffffffffffffffffffffffff160217905550808273ffffffffffffffffffffffffffffffffffffffff16600073ffffffffffffffffffffffffffffffffffffffff167fddf252ad1be2c89b69c2b068fc378daa952ba7f163c4a11628f55a4df523b3ef60405160405180910390a46128e86000838361251d565b5050565b60006128f783612a8d565b15612a5e578273ffffffffffffffffffffffffffffffffffffffff1663eeafbddc6129206116aa565b86856040518463ffffffff1660e01b815260040161294093929190613490565b602060405180830381600087803b15801561295a57600080fd5b505af192505050801561298b57506040513d601f19601f820116820180604052508101906129889190613fe7565b60015b612a0e573d80600081146129bb576040519150601f19603f3d011682016040523d82523d6000602084013e6129c0565b606091505b50600081511415612a06576040517f08c379a00000000000000000000000000000000000000000000000000000000081526004016129fd90613e14565b60405180910390fd5b805181602001fd5b63150b7a0260e01b7bffffffffffffffffffffffffffffffffffffffffffffffffffffffff1916817bffffffffffffffffffffffffffffffffffffffffffffffffffffffff191614915050612a63565b600190505b9392505050565b6000808273ffffffffffffffffffffffffffffffffffffffff163b119050919050565b6000808273ffffffffffffffffffffffffffffffffffffffff163b119050919050565b6000604051905090565b600080fd5b600080fd5b60007fffffffff0000000000000000000000000000000000000000000000000000000082169050919050565b612af981612ac4565b8114612b0457600080fd5b50565b600081359050612b1681612af0565b92915050565b600060208284031215612b3257612b31612aba565b5b6000612b4084828501612b07565b91505092915050565b60008115159050919050565b612b5e81612b49565b82525050565b6000602082019050612b796000830184612b55565b92915050565b600081519050919050565b600082825260208201905092915050565b60005b83811015612bb9578082015181840152602081019050612b9e565b83811115612bc8576000848401525b50505050565b6000601f19601f8301169050919050565b6000612bea82612b7f565b612bf48185612b8a565b9350612c04818560208601612b9b565b612c0d81612bce565b840191505092915050565b60006020820190508181036000830152612c328184612bdf565b905092915050565b600073ffffffffffffffffffffffffffffffffffffffff82169050919050565b6000612c6582612c3a565b9050919050565b612c7581612c5a565b8114612c8057600080fd5b50565b600081359050612c9281612c6c565b92915050565b600060208284031215612cae57612cad612aba565b5b6000612cbc84828501612c83565b91505092915050565b6000819050919050565b612cd881612cc5565b82525050565b6000602082019050612cf36000830184612ccf565b92915050565b612d0281612cc5565b8114612d0d57600080fd5b50565b600081359050612d1f81612cf9565b92915050565b600060208284031215612d3b57612d3a612aba565b5b6000612d4984828501612d10565b91505092915050565b612d5b81612c5a565b82525050565b6000602082019050612d766000830184612d52565b92915050565b60008060408385031215612d9357612d92612aba565b5b6000612da185828601612c83565b9250506020612db285828601612d10565b9150509250929050565b6000606082019050612dd16000830186612ccf565b612dde6020830185612ccf565b612deb6040830184612b55565b949350505050565b600080600060608486031215612e0c57612e0b612aba565b5b6000612e1a86828701612c83565b9350506020612e2b86828701612c83565b9250506040612e3c86828701612d10565b9150509250925092565b6000819050919050565b6000612e6b612e66612e6184612c3a565b612e46565b612c3a565b9050919050565b6000612e7d82612e50565b9050919050565b6000612e8f82612e72565b9050919050565b612e9f81612e84565b82525050565b6000602082019050612eba6000830184612e96565b92915050565b612ec981612b49565b8114612ed457600080fd5b50565b600081359050612ee681612ec0565b92915050565b60008060408385031215612f0357612f02612aba565b5b6000612f1185828601612c83565b9250506020612f2285828601612ed7565b9150509250929050565b600081519050919050565b600082825260208201905092915050565b6000819050602082019050919050565b612f6181612cc5565b82525050565b6000612f738383612f58565b60208301905092915050565b6000602082019050919050565b6000612f9782612f2c565b612fa18185612f37565b9350612fac83612f48565b8060005b83811015612fdd578151612fc48882612f67565b9750612fcf83612f7f565b925050600181019050612fb0565b5085935050505092915050565b600060208201905081810360008301526130048184612f8c565b905092915050565b600080fd5b600080fd5b7f4e487b7100000000000000000000000000000000000000000000000000000000600052604160045260246000fd5b61304e82612bce565b810181811067ffffffffffffffff8211171561306d5761306c613016565b5b80604052505050565b6000613080612ab0565b905061308c8282613045565b919050565b600067ffffffffffffffff8211156130ac576130ab613016565b5b6130b582612bce565b9050602081019050919050565b82818337600083830152505050565b60006130e46130df84613091565b613076565b905082815260208101848484011115613100576130ff613011565b5b61310b8482856130c2565b509392505050565b600082601f8301126131285761312761300c565b5b81356131388482602086016130d1565b91505092915050565b6000806000806080858703121561315b5761315a612aba565b5b600061316987828801612c83565b945050602061317a87828801612c83565b935050604061318b87828801612d10565b925050606085013567ffffffffffffffff8111156131ac576131ab612abf565b5b6131b887828801613113565b91505092959194509250565b600080604083850312156131db576131da612aba565b5b60006131e985828601612c83565b92505060206131fa85828601612c83565b9150509250929050565b7f4e487b7100000000000000000000000000000000000000000000000000000000600052602260045260246000fd5b6000600282049050600182168061324b57607f821691505b6020821081141561325f5761325e613204565b5b50919050565b7f4552433732313a20617070726f76616c20746f2063757272656e74206f776e6560008201527f7200000000000000000000000000000000000000000000000000000000000000602082015250565b60006132c1602183612b8a565b91506132cc82613265565b604082019050919050565b600060208201905081810360008301526132f0816132b4565b9050919050565b7f4552433732313a20617070726f76652063616c6c6572206973206e6f7420746f60008201527f6b656e206f776e6572206e6f7220617070726f76656420666f7220616c6c0000602082015250565b6000613353603e83612b8a565b915061335e826132f7565b604082019050919050565b6000602082019050818103600083015261338281613346565b9050919050565b7f54686973206973206e6f7420796f75722074616e6b2e00000000000000000000600082015250565b60006133bf601683612b8a565b91506133ca82613389565b602082019050919050565b600060208201905081810360008301526133ee816133b2565b9050919050565b7f4e487b7100000000000000000000000000000000000000000000000000000000600052603260045260246000fd5b7f546869732074616e6b20686173206265656e20636c61696d656420616c720000600082015250565b600061345a601e83612b8a565b915061346582613424565b602082019050919050565b600060208201905081810360008301526134898161344d565b9050919050565b60006060820190506134a56000830186612d52565b6134b26020830185612d52565b6134bf6040830184612ccf565b949350505050565b6000815190506134d681612ec0565b92915050565b6000602082840312156134f2576134f1612aba565b5b6000613500848285016134c7565b91505092915050565b7f5472616e73666572204661696c65640000000000000000000000000000000000600082015250565b600061353f600f83612b8a565b915061354a82613509565b602082019050919050565b6000602082019050818103600083015261356e81613532565b9050919050565b7f4552433732313a2063616c6c6572206973206e6f7420746f6b656e206f776e6560008201527f72206e6f7220617070726f766564000000000000000000000000000000000000602082015250565b60006135d1602e83612b8a565b91506135dc82613575565b604082019050919050565b60006020820190508181036000830152613600816135c4565b9050919050565b7f4552433732313a20696e76616c696420746f6b656e2049440000000000000000600082015250565b600061363d601883612b8a565b915061364882613607565b602082019050919050565b6000602082019050818103600083015261366c81613630565b9050919050565b7f4552433732313a2061646472657373207a65726f206973206e6f74206120766160008201527f6c6964206f776e65720000000000000000000000000000000000000000000000602082015250565b60006136cf602983612b8a565b91506136da82613673565b604082019050919050565b600060208201905081810360008301526136fe816136c2565b9050919050565b7f54686973206973206e6f7420796f75722073717561642e000000000000000000600082015250565b600061373b601783612b8a565b915061374682613705565b602082019050919050565b6000602082019050818103600083015261376a8161372e565b9050919050565b7f596f752061726520746f6f207765616b20666f72207468697320636974792e00600082015250565b60006137a7601f83612b8a565b91506137b282613771565b602082019050919050565b600060208201905081810360008301526137d68161379a565b9050919050565b7f5468697320737175616420686173206265656e2064697373617361626c65642e600082015250565b6000613813602083612b8a565b915061381e826137dd565b602082019050919050565b6000602082019050818103600083015261384281613806565b9050919050565b7f497473206e6f74206265656e206120646179207965742e000000000000000000600082015250565b600061387f601783612b8a565b915061388a82613849565b602082019050919050565b600060208201905081810360008301526138ae81613872565b9050919050565b7f4e487b7100000000000000000000000000000000000000000000000000000000600052601160045260246000fd5b60006138ef82612cc5565b91507fffffffffffffffffffffffffffffffffffffffffffffffffffffffffffffffff821415613922576139216138b5565b5b600182019050919050565b600081905092915050565b600061394382612b7f565b61394d818561392d565b935061395d818560208601612b9b565b80840191505092915050565b60006139758285613938565b91506139818284613938565b91508190509392505050565b7f5468657365206172652074686520636c61696d6564206f6e657320796f75206d60008201527f69676874206265206c6f6f6b20666f722e000000000000000000000000000000602082015250565b60006139e9603183612b8a565b91506139f48261398d565b604082019050919050565b60006020820190508181036000830152613a18816139dc565b9050919050565b6000613a2a82612cc5565b9150613a3583612cc5565b9250827fffffffffffffffffffffffffffffffffffffffffffffffffffffffffffffffff03821115613a6a57613a696138b5565b5b828201905092915050565b7f4f776e61626c653a206e6577206f776e657220697320746865207a65726f206160008201527f6464726573730000000000000000000000000000000000000000000000000000602082015250565b6000613ad1602683612b8a565b9150613adc82613a75565b604082019050919050565b60006020820190508181036000830152613b0081613ac4565b9050919050565b6000613b1282612cc5565b9150613b1d83612cc5565b925082821015613b3057613b2f6138b5565b5b828203905092915050565b7f4f776e61626c653a2063616c6c6572206973206e6f7420746865206f776e6572600082015250565b6000613b71602083612b8a565b9150613b7c82613b3b565b602082019050919050565b60006020820190508181036000830152613ba081613b64565b9050919050565b7f4552433732313a207472616e736665722066726f6d20696e636f72726563742060008201527f6f776e6572000000000000000000000000000000000000000000000000000000602082015250565b6000613c03602583612b8a565b9150613c0e82613ba7565b604082019050919050565b60006020820190508181036000830152613c3281613bf6565b9050919050565b7f4552433732313a207472616e7366657220746f20746865207a65726f2061646460008201527f7265737300000000000000000000000000000000000000000000000000000000602082015250565b6000613c95602483612b8a565b9150613ca082613c39565b604082019050919050565b60006020820190508181036000830152613cc481613c88565b9050919050565b6000604082019050613ce06000830185612ccf565b613ced6020830184612d52565b9392505050565b600081519050613d0381612cf9565b92915050565b600060208284031215613d1f57613d1e612aba565b5b6000613d2d84828501613cf4565b91505092915050565b7f4552433732313a20617070726f766520746f2063616c6c657200000000000000600082015250565b6000613d6c601983612b8a565b9150613d7782613d36565b602082019050919050565b60006020820190508181036000830152613d9b81613d5f565b9050919050565b7f4552433732313a207472616e7366657220746f206e6f6e20455243373231526560008201527f63656976657220696d706c656d656e7465720000000000000000000000000000602082015250565b6000613dfe603283612b8a565b9150613e0982613da2565b604082019050919050565b60006020820190508181036000830152613e2d81613df1565b9050919050565b7f4e487b7100000000000000000000000000000000000000000000000000000000600052601260045260246000fd5b6000613e6e82612cc5565b9150613e7983612cc5565b925082613e8957613e88613e34565b5b828204905092915050565b6000613e9f82612cc5565b9150613eaa83612cc5565b925082613eba57613eb9613e34565b5b828206905092915050565b7f6e6f7420746f6461790000000000000000000000000000000000000000000000600082015250565b6000613efb600983612b8a565b9150613f0682613ec5565b602082019050919050565b60006020820190508181036000830152613f2a81613eee565b9050919050565b600081519050919050565b600082825260208201905092915050565b6000613f5882613f31565b613f628185613f3c565b9350613f72818560208601612b9b565b613f7b81612bce565b840191505092915050565b6000608082019050613f9b6000830187612d52565b613fa86020830186612d52565b613fb56040830185612ccf565b8181036060830152613fc78184613f4d565b905095945050505050565b600081519050613fe181612af0565b92915050565b600060208284031215613ffd57613ffc612aba565b5b600061400b84828501613fd2565b91505092915050565b7f4552433732313a206d696e7420746f20746865207a65726f2061646472657373600082015250565b600061404a602083612b8a565b915061405582614014565b602082019050919050565b600060208201905081810360008301526140798161403d565b9050919050565b7f4552433732313a20746f6b656e20616c7265616479206d696e74656400000000600082015250565b60006140b6601c83612b8a565b91506140c182614080565b602082019050919050565b600060208201905081810360008301526140e5816140a9565b905091905056fea26469706673582212208bf6e2b42b5096fe4ff8188d8ee159926ffa81bfc367f100566c8c9365262bd164736f6c63430008090033",
  "linkReferences": {},
  "deployedLinkReferences": {}
}