{
  "_format": "hh-sol-artifact-1",
  "contractName": "ZombieMint",
  "sourceName": "contracts/zombieMint.sol",
  "abi": [
    {
      "inputs": [
        {
          "internalType": "string",
          "name": "_name",
          "type": "string"
        },
        {
          "internalType": "string",
          "name": "_symbol",
          "type": "string"
        }
      ],
      "stateMutability": "nonpayable",
      "type": "constructor"
    },
    {
      "anonymous": false,
      "inputs": [
        {
          "indexed": true,
          "internalType": "address",
          "name": "owner",
          "type": "address"
        },
        {
          "indexed": true,
          "internalType": "address",
          "name": "approved",
          "type": "address"
        },
        {
          "indexed": true,
          "internalType": "uint256",
          "name": "tokenId",
          "type": "uint256"
        }
      ],
      "name": "Approval",
      "type": "event"
    },
    {
      "anonymous": false,
      "inputs": [
        {
          "indexed": true,
          "internalType": "address",
          "name": "owner",
          "type": "address"
        },
        {
          "indexed": true,
          "internalType": "address",
          "name": "operator",
          "type": "address"
        },
        {
          "indexed": false,
          "internalType": "bool",
          "name": "approved",
          "type": "bool"
        }
      ],
      "name": "ApprovalForAll",
      "type": "event"
    },
    {
      "anonymous": false,
      "inputs": [
        {
          "indexed": true,
          "internalType": "address",
          "name": "previousOwner",
          "type": "address"
        },
        {
          "indexed": true,
          "internalType": "address",
          "name": "newOwner",
          "type": "address"
        }
      ],
      "name": "OwnershipTransferred",
      "type": "event"
    },
    {
      "anonymous": false,
      "inputs": [
        {
          "indexed": true,
          "internalType": "address",
          "name": "from",
          "type": "address"
        },
        {
          "indexed": true,
          "internalType": "address",
          "name": "to",
          "type": "address"
        },
        {
          "indexed": true,
          "internalType": "uint256",
          "name": "tokenId",
          "type": "uint256"
        }
      ],
      "name": "Transfer",
      "type": "event"
    },
    {
      "inputs": [],
      "name": "amount",
      "outputs": [
        {
          "internalType": "uint256",
          "name": "",
          "type": "uint256"
        }
      ],
      "stateMutability": "view",
      "type": "function"
    },
    {
      "inputs": [
        {
          "internalType": "address",
          "name": "to",
          "type": "address"
        },
        {
          "internalType": "uint256",
          "name": "tokenId",
          "type": "uint256"
        }
      ],
      "name": "approve",
      "outputs": [],
      "stateMutability": "nonpayable",
      "type": "function"
    },
    {
      "inputs": [],
      "name": "approveCoins",
      "outputs": [],
      "stateMutability": "nonpayable",
      "type": "function"
    },
    {
      "inputs": [],
      "name": "approveCoins2",
      "outputs": [],
      "stateMutability": "nonpayable",
      "type": "function"
    },
    {
      "inputs": [
        {
          "internalType": "address",
          "name": "owner",
          "type": "address"
        }
      ],
      "name": "balanceOf",
      "outputs": [
        {
          "internalType": "uint256",
          "name": "",
          "type": "uint256"
        }
      ],
      "stateMutability": "view",
      "type": "function"
    },
    {
      "inputs": [],
      "name": "brainPrice",
      "outputs": [
        {
          "internalType": "uint256",
          "name": "",
          "type": "uint256"
        }
      ],
      "stateMutability": "view",
      "type": "function"
    },
    {
      "inputs": [
        {
          "internalType": "uint256",
          "name": "",
          "type": "uint256"
        }
      ],
      "name": "cars",
      "outputs": [
        {
          "internalType": "uint256",
          "name": "dna",
          "type": "uint256"
        },
        {
          "internalType": "uint256",
          "name": "rairty",
          "type": "uint256"
        },
        {
          "internalType": "uint256",
          "name": "cap",
          "type": "uint256"
        },
        {
          "internalType": "uint256",
          "name": "counter",
          "type": "uint256"
        },
        {
          "internalType": "uint256",
          "name": "daily",
          "type": "uint256"
        }
      ],
      "stateMutability": "view",
      "type": "function"
    },
    {
      "inputs": [],
      "name": "checkAllowancee",
      "outputs": [
        {
          "internalType": "uint24",
          "name": "",
          "type": "uint24"
        }
      ],
      "stateMutability": "view",
      "type": "function"
    },
    {
      "inputs": [],
      "name": "checkAllowanceee",
      "outputs": [
        {
          "internalType": "uint256",
          "name": "",
          "type": "uint256"
        }
      ],
      "stateMutability": "view",
      "type": "function"
    },
    {
      "inputs": [],
      "name": "checkCoinBalance",
      "outputs": [
        {
          "internalType": "uint24",
          "name": "",
          "type": "uint24"
        }
      ],
      "stateMutability": "view",
      "type": "function"
    },
    {
      "inputs": [],
      "name": "checkCoinBalancee",
      "outputs": [
        {
          "internalType": "uint256",
          "name": "",
          "type": "uint256"
        }
      ],
      "stateMutability": "view",
      "type": "function"
    },
    {
      "inputs": [
        {
          "internalType": "uint256",
          "name": "x",
          "type": "uint256"
        }
      ],
      "name": "daily",
      "outputs": [
        {
          "internalType": "uint256",
          "name": "",
          "type": "uint256"
        }
      ],
      "stateMutability": "view",
      "type": "function"
    },
    {
      "inputs": [
        {
          "internalType": "uint256",
          "name": "_id",
          "type": "uint256"
        }
      ],
      "name": "fetchId",
      "outputs": [
        {
          "internalType": "address",
          "name": "",
          "type": "address"
        }
      ],
      "stateMutability": "view",
      "type": "function"
    },
    {
      "inputs": [
        {
          "internalType": "address",
          "name": "_add",
          "type": "address"
        }
      ],
      "name": "getAmount",
      "outputs": [
        {
          "internalType": "uint256",
          "name": "",
          "type": "uint256"
        }
      ],
      "stateMutability": "view",
      "type": "function"
    },
    {
      "inputs": [
        {
          "internalType": "uint256",
          "name": "tokenId",
          "type": "uint256"
        }
      ],
      "name": "getApproved",
      "outputs": [
        {
          "internalType": "address",
          "name": "",
          "type": "address"
        }
      ],
      "stateMutability": "view",
      "type": "function"
    },
    {
      "inputs": [],
      "name": "getIds",
      "outputs": [
        {
          "internalType": "uint24[]",
          "name": "",
          "type": "uint24[]"
        }
      ],
      "stateMutability": "view",
      "type": "function"
    },
    {
      "inputs": [],
      "name": "getOwnerLevels",
      "outputs": [
        {
          "internalType": "uint24[]",
          "name": "",
          "type": "uint24[]"
        }
      ],
      "stateMutability": "view",
      "type": "function"
    },
    {
      "inputs": [],
      "name": "getOwnerRarities",
      "outputs": [
        {
          "internalType": "uint24[]",
          "name": "",
          "type": "uint24[]"
        }
      ],
      "stateMutability": "view",
      "type": "function"
    },
    {
      "inputs": [
        {
          "internalType": "address",
          "name": "_owner",
          "type": "address"
        }
      ],
      "name": "getOwnerZombies",
      "outputs": [
        {
          "components": [
            {
              "internalType": "uint24",
              "name": "strength",
              "type": "uint24"
            },
            {
              "internalType": "uint24",
              "name": "counter",
              "type": "uint24"
            },
            {
              "internalType": "uint24",
              "name": "level",
              "type": "uint24"
            },
            {
              "internalType": "uint24",
              "name": "rarity",
              "type": "uint24"
            },
            {
              "internalType": "uint24",
              "name": "hunger",
              "type": "uint24"
            }
          ],
          "internalType": "struct ZombieMint.Zombie[]",
          "name": "",
          "type": "tuple[]"
        }
      ],
      "stateMutability": "view",
      "type": "function"
    },
    {
      "inputs": [
        {
          "internalType": "uint24",
          "name": "q",
          "type": "uint24"
        }
      ],
      "name": "getStuff",
      "outputs": [
        {
          "internalType": "uint24",
          "name": "",
          "type": "uint24"
        },
        {
          "internalType": "uint24",
          "name": "",
          "type": "uint24"
        },
        {
          "internalType": "uint24",
          "name": "",
          "type": "uint24"
        },
        {
          "internalType": "uint24",
          "name": "",
          "type": "uint24"
        }
      ],
      "stateMutability": "view",
      "type": "function"
    },
    {
      "inputs": [
        {
          "internalType": "uint24",
          "name": "q",
          "type": "uint24"
        }
      ],
      "name": "getStuffA",
      "outputs": [
        {
          "internalType": "uint24[]",
          "name": "",
          "type": "uint24[]"
        }
      ],
      "stateMutability": "view",
      "type": "function"
    },
    {
      "inputs": [],
      "name": "getStuffB",
      "outputs": [
        {
          "internalType": "uint24[]",
          "name": "",
          "type": "uint24[]"
        }
      ],
      "stateMutability": "view",
      "type": "function"
    },
    {
      "inputs": [
        {
          "internalType": "address",
          "name": "",
          "type": "address"
        }
      ],
      "name": "howMany",
      "outputs": [
        {
          "internalType": "uint256",
          "name": "",
          "type": "uint256"
        }
      ],
      "stateMutability": "view",
      "type": "function"
    },
    {
      "inputs": [
        {
          "internalType": "uint256",
          "name": "",
          "type": "uint256"
        }
      ],
      "name": "idOwner",
      "outputs": [
        {
          "internalType": "address",
          "name": "",
          "type": "address"
        }
      ],
      "stateMutability": "view",
      "type": "function"
    },
    {
      "inputs": [
        {
          "internalType": "address",
          "name": "owner",
          "type": "address"
        },
        {
          "internalType": "address",
          "name": "operator",
          "type": "address"
        }
      ],
      "name": "isApprovedForAll",
      "outputs": [
        {
          "internalType": "bool",
          "name": "",
          "type": "bool"
        }
      ],
      "stateMutability": "view",
      "type": "function"
    },
    {
      "inputs": [
        {
          "internalType": "uint256",
          "name": "_id",
          "type": "uint256"
        }
      ],
      "name": "lvlUp",
      "outputs": [],
      "stateMutability": "nonpayable",
      "type": "function"
    },
    {
      "inputs": [],
      "name": "mintZombie",
      "outputs": [],
      "stateMutability": "nonpayable",
      "type": "function"
    },
    {
      "inputs": [],
      "name": "name",
      "outputs": [
        {
          "internalType": "string",
          "name": "",
          "type": "string"
        }
      ],
      "stateMutability": "view",
      "type": "function"
    },
    {
      "inputs": [],
      "name": "owner",
      "outputs": [
        {
          "internalType": "address",
          "name": "",
          "type": "address"
        }
      ],
      "stateMutability": "view",
      "type": "function"
    },
    {
      "inputs": [
        {
          "internalType": "uint256",
          "name": "tokenId",
          "type": "uint256"
        }
      ],
      "name": "ownerOf",
      "outputs": [
        {
          "internalType": "address",
          "name": "",
          "type": "address"
        }
      ],
      "stateMutability": "view",
      "type": "function"
    },
    {
      "inputs": [],
      "name": "payWithBr",
      "outputs": [],
      "stateMutability": "payable",
      "type": "function"
    },
    {
      "inputs": [],
      "name": "renounceOwnership",
      "outputs": [],
      "stateMutability": "nonpayable",
      "type": "function"
    },
    {
      "inputs": [
        {
          "internalType": "address",
          "name": "from",
          "type": "address"
        },
        {
          "internalType": "address",
          "name": "to",
          "type": "address"
        },
        {
          "internalType": "uint256",
          "name": "tokenId",
          "type": "uint256"
        }
      ],
      "name": "safeTransferFrom",
      "outputs": [],
      "stateMutability": "nonpayable",
      "type": "function"
    },
    {
      "inputs": [
        {
          "internalType": "address",
          "name": "from",
          "type": "address"
        },
        {
          "internalType": "address",
          "name": "to",
          "type": "address"
        },
        {
          "internalType": "uint256",
          "name": "tokenId",
          "type": "uint256"
        },
        {
          "internalType": "bytes",
          "name": "data",
          "type": "bytes"
        }
      ],
      "name": "safeTransferFrom",
      "outputs": [],
      "stateMutability": "nonpayable",
      "type": "function"
    },
    {
      "inputs": [
        {
          "internalType": "address",
          "name": "operator",
          "type": "address"
        },
        {
          "internalType": "bool",
          "name": "approved",
          "type": "bool"
        }
      ],
      "name": "setApprovalForAll",
      "outputs": [],
      "stateMutability": "nonpayable",
      "type": "function"
    },
    {
      "inputs": [
        {
          "internalType": "address",
          "name": "_add",
          "type": "address"
        }
      ],
      "name": "setPacoCoin",
      "outputs": [],
      "stateMutability": "nonpayable",
      "type": "function"
    },
    {
      "inputs": [
        {
          "internalType": "address",
          "name": "_add",
          "type": "address"
        }
      ],
      "name": "setZmbAddress",
      "outputs": [],
      "stateMutability": "nonpayable",
      "type": "function"
    },
    {
      "inputs": [
        {
          "internalType": "address",
          "name": "",
          "type": "address"
        }
      ],
      "name": "strength",
      "outputs": [
        {
          "internalType": "uint256",
          "name": "",
          "type": "uint256"
        }
      ],
      "stateMutability": "view",
      "type": "function"
    },
    {
      "inputs": [
        {
          "internalType": "address",
          "name": "_add",
          "type": "address"
        }
      ],
      "name": "strr",
      "outputs": [
        {
          "internalType": "uint256",
          "name": "",
          "type": "uint256"
        }
      ],
      "stateMutability": "view",
      "type": "function"
    },
    {
      "inputs": [
        {
          "internalType": "bytes4",
          "name": "interfaceId",
          "type": "bytes4"
        }
      ],
      "name": "supportsInterface",
      "outputs": [
        {
          "internalType": "bool",
          "name": "",
          "type": "bool"
        }
      ],
      "stateMutability": "view",
      "type": "function"
    },
    {
      "inputs": [],
      "name": "symbol",
      "outputs": [
        {
          "internalType": "string",
          "name": "",
          "type": "string"
        }
      ],
      "stateMutability": "view",
      "type": "function"
    },
    {
      "inputs": [
        {
          "internalType": "uint256",
          "name": "tokenId",
          "type": "uint256"
        }
      ],
      "name": "tokenURI",
      "outputs": [
        {
          "internalType": "string",
          "name": "",
          "type": "string"
        }
      ],
      "stateMutability": "view",
      "type": "function"
    },
    {
      "inputs": [
        {
          "internalType": "address",
          "name": "from",
          "type": "address"
        },
        {
          "internalType": "address",
          "name": "to",
          "type": "address"
        },
        {
          "internalType": "uint256",
          "name": "tokenId",
          "type": "uint256"
        }
      ],
      "name": "transferFrom",
      "outputs": [],
      "stateMutability": "nonpayable",
      "type": "function"
    },
    {
      "inputs": [
        {
          "internalType": "address",
          "name": "newOwner",
          "type": "address"
        }
      ],
      "name": "transferOwnership",
      "outputs": [],
      "stateMutability": "nonpayable",
      "type": "function"
    },
    {
      "inputs": [
        {
          "internalType": "uint256",
          "name": "",
          "type": "uint256"
        }
      ],
      "name": "zombies",
      "outputs": [
        {
          "internalType": "uint24",
          "name": "strength",
          "type": "uint24"
        },
        {
          "internalType": "uint24",
          "name": "counter",
          "type": "uint24"
        },
        {
          "internalType": "uint24",
          "name": "level",
          "type": "uint24"
        },
        {
          "internalType": "uint24",
          "name": "rarity",
          "type": "uint24"
        },
        {
          "internalType": "uint24",
          "name": "hunger",
          "type": "uint24"
        }
      ],
      "stateMutability": "view",
      "type": "function"
    }
  ],
  "bytecode": "0x60806040526000600960146101000a81548162ffffff021916908362ffffff1602179055506000600960176101000a81548162ffffff021916908362ffffff16021790555060c8600f553480156200005657600080fd5b5060405162005c4438038062005c4483398181016040528101906200007c9190620003f3565b81816200009e62000092620000da60201b60201c565b620000e260201b60201c565b8160019080519060200190620000b6929190620001a6565b508060029080519060200190620000cf929190620001a6565b5050505050620004dd565b600033905090565b60008060009054906101000a900473ffffffffffffffffffffffffffffffffffffffff169050816000806101000a81548173ffffffffffffffffffffffffffffffffffffffff021916908373ffffffffffffffffffffffffffffffffffffffff1602179055508173ffffffffffffffffffffffffffffffffffffffff168173ffffffffffffffffffffffffffffffffffffffff167f8be0079c531659141344cd1fd0a4f28419497f9722a3daafe3b4186f6b6457e060405160405180910390a35050565b828054620001b490620004a7565b90600052602060002090601f016020900481019282620001d8576000855562000224565b82601f10620001f357805160ff191683800117855562000224565b8280016001018555821562000224579182015b828111156200022357825182559160200191906001019062000206565b5b50905062000233919062000237565b5090565b5b808211156200025257600081600090555060010162000238565b5090565b6000604051905090565b600080fd5b600080fd5b600080fd5b600080fd5b6000601f19601f8301169050919050565b7f4e487b7100000000000000000000000000000000000000000000000000000000600052604160045260246000fd5b620002bf8262000274565b810181811067ffffffffffffffff82111715620002e157620002e062000285565b5b80604052505050565b6000620002f662000256565b9050620003048282620002b4565b919050565b600067ffffffffffffffff82111562000327576200032662000285565b5b620003328262000274565b9050602081019050919050565b60005b838110156200035f57808201518184015260208101905062000342565b838111156200036f576000848401525b50505050565b60006200038c620003868462000309565b620002ea565b905082815260208101848484011115620003ab57620003aa6200026f565b5b620003b88482856200033f565b509392505050565b600082601f830112620003d857620003d76200026a565b5b8151620003ea84826020860162000375565b91505092915050565b600080604083850312156200040d576200040c62000260565b5b600083015167ffffffffffffffff8111156200042e576200042d62000265565b5b6200043c85828601620003c0565b925050602083015167ffffffffffffffff81111562000460576200045f62000265565b5b6200046e85828601620003c0565b9150509250929050565b7f4e487b7100000000000000000000000000000000000000000000000000000000600052602260045260246000fd5b60006002820490506001821680620004c057607f821691505b60208210811415620004d757620004d662000478565b5b50919050565b61575780620004ed6000396000f3fe6080604052600436106102725760003560e01c806370a082311161014f578063bf3fd6ce116100c1578063d7e2d1041161007a578063d7e2d104146109a7578063e985e9c5146109b1578063f2fde38b146109ee578063f5a7976714610a17578063f7746e3614610a54578063fe825a8414610a9557610272565b8063bf3fd6ce14610899578063c3fa7b57146108d6578063c87b56dd146108ed578063cc7be0631461092a578063d12a98f814610953578063d75752a31461096a57610272565b806390f89c121161011357806390f89c121461078957806395d89b41146107c6578063a22cb465146107f1578063aa8c217c1461081a578063b7e19ca014610845578063b88d4fde1461087057610272565b806370a08231146106a4578063715018a6146106e15780637b1e4d6a146106f8578063852f149f146107215780638da5cb5b1461075e57610272565b806330e9a68e116101e85780634b355cfa116101ac5780634b355cfa1461056d5780635eb9844d14610596578063602977ad146105ad5780636343e28c146105ea5780636352211e14610627578063690205621461066457610272565b806330e9a68e14610498578063396a1bde146104c35780633a80e6a3146104ee57806342842e0e146105195780634800cc4e1461054257610272565b806323b872dd1161023a57806323b872dd14610386578063294ac0c2146103af5780632b105663146103da5780632cf7a5c1146104055780632d251fe1146104305780632f53d9c71461045b57610272565b806301ffc9a71461027757806306fdde03146102b4578063081812fc146102df578063095ea7b31461031c5780632052465e14610345575b600080fd5b34801561028357600080fd5b5061029e60048036038101906102999190613f06565b610ad2565b6040516102ab9190613f4e565b60405180910390f35b3480156102c057600080fd5b506102c9610bb4565b6040516102d69190614002565b60405180910390f35b3480156102eb57600080fd5b506103066004803603810190610301919061405a565b610c46565b60405161031391906140c8565b60405180910390f35b34801561032857600080fd5b50610343600480360381019061033e919061410f565b610c8c565b005b34801561035157600080fd5b5061036c6004803603810190610367919061405a565b610da4565b60405161037d95949392919061416d565b60405180910390f35b34801561039257600080fd5b506103ad60048036038101906103a891906141c0565b610e31565b005b3480156103bb57600080fd5b506103c4610e91565b6040516103d191906142d1565b60405180910390f35b3480156103e657600080fd5b506103ef611231565b6040516103fc91906142d1565b60405180910390f35b34801561041157600080fd5b5061041a6113be565b6040516104279190614302565b60405180910390f35b34801561043c57600080fd5b50610445611477565b604051610452919061431d565b60405180910390f35b34801561046757600080fd5b50610482600480360381019061047d9190614338565b611530565b60405161048f919061447c565b60405180910390f35b3480156104a457600080fd5b506104ad611702565b6040516104ba9190614302565b60405180910390f35b3480156104cf57600080fd5b506104d8611708565b6040516104e59190614302565b60405180910390f35b3480156104fa57600080fd5b506105036117bf565b604051610510919061431d565b60405180910390f35b34801561052557600080fd5b50610540600480360381019061053b91906141c0565b61187c565b005b34801561054e57600080fd5b5061055761189c565b60405161056491906142d1565b60405180910390f35b34801561057957600080fd5b50610594600480360381019061058f9190614338565b611a29565b005b3480156105a257600080fd5b506105ab611ab6565b005b3480156105b957600080fd5b506105d460048036038101906105cf9190614338565b611c24565b6040516105e19190614302565b60405180910390f35b3480156105f657600080fd5b50610611600480360381019061060c9190614338565b611c3c565b60405161061e9190614302565b60405180910390f35b34801561063357600080fd5b5061064e6004803603810190610649919061405a565b611c54565b60405161065b91906140c8565b60405180910390f35b34801561067057600080fd5b5061068b600480360381019061068691906144ca565b611d06565b60405161069b94939291906144f7565b60405180910390f35b3480156106b057600080fd5b506106cb60048036038101906106c69190614338565b611e0b565b6040516106d89190614302565b60405180910390f35b3480156106ed57600080fd5b506106f6611ec3565b005b34801561070457600080fd5b5061071f600480360381019061071a919061405a565b611ed7565b005b34801561072d57600080fd5b5061074860048036038101906107439190614338565b611fd8565b6040516107559190614302565b60405180910390f35b34801561076a57600080fd5b50610773612026565b60405161078091906140c8565b60405180910390f35b34801561079557600080fd5b506107b060048036038101906107ab919061405a565b61204f565b6040516107bd91906140c8565b60405180910390f35b3480156107d257600080fd5b506107db61208c565b6040516107e89190614002565b60405180910390f35b3480156107fd57600080fd5b5061081860048036038101906108139190614568565b61211e565b005b34801561082657600080fd5b5061082f612134565b60405161083c9190614302565b60405180910390f35b34801561085157600080fd5b5061085a612180565b60405161086791906142d1565b60405180910390f35b34801561087c57600080fd5b50610897600480360381019061089291906146dd565b61230d565b005b3480156108a557600080fd5b506108c060048036038101906108bb919061405a565b61236f565b6040516108cd91906140c8565b60405180910390f35b3480156108e257600080fd5b506108eb6123a2565b005b3480156108f957600080fd5b50610914600480360381019061090f919061405a565b6123ac565b6040516109219190614002565b60405180910390f35b34801561093657600080fd5b50610951600480360381019061094c9190614338565b612414565b005b34801561095f57600080fd5b50610968612460565b005b34801561097657600080fd5b50610991600480360381019061098c919061405a565b612536565b60405161099e9190614302565b60405180910390f35b6109af61256a565b005b3480156109bd57600080fd5b506109d860048036038101906109d39190614760565b61286c565b6040516109e59190613f4e565b60405180910390f35b3480156109fa57600080fd5b50610a156004803603810190610a109190614338565b612900565b005b348015610a2357600080fd5b50610a3e6004803603810190610a399190614338565b612984565b604051610a4b9190614302565b60405180910390f35b348015610a6057600080fd5b50610a7b6004803603810190610a76919061405a565b6129d2565b604051610a8c9594939291906147a0565b60405180910390f35b348015610aa157600080fd5b50610abc6004803603810190610ab791906144ca565b612a18565b604051610ac991906142d1565b60405180910390f35b60007f80ac58cd000000000000000000000000000000000000000000000000000000007bffffffffffffffffffffffffffffffffffffffffffffffffffffffff1916827bffffffffffffffffffffffffffffffffffffffffffffffffffffffff19161480610b9d57507f5b5e139f000000000000000000000000000000000000000000000000000000007bffffffffffffffffffffffffffffffffffffffffffffffffffffffff1916827bffffffffffffffffffffffffffffffffffffffffffffffffffffffff1916145b80610bad5750610bac82612c1c565b5b9050919050565b606060018054610bc390614822565b80601f0160208091040260200160405190810160405280929190818152602001828054610bef90614822565b8015610c3c5780601f10610c1157610100808354040283529160200191610c3c565b820191906000526020600020905b815481529060010190602001808311610c1f57829003601f168201915b5050505050905090565b6000610c5182612c86565b6005600083815260200190815260200160002060009054906101000a900473ffffffffffffffffffffffffffffffffffffffff169050919050565b6000610c9782611c54565b90508073ffffffffffffffffffffffffffffffffffffffff168373ffffffffffffffffffffffffffffffffffffffff161415610d08576040517f08c379a0000000000000000000000000000000000000000000000000000000008152600401610cff906148c6565b60405180910390fd5b8073ffffffffffffffffffffffffffffffffffffffff16610d27612cd1565b73ffffffffffffffffffffffffffffffffffffffff161480610d565750610d5581610d50612cd1565b61286c565b5b610d95576040517f08c379a0000000000000000000000000000000000000000000000000000000008152600401610d8c90614958565b60405180910390fd5b610d9f8383612cd9565b505050565b600b8181548110610db457600080fd5b906000526020600020016000915090508060000160009054906101000a900462ffffff16908060000160039054906101000a900462ffffff16908060000160069054906101000a900462ffffff16908060000160099054906101000a900462ffffff169080600001600c9054906101000a900462ffffff16905085565b610e42610e3c612cd1565b82612d92565b610e81576040517f08c379a0000000000000000000000000000000000000000000000000000000008152600401610e78906149ea565b60405180910390fd5b610e8c838383612e27565b505050565b60606000600d60003373ffffffffffffffffffffffffffffffffffffffff1673ffffffffffffffffffffffffffffffffffffffff1681526020019081526020016000205467ffffffffffffffff811115610eee57610eed6145b2565b5b604051908082528060200260200182016040528015610f1c5781602001602082028036833780820191505090505b5090506000805b600b80549050811015611015573373ffffffffffffffffffffffffffffffffffffffff16600c600083815260200190815260200160002060009054906101000a900473ffffffffffffffffffffffffffffffffffffffff1673ffffffffffffffffffffffffffffffffffffffff16141561100257600b8181548110610fab57610faa614a0a565b5b9060005260206000200160000160039054906101000a900462ffffff16838381518110610fdb57610fda614a0a565b5b602002602001019062ffffff16908162ffffff16815250508180610ffe90614a68565b9250505b808061100d90614a68565b915050610f23565b50600080600467ffffffffffffffff811115611034576110336145b2565b5b6040519080825280602002602001820160405280156110625781602001602082028036833780820191505090505b50905060005b845181101561122657600b818154811061108557611084614a0a565b5b9060005260206000200160000160009054906101000a900462ffffff168284815181106110b5576110b4614a0a565b5b602002602001019062ffffff16908162ffffff1681525050600b81815481106110e1576110e0614a0a565b5b9060005260206000200160000160069054906101000a900462ffffff168260018561110c9190614ab1565b8151811061111d5761111c614a0a565b5b602002602001019062ffffff16908162ffffff1681525050600b818154811061114957611148614a0a565b5b9060005260206000200160000160099054906101000a900462ffffff16826002856111749190614ab1565b8151811061118557611184614a0a565b5b602002602001019062ffffff16908162ffffff1681525050600b81815481106111b1576111b0614a0a565b5b90600052602060002001600001600c9054906101000a900462ffffff16826003856111dc9190614ab1565b815181106111ed576111ec614a0a565b5b602002602001019062ffffff16908162ffffff16815250506004836112129190614ab1565b50808061121e90614a68565b915050611068565b508094505050505090565b60606000600d60003373ffffffffffffffffffffffffffffffffffffffff1673ffffffffffffffffffffffffffffffffffffffff1681526020019081526020016000205467ffffffffffffffff81111561128e5761128d6145b2565b5b6040519080825280602002602001820160405280156112bc5781602001602082028036833780820191505090505b5090506000805b600b805490508110156113b5573373ffffffffffffffffffffffffffffffffffffffff16600c600083815260200190815260200160002060009054906101000a900473ffffffffffffffffffffffffffffffffffffffff1673ffffffffffffffffffffffffffffffffffffffff1614156113a257600b818154811061134b5761134a614a0a565b5b9060005260206000200160000160039054906101000a900462ffffff1683838151811061137b5761137a614a0a565b5b602002602001019062ffffff16908162ffffff1681525050818061139e90614a68565b9250505b80806113ad90614a68565b9150506112c3565b50819250505090565b600080600760009054906101000a900473ffffffffffffffffffffffffffffffffffffffff1673ffffffffffffffffffffffffffffffffffffffff1663dd62ed3e33306040518363ffffffff1660e01b815260040161141e929190614b07565b60206040518083038186803b15801561143657600080fd5b505afa15801561144a573d6000803e3d6000fd5b505050506040513d601f19601f8201168201806040525081019061146e9190614b45565b90508091505090565b600080600760009054906101000a900473ffffffffffffffffffffffffffffffffffffffff1673ffffffffffffffffffffffffffffffffffffffff1663dd62ed3e33306040518363ffffffff1660e01b81526004016114d7929190614b07565b60206040518083038186803b1580156114ef57600080fd5b505afa158015611503573d6000803e3d6000fd5b505050506040513d601f19601f820116820180604052508101906115279190614b45565b90508091505090565b6060600061153d83611e0b565b67ffffffffffffffff811115611556576115556145b2565b5b60405190808252806020026020018201604052801561158f57816020015b61157c613e52565b8152602001906001900390816115745790505b5090506000805b600b805490508110156116f7578473ffffffffffffffffffffffffffffffffffffffff166115c382611c54565b73ffffffffffffffffffffffffffffffffffffffff1614156116e457600b81815481106115f3576115f2614a0a565b5b906000526020600020016040518060a00160405290816000820160009054906101000a900462ffffff1662ffffff1662ffffff1681526020016000820160039054906101000a900462ffffff1662ffffff1662ffffff1681526020016000820160069054906101000a900462ffffff1662ffffff1662ffffff1681526020016000820160099054906101000a900462ffffff1662ffffff1662ffffff16815260200160008201600c9054906101000a900462ffffff1662ffffff1662ffffff16815250508383815181106116ca576116c9614a0a565b5b602002602001018190525081806116e090614a68565b9250505b80806116ef90614a68565b915050611596565b508192505050919050565b600f5481565b600080600760009054906101000a900473ffffffffffffffffffffffffffffffffffffffff1673ffffffffffffffffffffffffffffffffffffffff166370a08231336040518263ffffffff1660e01b815260040161176691906140c8565b60206040518083038186803b15801561177e57600080fd5b505afa158015611792573d6000803e3d6000fd5b505050506040513d601f19601f820116820180604052508101906117b69190614b45565b90508091505090565b600080600760009054906101000a900473ffffffffffffffffffffffffffffffffffffffff1673ffffffffffffffffffffffffffffffffffffffff166370a08231336040518263ffffffff1660e01b815260040161181d91906140c8565b60206040518083038186803b15801561183557600080fd5b505afa158015611849573d6000803e3d6000fd5b505050506040513d601f19601f8201168201806040525081019061186d9190614b45565b90506000819050809250505090565b6118978383836040518060200160405280600081525061230d565b505050565b60606000600d60003373ffffffffffffffffffffffffffffffffffffffff1673ffffffffffffffffffffffffffffffffffffffff1681526020019081526020016000205467ffffffffffffffff8111156118f9576118f86145b2565b5b6040519080825280602002602001820160405280156119275781602001602082028036833780820191505090505b5090506000805b600b80549050811015611a20573373ffffffffffffffffffffffffffffffffffffffff16600c600083815260200190815260200160002060009054906101000a900473ffffffffffffffffffffffffffffffffffffffff1673ffffffffffffffffffffffffffffffffffffffff161415611a0d57600b81815481106119b6576119b5614a0a565b5b9060005260206000200160000160009054906101000a900462ffffff168383815181106119e6576119e5614a0a565b5b602002602001019062ffffff16908162ffffff16815250508180611a0990614a68565b9250505b8080611a1890614a68565b91505061192e565b50819250505090565b611a3161308e565b80600760006101000a81548173ffffffffffffffffffffffffffffffffffffffff021916908373ffffffffffffffffffffffffffffffffffffffff16021790555080600860006101000a81548173ffffffffffffffffffffffffffffffffffffffff021916908373ffffffffffffffffffffffffffffffffffffffff16021790555050565b60006001600760009054906101000a900473ffffffffffffffffffffffffffffffffffffffff1673ffffffffffffffffffffffffffffffffffffffff166370a08231336040518263ffffffff1660e01b8152600401611b1591906140c8565b60206040518083038186803b158015611b2d57600080fd5b505afa158015611b41573d6000803e3d6000fd5b505050506040513d601f19601f82011682018060405250810190611b659190614b45565b611b6f9190614b72565b9050600760009054906101000a900473ffffffffffffffffffffffffffffffffffffffff1673ffffffffffffffffffffffffffffffffffffffff1663095ea7b330836040518363ffffffff1660e01b8152600401611bce929190614ba6565b602060405180830381600087803b158015611be857600080fd5b505af1158015611bfc573d6000803e3d6000fd5b505050506040513d601f19601f82011682018060405250810190611c209190614be4565b5050565b600d6020528060005260406000206000915090505481565b600e6020528060005260406000206000915090505481565b6000806003600084815260200190815260200160002060009054906101000a900473ffffffffffffffffffffffffffffffffffffffff169050600073ffffffffffffffffffffffffffffffffffffffff168173ffffffffffffffffffffffffffffffffffffffff161415611cfd576040517f08c379a0000000000000000000000000000000000000000000000000000000008152600401611cf490614c5d565b60405180910390fd5b80915050919050565b6000806000806000600b8662ffffff1681548110611d2757611d26614a0a565b5b9060005260206000200160000160009054906101000a900462ffffff1690506000600b8762ffffff1681548110611d6157611d60614a0a565b5b9060005260206000200160000160069054906101000a900462ffffff1690506000600b8862ffffff1681548110611d9b57611d9a614a0a565b5b9060005260206000200160000160099054906101000a900462ffffff1690506000600b8962ffffff1681548110611dd557611dd4614a0a565b5b90600052602060002001600001600c9054906101000a900462ffffff169050838383839750975097509750505050509193509193565b60008073ffffffffffffffffffffffffffffffffffffffff168273ffffffffffffffffffffffffffffffffffffffff161415611e7c576040517f08c379a0000000000000000000000000000000000000000000000000000000008152600401611e7390614cef565b60405180910390fd5b600460008373ffffffffffffffffffffffffffffffffffffffff1673ffffffffffffffffffffffffffffffffffffffff168152602001908152602001600020549050919050565b611ecb61308e565b611ed5600061310c565b565b3373ffffffffffffffffffffffffffffffffffffffff16600c600083815260200190815260200160002060009054906101000a900473ffffffffffffffffffffffffffffffffffffffff1673ffffffffffffffffffffffffffffffffffffffff1614611f78576040517f08c379a0000000000000000000000000000000000000000000000000000000008152600401611f6f90614d5b565b60405180910390fd5b600b8181548110611f8c57611f8b614a0a565b5b90600052602060002001600001600681819054906101000a900462ffffff1680929190611fb890614d7b565b91906101000a81548162ffffff021916908362ffffff1602179055505050565b600080600e60008473ffffffffffffffffffffffffffffffffffffffff1673ffffffffffffffffffffffffffffffffffffffff16815260200190815260200160002054905080915050919050565b60008060009054906101000a900473ffffffffffffffffffffffffffffffffffffffff16905090565b6000600c600083815260200190815260200160002060009054906101000a900473ffffffffffffffffffffffffffffffffffffffff169050919050565b60606002805461209b90614822565b80601f01602080910402602001604051908101604052809291908181526020018280546120c790614822565b80156121145780601f106120e957610100808354040283529160200191612114565b820191906000526020600020905b8154815290600101906020018083116120f757829003601f168201915b5050505050905090565b612130612129612cd1565b83836131d0565b5050565b600080600d60003373ffffffffffffffffffffffffffffffffffffffff1673ffffffffffffffffffffffffffffffffffffffff1681526020019081526020016000205490508091505090565b60606000600d60003373ffffffffffffffffffffffffffffffffffffffff1673ffffffffffffffffffffffffffffffffffffffff1681526020019081526020016000205467ffffffffffffffff8111156121dd576121dc6145b2565b5b60405190808252806020026020018201604052801561220b5781602001602082028036833780820191505090505b5090506000805b600b80549050811015612304573373ffffffffffffffffffffffffffffffffffffffff16600c600083815260200190815260200160002060009054906101000a900473ffffffffffffffffffffffffffffffffffffffff1673ffffffffffffffffffffffffffffffffffffffff1614156122f157600b818154811061229a57612299614a0a565b5b9060005260206000200160000160069054906101000a900462ffffff168383815181106122ca576122c9614a0a565b5b602002602001019062ffffff16908162ffffff168152505081806122ed90614a68565b9250505b80806122fc90614a68565b915050612212565b50819250505090565b61231e612318612cd1565b83612d92565b61235d576040517f08c379a0000000000000000000000000000000000000000000000000000000008152600401612354906149ea565b60405180910390fd5b6123698484848461333d565b50505050565b600c6020528060005260406000206000915054906101000a900473ffffffffffffffffffffffffffffffffffffffff1681565b6123aa613399565b565b60606123b782612c86565b60006123c1613669565b905060008151116123e1576040518060200160405280600081525061240c565b806123eb84613680565b6040516020016123fc929190614de3565b6040516020818303038152906040525b915050919050565b61241c61308e565b80600960006101000a81548173ffffffffffffffffffffffffffffffffffffffff021916908373ffffffffffffffffffffffffffffffffffffffff16021790555050565b600760009054906101000a900473ffffffffffffffffffffffffffffffffffffffff1673ffffffffffffffffffffffffffffffffffffffff1663095ea7b3600960009054906101000a900473ffffffffffffffffffffffffffffffffffffffff166103e86040518363ffffffff1660e01b81526004016124e1929190614e4c565b602060405180830381600087803b1580156124fb57600080fd5b505af115801561250f573d6000803e3d6000fd5b505050506040513d601f19601f820116820180604052508101906125339190614be4565b50565b600080600a838154811061254d5761254c614a0a565b5b906000526020600020906005020160040154905080915050919050565b60006125746137e1565b905080600760009054906101000a900473ffffffffffffffffffffffffffffffffffffffff1673ffffffffffffffffffffffffffffffffffffffff1663dd62ed3e33306040518363ffffffff1660e01b81526004016125d4929190614b07565b60206040518083038186803b1580156125ec57600080fd5b505afa158015612600573d6000803e3d6000fd5b505050506040513d601f19601f820116820180604052508101906126249190614b45565b1015612665576040517f08c379a000000000000000000000000000000000000000000000000000000000815260040161265c90614ec1565b60405180910390fd5b6000600760009054906101000a900473ffffffffffffffffffffffffffffffffffffffff1673ffffffffffffffffffffffffffffffffffffffff166370a08231336040518263ffffffff1660e01b81526004016126c291906140c8565b60206040518083038186803b1580156126da57600080fd5b505afa1580156126ee573d6000803e3d6000fd5b505050506040513d601f19601f820116820180604052508101906127129190614b45565b905081811015612757576040517f08c379a000000000000000000000000000000000000000000000000000000000815260040161274e90614f2d565b60405180910390fd5b6000670de0b6b3a76400008361276d9190614f4d565b9050600760009054906101000a900473ffffffffffffffffffffffffffffffffffffffff1673ffffffffffffffffffffffffffffffffffffffff166323b872dd3330846040518463ffffffff1660e01b81526004016127ce93929190614fa7565b602060405180830381600087803b1580156127e857600080fd5b505af11580156127fc573d6000803e3d6000fd5b505050506040513d601f19601f820116820180604052508101906128209190614be4565b61285f576040517f08c379a00000000000000000000000000000000000000000000000000000000081526004016128569061502a565b60405180910390fd5b612867613399565b505050565b6000600660008473ffffffffffffffffffffffffffffffffffffffff1673ffffffffffffffffffffffffffffffffffffffff16815260200190815260200160002060008373ffffffffffffffffffffffffffffffffffffffff1673ffffffffffffffffffffffffffffffffffffffff16815260200190815260200160002060009054906101000a900460ff16905092915050565b61290861308e565b600073ffffffffffffffffffffffffffffffffffffffff168173ffffffffffffffffffffffffffffffffffffffff161415612978576040517f08c379a000000000000000000000000000000000000000000000000000000000815260040161296f906150bc565b60405180910390fd5b6129818161310c565b50565b600080600d60008473ffffffffffffffffffffffffffffffffffffffff1673ffffffffffffffffffffffffffffffffffffffff16815260200190815260200160002054905080915050919050565b600a81815481106129e257600080fd5b90600052602060002090600502016000915090508060000154908060010154908060020154908060030154908060040154905085565b60606000600467ffffffffffffffff811115612a3757612a366145b2565b5b604051908082528060200260200182016040528015612a655781602001602082028036833780820191505090505b5090506000600b8462ffffff1681548110612a8357612a82614a0a565b5b9060005260206000200160000160009054906101000a900462ffffff16828281518110612ab357612ab2614a0a565b5b602002602001019062ffffff16908162ffffff1681525050600b8462ffffff1681548110612ae457612ae3614a0a565b5b9060005260206000200160000160069054906101000a900462ffffff1682600183612b0f9190614ab1565b81518110612b2057612b1f614a0a565b5b602002602001019062ffffff16908162ffffff1681525050600b8462ffffff1681548110612b5157612b50614a0a565b5b9060005260206000200160000160099054906101000a900462ffffff1682600283612b7c9190614ab1565b81518110612b8d57612b8c614a0a565b5b602002602001019062ffffff16908162ffffff1681525050600b8462ffffff1681548110612bbe57612bbd614a0a565b5b90600052602060002001600001600c9054906101000a900462ffffff1682600383612be99190614ab1565b81518110612bfa57612bf9614a0a565b5b602002602001019062ffffff16908162ffffff16815250508192505050919050565b60007f01ffc9a7000000000000000000000000000000000000000000000000000000007bffffffffffffffffffffffffffffffffffffffffffffffffffffffff1916827bffffffffffffffffffffffffffffffffffffffffffffffffffffffff1916149050919050565b612c8f81613809565b612cce576040517f08c379a0000000000000000000000000000000000000000000000000000000008152600401612cc590614c5d565b60405180910390fd5b50565b600033905090565b816005600083815260200190815260200160002060006101000a81548173ffffffffffffffffffffffffffffffffffffffff021916908373ffffffffffffffffffffffffffffffffffffffff160217905550808273ffffffffffffffffffffffffffffffffffffffff16612d4c83611c54565b73ffffffffffffffffffffffffffffffffffffffff167f8c5be1e5ebec7d5bd14f71427d1e84f3dd0314c0f7b2291e5b200ac8c7c3b92560405160405180910390a45050565b600080612d9e83611c54565b90508073ffffffffffffffffffffffffffffffffffffffff168473ffffffffffffffffffffffffffffffffffffffff161480612de05750612ddf818561286c565b5b80612e1e57508373ffffffffffffffffffffffffffffffffffffffff16612e0684610c46565b73ffffffffffffffffffffffffffffffffffffffff16145b91505092915050565b8273ffffffffffffffffffffffffffffffffffffffff16612e4782611c54565b73ffffffffffffffffffffffffffffffffffffffff1614612e9d576040517f08c379a0000000000000000000000000000000000000000000000000000000008152600401612e949061514e565b60405180910390fd5b600073ffffffffffffffffffffffffffffffffffffffff168273ffffffffffffffffffffffffffffffffffffffff161415612f0d576040517f08c379a0000000000000000000000000000000000000000000000000000000008152600401612f04906151e0565b60405180910390fd5b612f18838383613875565b612f23600082612cd9565b6001600460008573ffffffffffffffffffffffffffffffffffffffff1673ffffffffffffffffffffffffffffffffffffffff1681526020019081526020016000206000828254612f739190614b72565b925050819055506001600460008473ffffffffffffffffffffffffffffffffffffffff1673ffffffffffffffffffffffffffffffffffffffff1681526020019081526020016000206000828254612fca9190614ab1565b92505081905550816003600083815260200190815260200160002060006101000a81548173ffffffffffffffffffffffffffffffffffffffff021916908373ffffffffffffffffffffffffffffffffffffffff160217905550808273ffffffffffffffffffffffffffffffffffffffff168473ffffffffffffffffffffffffffffffffffffffff167fddf252ad1be2c89b69c2b068fc378daa952ba7f163c4a11628f55a4df523b3ef60405160405180910390a461308983838361387a565b505050565b613096612cd1565b73ffffffffffffffffffffffffffffffffffffffff166130b4612026565b73ffffffffffffffffffffffffffffffffffffffff161461310a576040517f08c379a00000000000000000000000000000000000000000000000000000000081526004016131019061524c565b60405180910390fd5b565b60008060009054906101000a900473ffffffffffffffffffffffffffffffffffffffff169050816000806101000a81548173ffffffffffffffffffffffffffffffffffffffff021916908373ffffffffffffffffffffffffffffffffffffffff1602179055508173ffffffffffffffffffffffffffffffffffffffff168173ffffffffffffffffffffffffffffffffffffffff167f8be0079c531659141344cd1fd0a4f28419497f9722a3daafe3b4186f6b6457e060405160405180910390a35050565b8173ffffffffffffffffffffffffffffffffffffffff168373ffffffffffffffffffffffffffffffffffffffff16141561323f576040517f08c379a0000000000000000000000000000000000000000000000000000000008152600401613236906152b8565b60405180910390fd5b80600660008573ffffffffffffffffffffffffffffffffffffffff1673ffffffffffffffffffffffffffffffffffffffff16815260200190815260200160002060008473ffffffffffffffffffffffffffffffffffffffff1673ffffffffffffffffffffffffffffffffffffffff16815260200190815260200160002060006101000a81548160ff0219169083151502179055508173ffffffffffffffffffffffffffffffffffffffff168373ffffffffffffffffffffffffffffffffffffffff167f17307eab39ab6107e8899845ad3d59bd9653f200f220920489ca2b5937696c31836040516133309190613f4e565b60405180910390a3505050565b613348848484612e27565b6133548484848461387f565b613393576040517f08c379a000000000000000000000000000000000000000000000000000000000815260040161338a9061534a565b60405180910390fd5b50505050565b600060016133a76003613a16565b6133b1919061536a565b905060006040518060a001604052808362ffffff168152602001600960149054906101000a900462ffffff1662ffffff168152602001600162ffffff1681526020018362ffffff168152602001600a62ffffff168152509050600b819080600181540180825580915050600190039060005260206000200160009091909190915060008201518160000160006101000a81548162ffffff021916908362ffffff16021790555060208201518160000160036101000a81548162ffffff021916908362ffffff16021790555060408201518160000160066101000a81548162ffffff021916908362ffffff16021790555060608201518160000160096101000a81548162ffffff021916908362ffffff160217905550608082015181600001600c6101000a81548162ffffff021916908362ffffff160217905550505061350d33600960149054906101000a900462ffffff1662ffffff16613a5b565b33600c6000600960149054906101000a900462ffffff1662ffffff16815260200190815260200160002060006101000a81548173ffffffffffffffffffffffffffffffffffffffff021916908373ffffffffffffffffffffffffffffffffffffffff1602179055506001600d60003373ffffffffffffffffffffffffffffffffffffffff1673ffffffffffffffffffffffffffffffffffffffff16815260200190815260200160002060008282546135c59190614ab1565b925050819055508162ffffff16600e60003373ffffffffffffffffffffffffffffffffffffffff1673ffffffffffffffffffffffffffffffffffffffff16815260200190815260200160002060008282546136209190614ab1565b925050819055506009601481819054906101000a900462ffffff168092919061364890614d7b565b91906101000a81548162ffffff021916908362ffffff160217905550505050565b606060405180602001604052806000815250905090565b606060008214156136c8576040518060400160405280600181526020017f300000000000000000000000000000000000000000000000000000000000000081525090506137dc565b600082905060005b600082146136fa5780806136e390614a68565b915050600a826136f391906153d2565b91506136d0565b60008167ffffffffffffffff811115613716576137156145b2565b5b6040519080825280601f01601f1916602001820160405280156137485781602001600182028036833780820191505090505b5090505b600085146137d5576001826137619190614b72565b9150600a856137709190615403565b603061377c9190614ab1565b60f81b81838151811061379257613791614a0a565b5b60200101907effffffffffffffffffffffffffffffffffffffffffffffffffffffffffffff1916908160001a905350600a856137ce91906153d2565b945061374c565b8093505050505b919050565b600080600f549050600061c3509050600082826137fe91906153d2565b905080935050505090565b60008073ffffffffffffffffffffffffffffffffffffffff166003600084815260200190815260200160002060009054906101000a900473ffffffffffffffffffffffffffffffffffffffff1673ffffffffffffffffffffffffffffffffffffffff1614159050919050565b505050565b505050565b60006138a08473ffffffffffffffffffffffffffffffffffffffff16613ab4565b15613a09578373ffffffffffffffffffffffffffffffffffffffff1663150b7a026138c9612cd1565b8786866040518563ffffffff1660e01b81526004016138eb9493929190615489565b602060405180830381600087803b15801561390557600080fd5b505af192505050801561393657506040513d601f19601f8201168201806040525081019061393391906154ea565b60015b6139b9573d8060008114613966576040519150601f19603f3d011682016040523d82523d6000602084013e61396b565b606091505b506000815114156139b1576040517f08c379a00000000000000000000000000000000000000000000000000000000081526004016139a89061534a565b60405180910390fd5b805181602001fd5b63150b7a0260e01b7bffffffffffffffffffffffffffffffffffffffffffffffffffffffff1916817bffffffffffffffffffffffffffffffffffffffffffffffffffffffff191614915050613a0e565b600190505b949350505050565b6000804233604051602001613a2c929190615580565b6040516020818303038152906040528051906020012060001c90508281613a5391906155ac565b915050919050565b613a658282613ad7565b613a7160008383613cb1565b613ab0576040517f08c379a0000000000000000000000000000000000000000000000000000000008152600401613aa790615629565b60405180910390fd5b5050565b6000808273ffffffffffffffffffffffffffffffffffffffff163b119050919050565b600073ffffffffffffffffffffffffffffffffffffffff168273ffffffffffffffffffffffffffffffffffffffff161415613b47576040517f08c379a0000000000000000000000000000000000000000000000000000000008152600401613b3e90615695565b60405180910390fd5b613b5081613809565b15613b90576040517f08c379a0000000000000000000000000000000000000000000000000000000008152600401613b8790615701565b60405180910390fd5b613b9c60008383613875565b6001600460008473ffffffffffffffffffffffffffffffffffffffff1673ffffffffffffffffffffffffffffffffffffffff1681526020019081526020016000206000828254613bec9190614ab1565b92505081905550816003600083815260200190815260200160002060006101000a81548173ffffffffffffffffffffffffffffffffffffffff021916908373ffffffffffffffffffffffffffffffffffffffff160217905550808273ffffffffffffffffffffffffffffffffffffffff16600073ffffffffffffffffffffffffffffffffffffffff167fddf252ad1be2c89b69c2b068fc378daa952ba7f163c4a11628f55a4df523b3ef60405160405180910390a4613cad6000838361387a565b5050565b6000613cbc83613e2f565b15613e23578273ffffffffffffffffffffffffffffffffffffffff1663eeafbddc613ce5612cd1565b86856040518463ffffffff1660e01b8152600401613d0593929190614fa7565b602060405180830381600087803b158015613d1f57600080fd5b505af1925050508015613d5057506040513d601f19601f82011682018060405250810190613d4d91906154ea565b60015b613dd3573d8060008114613d80576040519150601f19603f3d011682016040523d82523d6000602084013e613d85565b606091505b50600081511415613dcb576040517f08c379a0000000000000000000000000000000000000000000000000000000008152600401613dc29061534a565b60405180910390fd5b805181602001fd5b63150b7a0260e01b7bffffffffffffffffffffffffffffffffffffffffffffffffffffffff1916817bffffffffffffffffffffffffffffffffffffffffffffffffffffffff191614915050613e28565b600190505b9392505050565b6000808273ffffffffffffffffffffffffffffffffffffffff163b119050919050565b6040518060a00160405280600062ffffff168152602001600062ffffff168152602001600062ffffff168152602001600062ffffff168152602001600062ffffff1681525090565b6000604051905090565b600080fd5b600080fd5b60007fffffffff0000000000000000000000000000000000000000000000000000000082169050919050565b613ee381613eae565b8114613eee57600080fd5b50565b600081359050613f0081613eda565b92915050565b600060208284031215613f1c57613f1b613ea4565b5b6000613f2a84828501613ef1565b91505092915050565b60008115159050919050565b613f4881613f33565b82525050565b6000602082019050613f636000830184613f3f565b92915050565b600081519050919050565b600082825260208201905092915050565b60005b83811015613fa3578082015181840152602081019050613f88565b83811115613fb2576000848401525b50505050565b6000601f19601f8301169050919050565b6000613fd482613f69565b613fde8185613f74565b9350613fee818560208601613f85565b613ff781613fb8565b840191505092915050565b6000602082019050818103600083015261401c8184613fc9565b905092915050565b6000819050919050565b61403781614024565b811461404257600080fd5b50565b6000813590506140548161402e565b92915050565b6000602082840312156140705761406f613ea4565b5b600061407e84828501614045565b91505092915050565b600073ffffffffffffffffffffffffffffffffffffffff82169050919050565b60006140b282614087565b9050919050565b6140c2816140a7565b82525050565b60006020820190506140dd60008301846140b9565b92915050565b6140ec816140a7565b81146140f757600080fd5b50565b600081359050614109816140e3565b92915050565b6000806040838503121561412657614125613ea4565b5b6000614134858286016140fa565b925050602061414585828601614045565b9150509250929050565b600062ffffff82169050919050565b6141678161414f565b82525050565b600060a082019050614182600083018861415e565b61418f602083018761415e565b61419c604083018661415e565b6141a9606083018561415e565b6141b6608083018461415e565b9695505050505050565b6000806000606084860312156141d9576141d8613ea4565b5b60006141e7868287016140fa565b93505060206141f8868287016140fa565b925050604061420986828701614045565b9150509250925092565b600081519050919050565b600082825260208201905092915050565b6000819050602082019050919050565b6142488161414f565b82525050565b600061425a838361423f565b60208301905092915050565b6000602082019050919050565b600061427e82614213565b614288818561421e565b93506142938361422f565b8060005b838110156142c45781516142ab888261424e565b97506142b683614266565b925050600181019050614297565b5085935050505092915050565b600060208201905081810360008301526142eb8184614273565b905092915050565b6142fc81614024565b82525050565b600060208201905061431760008301846142f3565b92915050565b6000602082019050614332600083018461415e565b92915050565b60006020828403121561434e5761434d613ea4565b5b600061435c848285016140fa565b91505092915050565b600081519050919050565b600082825260208201905092915050565b6000819050602082019050919050565b60a0820160008201516143a7600085018261423f565b5060208201516143ba602085018261423f565b5060408201516143cd604085018261423f565b5060608201516143e0606085018261423f565b5060808201516143f3608085018261423f565b50505050565b60006144058383614391565b60a08301905092915050565b6000602082019050919050565b600061442982614365565b6144338185614370565b935061443e83614381565b8060005b8381101561446f57815161445688826143f9565b975061446183614411565b925050600181019050614442565b5085935050505092915050565b60006020820190508181036000830152614496818461441e565b905092915050565b6144a78161414f565b81146144b257600080fd5b50565b6000813590506144c48161449e565b92915050565b6000602082840312156144e0576144df613ea4565b5b60006144ee848285016144b5565b91505092915050565b600060808201905061450c600083018761415e565b614519602083018661415e565b614526604083018561415e565b614533606083018461415e565b95945050505050565b61454581613f33565b811461455057600080fd5b50565b6000813590506145628161453c565b92915050565b6000806040838503121561457f5761457e613ea4565b5b600061458d858286016140fa565b925050602061459e85828601614553565b9150509250929050565b600080fd5b600080fd5b7f4e487b7100000000000000000000000000000000000000000000000000000000600052604160045260246000fd5b6145ea82613fb8565b810181811067ffffffffffffffff82111715614609576146086145b2565b5b80604052505050565b600061461c613e9a565b905061462882826145e1565b919050565b600067ffffffffffffffff821115614648576146476145b2565b5b61465182613fb8565b9050602081019050919050565b82818337600083830152505050565b600061468061467b8461462d565b614612565b90508281526020810184848401111561469c5761469b6145ad565b5b6146a784828561465e565b509392505050565b600082601f8301126146c4576146c36145a8565b5b81356146d484826020860161466d565b91505092915050565b600080600080608085870312156146f7576146f6613ea4565b5b6000614705878288016140fa565b9450506020614716878288016140fa565b935050604061472787828801614045565b925050606085013567ffffffffffffffff81111561474857614747613ea9565b5b614754878288016146af565b91505092959194509250565b6000806040838503121561477757614776613ea4565b5b6000614785858286016140fa565b9250506020614796858286016140fa565b9150509250929050565b600060a0820190506147b560008301886142f3565b6147c260208301876142f3565b6147cf60408301866142f3565b6147dc60608301856142f3565b6147e960808301846142f3565b9695505050505050565b7f4e487b7100000000000000000000000000000000000000000000000000000000600052602260045260246000fd5b6000600282049050600182168061483a57607f821691505b6020821081141561484e5761484d6147f3565b5b50919050565b7f4552433732313a20617070726f76616c20746f2063757272656e74206f776e6560008201527f7200000000000000000000000000000000000000000000000000000000000000602082015250565b60006148b0602183613f74565b91506148bb82614854565b604082019050919050565b600060208201905081810360008301526148df816148a3565b9050919050565b7f4552433732313a20617070726f76652063616c6c6572206973206e6f7420746f60008201527f6b656e206f776e6572206e6f7220617070726f76656420666f7220616c6c0000602082015250565b6000614942603e83613f74565b915061494d826148e6565b604082019050919050565b6000602082019050818103600083015261497181614935565b9050919050565b7f4552433732313a2063616c6c6572206973206e6f7420746f6b656e206f776e6560008201527f72206e6f7220617070726f766564000000000000000000000000000000000000602082015250565b60006149d4602e83613f74565b91506149df82614978565b604082019050919050565b60006020820190508181036000830152614a03816149c7565b9050919050565b7f4e487b7100000000000000000000000000000000000000000000000000000000600052603260045260246000fd5b7f4e487b7100000000000000000000000000000000000000000000000000000000600052601160045260246000fd5b6000614a7382614024565b91507fffffffffffffffffffffffffffffffffffffffffffffffffffffffffffffffff821415614aa657614aa5614a39565b5b600182019050919050565b6000614abc82614024565b9150614ac783614024565b9250827fffffffffffffffffffffffffffffffffffffffffffffffffffffffffffffffff03821115614afc57614afb614a39565b5b828201905092915050565b6000604082019050614b1c60008301856140b9565b614b2960208301846140b9565b9392505050565b600081519050614b3f8161402e565b92915050565b600060208284031215614b5b57614b5a613ea4565b5b6000614b6984828501614b30565b91505092915050565b6000614b7d82614024565b9150614b8883614024565b925082821015614b9b57614b9a614a39565b5b828203905092915050565b6000604082019050614bbb60008301856140b9565b614bc860208301846142f3565b9392505050565b600081519050614bde8161453c565b92915050565b600060208284031215614bfa57614bf9613ea4565b5b6000614c0884828501614bcf565b91505092915050565b7f4552433732313a20696e76616c696420746f6b656e2049440000000000000000600082015250565b6000614c47601883613f74565b9150614c5282614c11565b602082019050919050565b60006020820190508181036000830152614c7681614c3a565b9050919050565b7f4552433732313a2061646472657373207a65726f206973206e6f74206120766160008201527f6c6964206f776e65720000000000000000000000000000000000000000000000602082015250565b6000614cd9602983613f74565b9150614ce482614c7d565b604082019050919050565b60006020820190508181036000830152614d0881614ccc565b9050919050565b7f6173646600000000000000000000000000000000000000000000000000000000600082015250565b6000614d45600483613f74565b9150614d5082614d0f565b602082019050919050565b60006020820190508181036000830152614d7481614d38565b9050919050565b6000614d868261414f565b915062ffffff821415614d9c57614d9b614a39565b5b600182019050919050565b600081905092915050565b6000614dbd82613f69565b614dc78185614da7565b9350614dd7818560208601613f85565b80840191505092915050565b6000614def8285614db2565b9150614dfb8284614db2565b91508190509392505050565b6000819050919050565b6000819050919050565b6000614e36614e31614e2c84614e07565b614e11565b614024565b9050919050565b614e4681614e1b565b82525050565b6000604082019050614e6160008301856140b9565b614e6e6020830184614e3d565b9392505050565b7f6e6f206974207761732074686973203200000000000000000000000000000000600082015250565b6000614eab601083613f74565b9150614eb682614e75565b602082019050919050565b60006020820190508181036000830152614eda81614e9e565b9050919050565b7f746869732077617320746865206572726f720000000000000000000000000000600082015250565b6000614f17601283613f74565b9150614f2282614ee1565b602082019050919050565b60006020820190508181036000830152614f4681614f0a565b9050919050565b6000614f5882614024565b9150614f6383614024565b9250817fffffffffffffffffffffffffffffffffffffffffffffffffffffffffffffffff0483118215151615614f9c57614f9b614a39565b5b828202905092915050565b6000606082019050614fbc60008301866140b9565b614fc960208301856140b9565b614fd660408301846142f3565b949350505050565b7f5472616e73666572204661696c65640000000000000000000000000000000000600082015250565b6000615014600f83613f74565b915061501f82614fde565b602082019050919050565b6000602082019050818103600083015261504381615007565b9050919050565b7f4f776e61626c653a206e6577206f776e657220697320746865207a65726f206160008201527f6464726573730000000000000000000000000000000000000000000000000000602082015250565b60006150a6602683613f74565b91506150b18261504a565b604082019050919050565b600060208201905081810360008301526150d581615099565b9050919050565b7f4552433732313a207472616e736665722066726f6d20696e636f72726563742060008201527f6f776e6572000000000000000000000000000000000000000000000000000000602082015250565b6000615138602583613f74565b9150615143826150dc565b604082019050919050565b600060208201905081810360008301526151678161512b565b9050919050565b7f4552433732313a207472616e7366657220746f20746865207a65726f2061646460008201527f7265737300000000000000000000000000000000000000000000000000000000602082015250565b60006151ca602483613f74565b91506151d58261516e565b604082019050919050565b600060208201905081810360008301526151f9816151bd565b9050919050565b7f4f776e61626c653a2063616c6c6572206973206e6f7420746865206f776e6572600082015250565b6000615236602083613f74565b915061524182615200565b602082019050919050565b6000602082019050818103600083015261526581615229565b9050919050565b7f4552433732313a20617070726f766520746f2063616c6c657200000000000000600082015250565b60006152a2601983613f74565b91506152ad8261526c565b602082019050919050565b600060208201905081810360008301526152d181615295565b9050919050565b7f4552433732313a207472616e7366657220746f206e6f6e20455243373231526560008201527f63656976657220696d706c656d656e7465720000000000000000000000000000602082015250565b6000615334603283613f74565b915061533f826152d8565b604082019050919050565b6000602082019050818103600083015261536381615327565b9050919050565b60006153758261414f565b91506153808361414f565b92508262ffffff0382111561539857615397614a39565b5b828201905092915050565b7f4e487b7100000000000000000000000000000000000000000000000000000000600052601260045260246000fd5b60006153dd82614024565b91506153e883614024565b9250826153f8576153f76153a3565b5b828204905092915050565b600061540e82614024565b915061541983614024565b925082615429576154286153a3565b5b828206905092915050565b600081519050919050565b600082825260208201905092915050565b600061545b82615434565b615465818561543f565b9350615475818560208601613f85565b61547e81613fb8565b840191505092915050565b600060808201905061549e60008301876140b9565b6154ab60208301866140b9565b6154b860408301856142f3565b81810360608301526154ca8184615450565b905095945050505050565b6000815190506154e481613eda565b92915050565b600060208284031215615500576154ff613ea4565b5b600061550e848285016154d5565b91505092915050565b6000819050919050565b61553261552d82614024565b615517565b82525050565b60008160601b9050919050565b600061555082615538565b9050919050565b600061556282615545565b9050919050565b61557a615575826140a7565b615557565b82525050565b600061558c8285615521565b60208201915061559c8284615569565b6014820191508190509392505050565b60006155b78261414f565b91506155c28361414f565b9250826155d2576155d16153a3565b5b828206905092915050565b7f6e6f7420746f6461790000000000000000000000000000000000000000000000600082015250565b6000615613600983613f74565b915061561e826155dd565b602082019050919050565b6000602082019050818103600083015261564281615606565b9050919050565b7f4552433732313a206d696e7420746f20746865207a65726f2061646472657373600082015250565b600061567f602083613f74565b915061568a82615649565b602082019050919050565b600060208201905081810360008301526156ae81615672565b9050919050565b7f4552433732313a20746f6b656e20616c7265616479206d696e74656400000000600082015250565b60006156eb601c83613f74565b91506156f6826156b5565b602082019050919050565b6000602082019050818103600083015261571a816156de565b905091905056fea264697066735822122001e7b3f2925dea03ef1b4376264ea17bd14e9c1abfa43621110bdec4b744e52664736f6c63430008090033",
  "linkReferences": {},
  "deployedLinkReferences": {}
}